{
  "contractName": "Test",
  "abi": [
    {
      "constant": true,
      "inputs": [],
      "name": "data",
      "outputs": [
        {
          "name": "",
          "type": "uint32"
        }
      ],
      "payable": false,
      "stateMutability": "view",
      "type": "function"
    },
    {
      "anonymous": false,
      "inputs": [
        {
          "indexed": false,
          "name": "oldData",
          "type": "uint32"
        },
        {
          "indexed": false,
          "name": "newData",
          "type": "uint32"
        }
      ],
      "name": "SetValue",
      "type": "event"
    },
    {
      "constant": false,
      "inputs": [
        {
          "name": "_data",
          "type": "uint32"
        }
      ],
      "name": "setDat",
      "outputs": [],
      "payable": false,
      "stateMutability": "nonpayable",
      "type": "function"
    }
  ],
  "bytecode": "0x608060405234801561001057600080fd5b50610187806100206000396000f30060806040526004361061004c576000357c0100000000000000000000000000000000000000000000000000000000900463ffffffff16806373d4a13a14610051578063f5e1f42814610088575b600080fd5b34801561005d57600080fd5b506100666100bb565b604051808263ffffffff1663ffffffff16815260200191505060405180910390f35b34801561009457600080fd5b506100b9600480360381019080803563ffffffff1690602001909291905050506100d0565b005b6000809054906101000a900463ffffffff1681565b7f17957f3004658e10860154595dfad969eaa5f9fdd0b2bc23229de9fe593d157e6000809054906101000a900463ffffffff1682604051808363ffffffff1663ffffffff1681526020018263ffffffff1663ffffffff1681526020019250505060405180910390a1806000806101000a81548163ffffffff021916908363ffffffff160217905550505600a165627a7a72305820a74d1f5fb00d7b8080ce799d95a65c59a9fe00ae7185eb0b0506f4840a77c3230029",
  "source": "pragma solidity 0.4.24;\n\n\ncontract Test {\n    uint32 public data;\n\n    event SetValue(uint32 oldData, uint32 newData);\n\n    function setDat(uint32 _data) public {\n        emit SetValue(data, _data);\n        data = _data;\n    }\n}",
  "sourcePath": "/Users/shubhamsuyal/code/brightcoin/test/contracts/Test.sol",
  "compiler": {
    "name": "solc",
    "version": "0.4.24+commit.e67f0147.Emscripten.clang"
  },
  "schemaVersion": "2.0.1",
  "updatedAt": "2018-11-21T18:41:36.598Z"
}