{
  "contractName": "BrightCoinnonAccridetedInvestor",
  "abi": [
    {
      "constant": true,
      "inputs": [],
      "name": "owner",
      "outputs": [
        {
          "name": "",
          "type": "address"
        }
      ],
      "payable": false,
      "stateMutability": "view",
      "type": "function"
    },
    {
      "constant": true,
      "inputs": [],
      "name": "isOwner",
      "outputs": [
        {
          "name": "",
          "type": "bool"
        }
      ],
      "payable": false,
      "stateMutability": "view",
      "type": "function"
    },
    {
      "constant": true,
      "inputs": [
        {
          "name": "",
          "type": "uint256"
        }
      ],
      "name": "nonAccreditedInvestors",
      "outputs": [
        {
          "name": "",
          "type": "address"
        }
      ],
      "payable": false,
      "stateMutability": "view",
      "type": "function"
    },
    {
      "inputs": [],
      "payable": false,
      "stateMutability": "nonpayable",
      "type": "constructor"
    },
    {
      "anonymous": false,
      "inputs": [
        {
          "indexed": true,
          "name": "previousOwner",
          "type": "address"
        }
      ],
      "name": "OwnershipRenounced",
      "type": "event"
    },
    {
      "anonymous": false,
      "inputs": [
        {
          "indexed": true,
          "name": "previousOwner",
          "type": "address"
        },
        {
          "indexed": true,
          "name": "newOwner",
          "type": "address"
        }
      ],
      "name": "OwnershipTransferred",
      "type": "event"
    },
    {
      "constant": false,
      "inputs": [
        {
          "name": "_investoraddr",
          "type": "address"
        },
        {
          "name": "_investorGeoLocation",
          "type": "uint256"
        },
        {
          "name": "_ipfsHashRegSInvestor",
          "type": "string"
        }
      ],
      "name": "AddNonAccreditedInvestorDetails",
      "outputs": [],
      "payable": false,
      "stateMutability": "nonpayable",
      "type": "function"
    },
    {
      "constant": true,
      "inputs": [
        {
          "name": "_investoraddr",
          "type": "address"
        }
      ],
      "name": "GetGeoLocationOfNonInvestor",
      "outputs": [
        {
          "name": "",
          "type": "uint256"
        }
      ],
      "payable": false,
      "stateMutability": "view",
      "type": "function"
    }
  ],
  "bytecode": "0x608060405234801561001057600080fd5b50336000806101000a81548173ffffffffffffffffffffffffffffffffffffffff021916908373ffffffffffffffffffffffffffffffffffffffff1602179055506105c4806100606000396000f30060806040526004361061006d576000357c0100000000000000000000000000000000000000000000000000000000900463ffffffff1680638da5cb5b146100725780638f32d59b146100c9578063a59b5b0b146100f8578063abc9985e1461014f578063d949979b146101bc575b600080fd5b34801561007e57600080fd5b5061008761024f565b604051808273ffffffffffffffffffffffffffffffffffffffff1673ffffffffffffffffffffffffffffffffffffffff16815260200191505060405180910390f35b3480156100d557600080fd5b506100de610278565b604051808215151515815260200191505060405180910390f35b34801561010457600080fd5b50610139600480360381019080803573ffffffffffffffffffffffffffffffffffffffff1690602001909291905050506102cf565b6040518082815260200191505060405180910390f35b34801561015b57600080fd5b5061017a6004803603810190808035906020019092919050505061034a565b604051808273ffffffffffffffffffffffffffffffffffffffff1673ffffffffffffffffffffffffffffffffffffffff16815260200191505060405180910390f35b3480156101c857600080fd5b5061024d600480360381019080803573ffffffffffffffffffffffffffffffffffffffff16906020019092919080359060200190929190803590602001908201803590602001908080601f0160208091040260200160405190810160405280939291908181526020018383808284378201915050505050509192919290505050610388565b005b60008060009054906101000a900473ffffffffffffffffffffffffffffffffffffffff16905090565b60008060009054906101000a900473ffffffffffffffffffffffffffffffffffffffff1673ffffffffffffffffffffffffffffffffffffffff163373ffffffffffffffffffffffffffffffffffffffff1614905090565b600080600160008473ffffffffffffffffffffffffffffffffffffffff1673ffffffffffffffffffffffffffffffffffffffff168152602001908152602001600020905060018160030160009054906101000a900460ff1660ff1614151561033c57620f423f9150610344565b806001015491505b50919050565b60028181548110151561035957fe5b906000526020600020016000915054906101000a900473ffffffffffffffffffffffffffffffffffffffff1681565b6000610392610278565b151561039d57600080fd5b60008473ffffffffffffffffffffffffffffffffffffffff16141515156103c357600080fd5b600160008573ffffffffffffffffffffffffffffffffffffffff1673ffffffffffffffffffffffffffffffffffffffff1681526020019081526020016000209050838160000160006101000a81548173ffffffffffffffffffffffffffffffffffffffff021916908373ffffffffffffffffffffffffffffffffffffffff160217905550828160010181905550818160020190805190602001906104689291906104f3565b5060018160030160006101000a81548160ff021916908360ff16021790555060028490806001815401808255809150509060018203906000526020600020016000909192909190916101000a81548173ffffffffffffffffffffffffffffffffffffffff021916908373ffffffffffffffffffffffffffffffffffffffff1602179055505050505050565b828054600181600116156101000203166002900490600052602060002090601f016020900481019282601f1061053457805160ff1916838001178555610562565b82800160010185558215610562579182015b82811115610561578251825591602001919060010190610546565b5b50905061056f9190610573565b5090565b61059591905b80821115610591576000816000905550600101610579565b5090565b905600a165627a7a723058206451663dc8450245463d5b7f98b0feade09c48a9e77b60b8a304ece8edbf7f8f0029",
  "source": "/*\nReg S -\n This is for USA companies raising money outside USA. \n This can have a 6 Month or a 1 year lockin. \n (KYC/AML has to be done). The other rule is that these tokens cannot be sold to a USA person for a 1 year period. \n */\n \npragma solidity >=0.4.21 <0.5.0;\n//pragma solidity ^0.4.25;\n\nimport \"./BrightCoinTokenOwner.sol\";\nimport \"./SafeMath.sol\";\n\ncontract BrightCoinnonAccridetedInvestor is BrightCoinTokenOwner\n{\n\n\nusing SafeMath for uint;\nuint256  private constant defaultgeolation = 999999;\nconstructor() public\n{\n \n}\n  /////////////////////////////////////////////\n\n    struct nonAccreditedInvestor {\n        address investor;\n        uint256 investorGeoLocation;\n        string ipfsHashRegSInvestor; //It must contains the details of Investor\n        uint8 detailadded;\n      \n    }\n\n    mapping(address => nonAccreditedInvestor) nonAccreditedInvestorDetails;\n    address[] public nonAccreditedInvestors;\n\n    /*Function to Add Investor details*/\n     function  AddNonAccreditedInvestorDetails(address _investoraddr,\n                             uint256 _investorGeoLocation,\n                           string _ipfsHashRegSInvestor )\n                           public onlyTokenOwner \n    {\n      \n      require(_investoraddr != 0x0);\n       nonAccreditedInvestor storage investment = nonAccreditedInvestorDetails[_investoraddr];\n       investment.investor = _investoraddr;\n       investment.investorGeoLocation = _investorGeoLocation;\n       investment.ipfsHashRegSInvestor = _ipfsHashRegSInvestor;\n       investment.detailadded = 1;\n       nonAccreditedInvestors.push(_investoraddr);\n    }\n\n    \n function GetGeoLocationOfNonInvestor(address _investoraddr) \n                 view  public returns(uint256)\n {\n    nonAccreditedInvestor storage structNonAccredeted =  nonAccreditedInvestorDetails[_investoraddr];\n   if (structNonAccredeted.detailadded != 1)\n     return defaultgeolation;\n   // require(structNonAccredeted.investorGeoLocation !=0, \"Geolocation Should not be zero\");\n    return structNonAccredeted.investorGeoLocation;\n }\n\n\n}",
  "sourcePath": "/Users/shubhamsuyal/code/brightcoin/dapp/contracts/BrightCoinnonAccridetedInvestor.sol",
  "compiler": {
    "name": "solc",
    "version": "0.4.24+commit.e67f0147.Emscripten.clang"
  },
  "schemaVersion": "2.0.1",
  "updatedAt": "2019-01-15T05:16:30.833Z"
}