{
  "contractName": "BrightCoinAdminTokenDistributionDetails",
  "abi": [
    {
      "constant": true,
      "inputs": [],
      "name": "name",
      "outputs": [
        {
          "name": "",
          "type": "string"
        }
      ],
      "payable": false,
      "stateMutability": "view",
      "type": "function"
    },
    {
      "constant": true,
      "inputs": [],
      "name": "SUCCESS_CODE",
      "outputs": [
        {
          "name": "",
          "type": "uint8"
        }
      ],
      "payable": false,
      "stateMutability": "view",
      "type": "function"
    },
    {
      "constant": true,
      "inputs": [
        {
          "name": "_newTeamAddr",
          "type": "address"
        }
      ],
      "name": "CheckTeamTokenAmount",
      "outputs": [
        {
          "name": "",
          "type": "uint256"
        }
      ],
      "payable": false,
      "stateMutability": "view",
      "type": "function"
    },
    {
      "constant": true,
      "inputs": [],
      "name": "TotalFounder",
      "outputs": [
        {
          "name": "",
          "type": "uint256"
        }
      ],
      "payable": false,
      "stateMutability": "view",
      "type": "function"
    },
    {
      "constant": true,
      "inputs": [],
      "name": "decimals",
      "outputs": [
        {
          "name": "",
          "type": "uint256"
        }
      ],
      "payable": false,
      "stateMutability": "view",
      "type": "function"
    },
    {
      "constant": false,
      "inputs": [
        {
          "name": "_newFounderAddr",
          "type": "address"
        }
      ],
      "name": "RemoveFounderFromFurtherInvestment",
      "outputs": [
        {
          "name": "",
          "type": "bool"
        }
      ],
      "payable": false,
      "stateMutability": "nonpayable",
      "type": "function"
    },
    {
      "constant": true,
      "inputs": [],
      "name": "initialSupply",
      "outputs": [
        {
          "name": "",
          "type": "uint256"
        }
      ],
      "payable": false,
      "stateMutability": "view",
      "type": "function"
    },
    {
      "constant": true,
      "inputs": [],
      "name": "BonusAmountPreSale",
      "outputs": [
        {
          "name": "",
          "type": "uint256"
        }
      ],
      "payable": false,
      "stateMutability": "view",
      "type": "function"
    },
    {
      "constant": true,
      "inputs": [],
      "name": "INVESTOR_KYC_FAILED_MESSAGE",
      "outputs": [
        {
          "name": "",
          "type": "string"
        }
      ],
      "payable": false,
      "stateMutability": "view",
      "type": "function"
    },
    {
      "constant": true,
      "inputs": [],
      "name": "TOKEN_TRANSFER_LOCK_CODE",
      "outputs": [
        {
          "name": "",
          "type": "uint8"
        }
      ],
      "payable": false,
      "stateMutability": "view",
      "type": "function"
    },
    {
      "constant": true,
      "inputs": [],
      "name": "purchaseRate",
      "outputs": [
        {
          "name": "",
          "type": "uint256"
        }
      ],
      "payable": false,
      "stateMutability": "view",
      "type": "function"
    },
    {
      "constant": true,
      "inputs": [],
      "name": "TotalTeamnvestor",
      "outputs": [
        {
          "name": "",
          "type": "uint256"
        }
      ],
      "payable": false,
      "stateMutability": "view",
      "type": "function"
    },
    {
      "constant": true,
      "inputs": [
        {
          "name": "_newFounderAddr",
          "type": "address"
        }
      ],
      "name": "CheckFounderTokenAmount",
      "outputs": [
        {
          "name": "",
          "type": "uint256"
        }
      ],
      "payable": false,
      "stateMutability": "view",
      "type": "function"
    },
    {
      "constant": true,
      "inputs": [],
      "name": "TOKEN_TRANSFER_UTILITY_TOKEN_MESSAGE",
      "outputs": [
        {
          "name": "",
          "type": "string"
        }
      ],
      "payable": false,
      "stateMutability": "view",
      "type": "function"
    },
    {
      "constant": true,
      "inputs": [],
      "name": "InitialCompanyHoldingValue",
      "outputs": [
        {
          "name": "",
          "type": "uint256"
        }
      ],
      "payable": false,
      "stateMutability": "view",
      "type": "function"
    },
    {
      "constant": true,
      "inputs": [],
      "name": "version",
      "outputs": [
        {
          "name": "",
          "type": "string"
        }
      ],
      "payable": false,
      "stateMutability": "view",
      "type": "function"
    },
    {
      "constant": true,
      "inputs": [],
      "name": "ZERO_ADDRESS_RESTRICTION_MESSAGE",
      "outputs": [
        {
          "name": "",
          "type": "string"
        }
      ],
      "payable": false,
      "stateMutability": "view",
      "type": "function"
    },
    {
      "constant": false,
      "inputs": [
        {
          "name": "_newTeamAddr",
          "type": "address"
        }
      ],
      "name": "RemoveTeamFromFurtherInvestment",
      "outputs": [],
      "payable": false,
      "stateMutability": "nonpayable",
      "type": "function"
    },
    {
      "constant": true,
      "inputs": [],
      "name": "INVESTOR_TOKEN_LOCK_EXPIRED_CODE",
      "outputs": [
        {
          "name": "",
          "type": "uint8"
        }
      ],
      "payable": false,
      "stateMutability": "view",
      "type": "function"
    },
    {
      "constant": true,
      "inputs": [],
      "name": "BountyAllocated",
      "outputs": [
        {
          "name": "",
          "type": "uint256"
        }
      ],
      "payable": false,
      "stateMutability": "view",
      "type": "function"
    },
    {
      "constant": true,
      "inputs": [],
      "name": "CurrentAllocatedFounderToken",
      "outputs": [
        {
          "name": "",
          "type": "uint256"
        }
      ],
      "payable": false,
      "stateMutability": "view",
      "type": "function"
    },
    {
      "constant": true,
      "inputs": [],
      "name": "INVESTOR_ACCREDITION_FAILED_MESSAGE",
      "outputs": [
        {
          "name": "",
          "type": "string"
        }
      ],
      "payable": false,
      "stateMutability": "view",
      "type": "function"
    },
    {
      "constant": true,
      "inputs": [
        {
          "name": "_newAdvisorAddr",
          "type": "address"
        }
      ],
      "name": "CheckAdvisorTokenAmount",
      "outputs": [
        {
          "name": "",
          "type": "uint256"
        }
      ],
      "payable": false,
      "stateMutability": "view",
      "type": "function"
    },
    {
      "constant": true,
      "inputs": [
        {
          "name": "restrictionCode",
          "type": "uint8"
        }
      ],
      "name": "messageForTransferRestriction",
      "outputs": [
        {
          "name": "message",
          "type": "string"
        }
      ],
      "payable": false,
      "stateMutability": "pure",
      "type": "function"
    },
    {
      "constant": true,
      "inputs": [],
      "name": "TOKEN_TRANSFER_UTILITY_TOKEN_CODE",
      "outputs": [
        {
          "name": "",
          "type": "uint8"
        }
      ],
      "payable": false,
      "stateMutability": "view",
      "type": "function"
    },
    {
      "constant": true,
      "inputs": [],
      "name": "INVESTOR_ICO_PAUSED_CODE",
      "outputs": [
        {
          "name": "",
          "type": "uint8"
        }
      ],
      "payable": false,
      "stateMutability": "view",
      "type": "function"
    },
    {
      "constant": true,
      "inputs": [],
      "name": "owner",
      "outputs": [
        {
          "name": "",
          "type": "address"
        }
      ],
      "payable": false,
      "stateMutability": "view",
      "type": "function"
    },
    {
      "constant": true,
      "inputs": [],
      "name": "isOwner",
      "outputs": [
        {
          "name": "",
          "type": "bool"
        }
      ],
      "payable": false,
      "stateMutability": "view",
      "type": "function"
    },
    {
      "constant": true,
      "inputs": [],
      "name": "ZERO_ADDRESS_RESTRICTION_CODE",
      "outputs": [
        {
          "name": "",
          "type": "uint8"
        }
      ],
      "payable": false,
      "stateMutability": "view",
      "type": "function"
    },
    {
      "constant": true,
      "inputs": [],
      "name": "symbol",
      "outputs": [
        {
          "name": "",
          "type": "string"
        }
      ],
      "payable": false,
      "stateMutability": "view",
      "type": "function"
    },
    {
      "constant": true,
      "inputs": [],
      "name": "ICOType",
      "outputs": [
        {
          "name": "",
          "type": "uint8"
        }
      ],
      "payable": false,
      "stateMutability": "view",
      "type": "function"
    },
    {
      "constant": false,
      "inputs": [
        {
          "name": "_newAdvisorAddr",
          "type": "address"
        }
      ],
      "name": "RemoveAdvisorFromFurtherInvestment",
      "outputs": [
        {
          "name": "",
          "type": "bool"
        }
      ],
      "payable": false,
      "stateMutability": "nonpayable",
      "type": "function"
    },
    {
      "constant": true,
      "inputs": [],
      "name": "InitialFounderToken",
      "outputs": [
        {
          "name": "",
          "type": "uint256"
        }
      ],
      "payable": false,
      "stateMutability": "view",
      "type": "function"
    },
    {
      "constant": true,
      "inputs": [],
      "name": "CompanyHoldingValue",
      "outputs": [
        {
          "name": "",
          "type": "uint256"
        }
      ],
      "payable": false,
      "stateMutability": "view",
      "type": "function"
    },
    {
      "constant": true,
      "inputs": [],
      "name": "CompanyHoldingAddress",
      "outputs": [
        {
          "name": "",
          "type": "address"
        }
      ],
      "payable": false,
      "stateMutability": "view",
      "type": "function"
    },
    {
      "constant": true,
      "inputs": [],
      "name": "INVESTOR_ACCREDITION_FAILED_CODE",
      "outputs": [
        {
          "name": "",
          "type": "uint8"
        }
      ],
      "payable": false,
      "stateMutability": "view",
      "type": "function"
    },
    {
      "constant": true,
      "inputs": [],
      "name": "TotalAdvisor",
      "outputs": [
        {
          "name": "",
          "type": "uint256"
        }
      ],
      "payable": false,
      "stateMutability": "view",
      "type": "function"
    },
    {
      "constant": true,
      "inputs": [],
      "name": "maxCoinSoldDuringPresale",
      "outputs": [
        {
          "name": "",
          "type": "uint256"
        }
      ],
      "payable": false,
      "stateMutability": "view",
      "type": "function"
    },
    {
      "constant": true,
      "inputs": [],
      "name": "UNKNOWN_MESSAGE",
      "outputs": [
        {
          "name": "",
          "type": "string"
        }
      ],
      "payable": false,
      "stateMutability": "view",
      "type": "function"
    },
    {
      "constant": true,
      "inputs": [],
      "name": "TotalAllocatedTeamToken",
      "outputs": [
        {
          "name": "",
          "type": "uint256"
        }
      ],
      "payable": false,
      "stateMutability": "view",
      "type": "function"
    },
    {
      "constant": true,
      "inputs": [],
      "name": "ICO_PAUSED_MESSAGE",
      "outputs": [
        {
          "name": "",
          "type": "string"
        }
      ],
      "payable": false,
      "stateMutability": "view",
      "type": "function"
    },
    {
      "constant": true,
      "inputs": [],
      "name": "Discount",
      "outputs": [
        {
          "name": "",
          "type": "uint8"
        }
      ],
      "payable": false,
      "stateMutability": "view",
      "type": "function"
    },
    {
      "constant": true,
      "inputs": [],
      "name": "TotalAllocatedAdvisorToken",
      "outputs": [
        {
          "name": "",
          "type": "uint256"
        }
      ],
      "payable": false,
      "stateMutability": "view",
      "type": "function"
    },
    {
      "constant": true,
      "inputs": [
        {
          "name": "",
          "type": "uint256"
        }
      ],
      "name": "advisorDistributionAddr",
      "outputs": [
        {
          "name": "",
          "type": "address"
        }
      ],
      "payable": false,
      "stateMutability": "view",
      "type": "function"
    },
    {
      "constant": true,
      "inputs": [],
      "name": "TotalAllocatedFounder",
      "outputs": [
        {
          "name": "",
          "type": "uint256"
        }
      ],
      "payable": false,
      "stateMutability": "view",
      "type": "function"
    },
    {
      "constant": true,
      "inputs": [
        {
          "name": "",
          "type": "uint256"
        }
      ],
      "name": "teamTokenDetailsAddr",
      "outputs": [
        {
          "name": "",
          "type": "address"
        }
      ],
      "payable": false,
      "stateMutability": "view",
      "type": "function"
    },
    {
      "constant": true,
      "inputs": [],
      "name": "TOKEN_TRANSFER_LOCK_MESSAGE",
      "outputs": [
        {
          "name": "",
          "type": "string"
        }
      ],
      "payable": false,
      "stateMutability": "view",
      "type": "function"
    },
    {
      "constant": true,
      "inputs": [],
      "name": "SUCCESS_MESSAGE",
      "outputs": [
        {
          "name": "",
          "type": "string"
        }
      ],
      "payable": false,
      "stateMutability": "view",
      "type": "function"
    },
    {
      "constant": true,
      "inputs": [],
      "name": "INVESTOR_KYC_FAILED_CODE",
      "outputs": [
        {
          "name": "",
          "type": "uint8"
        }
      ],
      "payable": false,
      "stateMutability": "view",
      "type": "function"
    },
    {
      "inputs": [],
      "payable": false,
      "stateMutability": "nonpayable",
      "type": "constructor"
    },
    {
      "anonymous": false,
      "inputs": [
        {
          "indexed": true,
          "name": "previousOwner",
          "type": "address"
        }
      ],
      "name": "OwnershipRenounced",
      "type": "event"
    },
    {
      "anonymous": false,
      "inputs": [
        {
          "indexed": true,
          "name": "previousOwner",
          "type": "address"
        },
        {
          "indexed": true,
          "name": "newOwner",
          "type": "address"
        }
      ],
      "name": "OwnershipTransferred",
      "type": "event"
    }
  ],
  "bytecode": "0x6080604052635be030c0600c55635d194cff600d556000600e556000600f5560006010556000601155630ee6b280601255600060155560006016556000601755600060185534801561005057600080fd5b50336000806101000a81548173ffffffffffffffffffffffffffffffffffffffff021916908373ffffffffffffffffffffffffffffffffffffffff160217905550611ac9806100a06000396000f300608060405260043610610251576000357c0100000000000000000000000000000000000000000000000000000000900463ffffffff16806306fdde03146102565780630e969a05146102e65780631e9e3f97146103175780632b2d83701461036e578063313ce56714610399578063354fc0c0146103c4578063378dc3dc1461041f578063410116fb1461044a578063442ea1a2146104755780634575f7211461050557806348c26e22146105365780634c3ed4e114610561578063515879e71461058c5780635288bb49146105e357806354c15d5e1461067357806354fd4d501461069e578063572fb26c1461072e578063577ed9d2146107be57806361fa3df514610801578063647445151461083257806366055b141461085d5780637754e0ed146108885780637b758ef7146109185780637f4ab1dd1461096f5780637ffacdc714610a185780638da28ea314610a495780638da5cb5b14610a7a5780638f32d59b14610ad15780639260c58c14610b0057806395d89b4114610b315780639ca5d79f14610bc15780639f7e3a7f14610bf2578063a180218f14610c4d578063a240c60c14610c78578063a4876bc414610ca3578063afbc344614610cfa578063b03fd1ba14610d2b578063b30f63da14610d56578063ba0cf30414610d81578063bc30585214610e11578063bfdb67f314610e3c578063c63ccb3b14610ecc578063cc15c0f014610efd578063d62eb96014610f28578063d9d4f00c14610f95578063da04bb1014610fc0578063df50131f1461102d578063e7984d17146110bd578063f94fd7a61461114d575b600080fd5b34801561026257600080fd5b5061026b61117e565b6040518080602001828103825283818151815260200191508051906020019080838360005b838110156102ab578082015181840152602081019050610290565b50505050905090810190601f1680156102d85780820380516001836020036101000a031916815260200191505b509250505060405180910390f35b3480156102f257600080fd5b506102fb6111b7565b604051808260ff1660ff16815260200191505060405180910390f35b34801561032357600080fd5b50610358600480360381019080803573ffffffffffffffffffffffffffffffffffffffff1690602001909291905050506111bc565b6040518082815260200191505060405180910390f35b34801561037a57600080fd5b5061038361120d565b6040518082815260200191505060405180910390f35b3480156103a557600080fd5b506103ae61121a565b6040518082815260200191505060405180910390f35b3480156103d057600080fd5b50610405600480360381019080803573ffffffffffffffffffffffffffffffffffffffff16906020019092919050505061121f565b604051808215151515815260200191505060405180910390f35b34801561042b57600080fd5b5061043461129d565b6040518082815260200191505060405180910390f35b34801561045657600080fd5b5061045f6112a5565b6040518082815260200191505060405180910390f35b34801561048157600080fd5b5061048a6112aa565b6040518080602001828103825283818151815260200191508051906020019080838360005b838110156104ca5780820151818401526020810190506104af565b50505050905090810190601f1680156104f75780820380516001836020036101000a031916815260200191505b509250505060405180910390f35b34801561051157600080fd5b5061051a6112e3565b604051808260ff1660ff16815260200191505060405180910390f35b34801561054257600080fd5b5061054b6112e8565b6040518082815260200191505060405180910390f35b34801561056d57600080fd5b506105766112ee565b6040518082815260200191505060405180910390f35b34801561059857600080fd5b506105cd600480360381019080803573ffffffffffffffffffffffffffffffffffffffff1690602001909291905050506112fb565b6040518082815260200191505060405180910390f35b3480156105ef57600080fd5b506105f861134c565b6040518080602001828103825283818151815260200191508051906020019080838360005b8381101561063857808201518184015260208101905061061d565b50505050905090810190601f1680156106655780820380516001836020036101000a031916815260200191505b509250505060405180910390f35b34801561067f57600080fd5b50610688611385565b6040518082815260200191505060405180910390f35b3480156106aa57600080fd5b506106b361138d565b6040518080602001828103825283818151815260200191508051906020019080838360005b838110156106f35780820151818401526020810190506106d8565b50505050905090810190601f1680156107205780820380516001836020036101000a031916815260200191505b509250505060405180910390f35b34801561073a57600080fd5b506107436113c6565b6040518080602001828103825283818151815260200191508051906020019080838360005b83811015610783578082015181840152602081019050610768565b50505050905090810190601f1680156107b05780820380516001836020036101000a031916815260200191505b509250505060405180910390f35b3480156107ca57600080fd5b506107ff600480360381019080803573ffffffffffffffffffffffffffffffffffffffff1690602001909291905050506113ff565b005b34801561080d57600080fd5b50610816611476565b604051808260ff1660ff16815260200191505060405180910390f35b34801561083e57600080fd5b5061084761147b565b6040518082815260200191505060405180910390f35b34801561086957600080fd5b50610872611481565b6040518082815260200191505060405180910390f35b34801561089457600080fd5b5061089d611487565b6040518080602001828103825283818151815260200191508051906020019080838360005b838110156108dd5780820151818401526020810190506108c2565b50505050905090810190601f16801561090a5780820380516001836020036101000a031916815260200191505b509250505060405180910390f35b34801561092457600080fd5b50610959600480360381019080803573ffffffffffffffffffffffffffffffffffffffff1690602001909291905050506114e7565b6040518082815260200191505060405180910390f35b34801561097b57600080fd5b5061099d600480360381019080803560ff16906020019092919050505061154b565b6040518080602001828103825283818151815260200191508051906020019080838360005b838110156109dd5780820151818401526020810190506109c2565b50505050905090810190601f168015610a0a5780820380516001836020036101000a031916815260200191505b509250505060405180910390f35b348015610a2457600080fd5b50610a2d611754565b604051808260ff1660ff16815260200191505060405180910390f35b348015610a5557600080fd5b50610a5e611759565b604051808260ff1660ff16815260200191505060405180910390f35b348015610a8657600080fd5b50610a8f61175e565b604051808273ffffffffffffffffffffffffffffffffffffffff1673ffffffffffffffffffffffffffffffffffffffff16815260200191505060405180910390f35b348015610add57600080fd5b50610ae6611787565b604051808215151515815260200191505060405180910390f35b348015610b0c57600080fd5b50610b156117de565b604051808260ff1660ff16815260200191505060405180910390f35b348015610b3d57600080fd5b50610b466117e3565b6040518080602001828103825283818151815260200191508051906020019080838360005b83811015610b86578082015181840152602081019050610b6b565b50505050905090810190601f168015610bb35780820380516001836020036101000a031916815260200191505b509250505060405180910390f35b348015610bcd57600080fd5b50610bd661181c565b604051808260ff1660ff16815260200191505060405180910390f35b348015610bfe57600080fd5b50610c33600480360381019080803573ffffffffffffffffffffffffffffffffffffffff16906020019092919050505061182c565b604051808215151515815260200191505060405180910390f35b348015610c5957600080fd5b50610c626118aa565b6040518082815260200191505060405180910390f35b348015610c8457600080fd5b50610c8d6118b2565b6040518082815260200191505060405180910390f35b348015610caf57600080fd5b50610cb86118b8565b604051808273ffffffffffffffffffffffffffffffffffffffff1673ffffffffffffffffffffffffffffffffffffffff16815260200191505060405180910390f35b348015610d0657600080fd5b50610d0f6118d0565b604051808260ff1660ff16815260200191505060405180910390f35b348015610d3757600080fd5b50610d406118d5565b6040518082815260200191505060405180910390f35b348015610d6257600080fd5b50610d6b6118f5565b6040518082815260200191505060405180910390f35b348015610d8d57600080fd5b50610d966118fa565b6040518080602001828103825283818151815260200191508051906020019080838360005b83811015610dd6578082015181840152602081019050610dbb565b50505050905090810190601f168015610e035780820380516001836020036101000a031916815260200191505b509250505060405180910390f35b348015610e1d57600080fd5b50610e26611933565b6040518082815260200191505060405180910390f35b348015610e4857600080fd5b50610e51611939565b6040518080602001828103825283818151815260200191508051906020019080838360005b83811015610e91578082015181840152602081019050610e76565b50505050905090810190601f168015610ebe5780820380516001836020036101000a031916815260200191505b509250505060405180910390f35b348015610ed857600080fd5b50610ee1611972565b604051808260ff1660ff16815260200191505060405180910390f35b348015610f0957600080fd5b50610f12611977565b6040518082815260200191505060405180910390f35b348015610f3457600080fd5b50610f536004803603810190808035906020019092919050505061197d565b604051808273ffffffffffffffffffffffffffffffffffffffff1673ffffffffffffffffffffffffffffffffffffffff16815260200191505060405180910390f35b348015610fa157600080fd5b50610faa6119bb565b6040518082815260200191505060405180910390f35b348015610fcc57600080fd5b50610feb600480360381019080803590602001909291905050506119c1565b604051808273ffffffffffffffffffffffffffffffffffffffff1673ffffffffffffffffffffffffffffffffffffffff16815260200191505060405180910390f35b34801561103957600080fd5b506110426119ff565b6040518080602001828103825283818151815260200191508051906020019080838360005b83811015611082578082015181840152602081019050611067565b50505050905090810190601f1680156110af5780820380516001836020036101000a031916815260200191505b509250505060405180910390f35b3480156110c957600080fd5b506110d2611a5f565b6040518080602001828103825283818151815260200191508051906020019080838360005b838110156111125780820151818401526020810190506110f7565b50505050905090810190601f16801561113f5780820380516001836020036101000a031916815260200191505b509250505060405180910390f35b34801561115957600080fd5b50611162611a98565b604051808260ff1660ff16815260200191505060405180910390f35b6040805190810160405280600981526020017f50726f7869436f696e000000000000000000000000000000000000000000000081525081565b600081565b600080600760008473ffffffffffffffffffffffffffffffffffffffff1673ffffffffffffffffffffffffffffffffffffffff16815260200190815260200160002090508060010154915050919050565b6000600b80549050905090565b600081565b60008061122a611787565b151561123557600080fd5b600a60008473ffffffffffffffffffffffffffffffffffffffff1673ffffffffffffffffffffffffffffffffffffffff168152602001908152602001600020905060008160030160006101000a81548160ff0219169083151502179055506001915050919050565b631dcd650081565b600081565b6040805190810160405280601b81526020017f494e564553544f52204953204e4f54204b594320454e41424c4544000000000081525081565b600281565b60105481565b6000600880549050905090565b600080600a60008473ffffffffffffffffffffffffffffffffffffffff1673ffffffffffffffffffffffffffffffffffffffff16815260200190815260200160002090508060010154915050919050565b6040805190810160405280601681526020017f544f4b454e204953205554494c49545920544f4b454e0000000000000000000081525081565b6302625a0081565b6040805190810160405280600381526020017f312e30000000000000000000000000000000000000000000000000000000000081525081565b6040805190810160405280602081526020017f494c4c4547414c5f5452414e534645525f544f5f5a45524f5f4144445245535381525081565b6000611409611787565b151561141457600080fd5b600760008373ffffffffffffffffffffffffffffffffffffffff1673ffffffffffffffffffffffffffffffffffffffff168152602001908152602001600020905060008160030160006101000a81548160ff0219169083151502179055505050565b600681565b60185481565b60165481565b606060405190810160405280602181526020017f494e564553544f52204143435245444954494f4e204953204e4f542056414c4981526020017f440000000000000000000000000000000000000000000000000000000000000081525081565b6000806114f2611787565b15156114fd57600080fd5b600360008473ffffffffffffffffffffffffffffffffffffffff1673ffffffffffffffffffffffffffffffffffffffff16815260200190815260200160002090508060010154915050919050565b60606040805190810160405280600781526020017f554e4b4e4f574e000000000000000000000000000000000000000000000000008152509050600060ff168260ff1614156115d1576040805190810160405280600781526020017f5355434345535300000000000000000000000000000000000000000000000000815250905061174f565b600160ff168260ff16141561161d576040805190810160405280602081526020017f494c4c4547414c5f5452414e534645525f544f5f5a45524f5f41444452455353815250905061174e565b600260ff168260ff16141561169057606060405190810160405280602181526020017f54494d45204c4f434b454420544f4b454e2043414e204e4f54205452414e534681526020017f5200000000000000000000000000000000000000000000000000000000000000815250905061174d565b600360ff168260ff16141561170357606060405190810160405280602181526020017f494e564553544f52204143435245444954494f4e204953204e4f542056414c4981526020017f4400000000000000000000000000000000000000000000000000000000000000815250905061174c565b600460ff168260ff16141561174b576040805190810160405280601b81526020017f494e564553544f52204953204e4f54204b594320454e41424c4544000000000081525090505b5b5b5b5b919050565b600781565b600581565b60008060009054906101000a900473ffffffffffffffffffffffffffffffffffffffff16905090565b60008060009054906101000a900473ffffffffffffffffffffffffffffffffffffffff1673ffffffffffffffffffffffffffffffffffffffff163373ffffffffffffffffffffffffffffffffffffffff1614905090565b600181565b6040805190810160405280600381526020017f50434e000000000000000000000000000000000000000000000000000000000081525081565b6002600381111561182957fe5b81565b600080611837611787565b151561184257600080fd5b600360008473ffffffffffffffffffffffffffffffffffffffff1673ffffffffffffffffffffffffffffffffffffffff168152602001908152602001600020905060008160030160006101000a81548160ff0219169083151502179055506001915050919050565b630bebc20081565b60175481565b73b9872b9ab8235cc3b4253195c5476d284d448c5d81565b600381565b60006118df611787565b15156118ea57600080fd5b600480549050905090565b600081565b6040805190810160405280600781526020017f554e4b4e4f574e0000000000000000000000000000000000000000000000000081525081565b60065481565b6040805190810160405280600d81526020017f49434f204953205041555345440000000000000000000000000000000000000081525081565b600081565b60025481565b60048181548110151561198c57fe5b906000526020600020016000915054906101000a900473ffffffffffffffffffffffffffffffffffffffff1681565b60155481565b6008818154811015156119d057fe5b906000526020600020016000915054906101000a900473ffffffffffffffffffffffffffffffffffffffff1681565b606060405190810160405280602181526020017f54494d45204c4f434b454420544f4b454e2043414e204e4f54205452414e534681526020017f520000000000000000000000000000000000000000000000000000000000000081525081565b6040805190810160405280600781526020017f535543434553530000000000000000000000000000000000000000000000000081525081565b6004815600a165627a7a72305820756da64733b05949bbd663b00ad253e48add7f8889a1653d23bb0bbcfcd084540029",
  "source": "pragma solidity >=0.4.21 <0.5.0;\n\nimport \"./BrightCoinTeamTokenDistribution.sol\"; \nimport \"./BrightCoinFounderTokenDistribution.sol\"; \nimport \"./BrightCoinAdvisorTokenDistribution.sol\"; \nimport \"./SafeMath.sol\";\nimport \"./BrightCoinTokenOwner.sol\";\nimport \"./BrightCoinTokenConfig.sol\";\nimport \"./BrightCoinMessage.sol\";\n\ncontract BrightCoinAdminTokenDistributionDetails is BrightCoinAdvisorTokenDistribution,\nBrightCoinTeamTokenDistribution,\nBrightCoinFounderTokenDistribution,\nBrightCoinTokenConfig,\nBrightCoinMessage\n{\n\nusing SafeMath for uint;\n\n\n  mapping(address => uint256)CompanyHoldingBalances;\n  mapping(address => uint256)BountyBalances;\n\nenum BrightCoinAdminType { Founder, Advisor, Team }\n\nconstructor() public\n{\n \n}\n\n\n  //Token distribution details\n  /////////////////////////////////////////\n  //Token Distribution Details --- Founder \nuint256 public TotalAllocatedFounder = 0;\nuint256 public CurrentAllocatedFounderToken = 0; //To be taken as it is \nuint256 public CompanyHoldingValue = 0;\nuint256 public BountyAllocated = 0;\n\n  \n\n function AddAdminToken(address _addr, uint256 _expiryDateTime, \n                                      uint256 _token, bool _tokenlocked, uint8 _adminType) internal\n {\n\n\n  if(_adminType == uint8(BrightCoinAdminType.Founder))\n    {\n       AddFounder(_addr,_token,_expiryDateTime,_tokenlocked);\n    }\n    else if (_adminType == uint8(BrightCoinAdminType.Advisor))\n    {\n     AddAdvisor(_addr,_token,_expiryDateTime,_tokenlocked);\n    }\n    else if(_adminType == uint8(BrightCoinAdminType.Team))\n    {\n      AddTeam(_addr,_token,_expiryDateTime,_tokenlocked);\n\n    }\n    \n\n }\n\n\nfunction UpdateAdminTokenDetails(address _addr, uint256 _expiryDateTime, \n                                      uint256 _tokens, uint8 _adminType) internal\n {\n\n  if(_adminType == uint8(BrightCoinAdminType.Founder))\n    {\n      UpdateFounderTokenDetails(_addr,_tokens,_expiryDateTime);\n    }\n    else if (_adminType == uint8(BrightCoinAdminType.Advisor))\n    {\n        UpdateAdvisorTokenDetails(_addr,_tokens,_expiryDateTime);\n    }\n    else if(_adminType == uint8(BrightCoinAdminType.Team))\n    {\n        UpdateTeamTokenDetails(_addr,_tokens,_expiryDateTime);\n\n    }  \n\n }\n\n \n\n \n}",
  "sourcePath": "/Users/shubhamsuyal/code/brightcoin/dapp/contracts/BrightCoinAdminTokenDistributionDetails.sol",
  "compiler": {
    "name": "solc",
    "version": "0.4.24+commit.e67f0147.Emscripten.clang"
  },
  "schemaVersion": "2.0.1",
  "updatedAt": "2019-01-15T05:16:30.779Z"
}