{
  "contractName": "BrightCoinTokenPreSaleDetails",
  "abi": [
    {
      "constant": true,
      "inputs": [],
      "name": "name",
      "outputs": [
        {
          "name": "",
          "type": "string"
        }
      ],
      "payable": false,
      "stateMutability": "view",
      "type": "function"
    },
    {
      "constant": true,
      "inputs": [],
      "name": "decimals",
      "outputs": [
        {
          "name": "",
          "type": "uint256"
        }
      ],
      "payable": false,
      "stateMutability": "view",
      "type": "function"
    },
    {
      "constant": true,
      "inputs": [],
      "name": "TokenSaleOn",
      "outputs": [
        {
          "name": "",
          "type": "bool"
        }
      ],
      "payable": false,
      "stateMutability": "view",
      "type": "function"
    },
    {
      "constant": true,
      "inputs": [],
      "name": "initialSupply",
      "outputs": [
        {
          "name": "",
          "type": "uint256"
        }
      ],
      "payable": false,
      "stateMutability": "view",
      "type": "function"
    },
    {
      "constant": true,
      "inputs": [],
      "name": "BonusAmountPreSale",
      "outputs": [
        {
          "name": "",
          "type": "uint256"
        }
      ],
      "payable": false,
      "stateMutability": "view",
      "type": "function"
    },
    {
      "constant": true,
      "inputs": [],
      "name": "purchaseRate",
      "outputs": [
        {
          "name": "",
          "type": "uint256"
        }
      ],
      "payable": false,
      "stateMutability": "view",
      "type": "function"
    },
    {
      "constant": true,
      "inputs": [],
      "name": "InitialCompanyHoldingValue",
      "outputs": [
        {
          "name": "",
          "type": "uint256"
        }
      ],
      "payable": false,
      "stateMutability": "view",
      "type": "function"
    },
    {
      "constant": true,
      "inputs": [],
      "name": "version",
      "outputs": [
        {
          "name": "",
          "type": "string"
        }
      ],
      "payable": false,
      "stateMutability": "view",
      "type": "function"
    },
    {
      "constant": true,
      "inputs": [],
      "name": "owner",
      "outputs": [
        {
          "name": "",
          "type": "address"
        }
      ],
      "payable": false,
      "stateMutability": "view",
      "type": "function"
    },
    {
      "constant": true,
      "inputs": [],
      "name": "isOwner",
      "outputs": [
        {
          "name": "",
          "type": "bool"
        }
      ],
      "payable": false,
      "stateMutability": "view",
      "type": "function"
    },
    {
      "constant": true,
      "inputs": [],
      "name": "symbol",
      "outputs": [
        {
          "name": "",
          "type": "string"
        }
      ],
      "payable": false,
      "stateMutability": "view",
      "type": "function"
    },
    {
      "constant": true,
      "inputs": [],
      "name": "ICOType",
      "outputs": [
        {
          "name": "",
          "type": "uint8"
        }
      ],
      "payable": false,
      "stateMutability": "view",
      "type": "function"
    },
    {
      "constant": true,
      "inputs": [],
      "name": "InitialFounderToken",
      "outputs": [
        {
          "name": "",
          "type": "uint256"
        }
      ],
      "payable": false,
      "stateMutability": "view",
      "type": "function"
    },
    {
      "constant": true,
      "inputs": [],
      "name": "CompanyHoldingAddress",
      "outputs": [
        {
          "name": "",
          "type": "address"
        }
      ],
      "payable": false,
      "stateMutability": "view",
      "type": "function"
    },
    {
      "constant": true,
      "inputs": [],
      "name": "maxCoinSoldDuringPresale",
      "outputs": [
        {
          "name": "",
          "type": "uint256"
        }
      ],
      "payable": false,
      "stateMutability": "view",
      "type": "function"
    },
    {
      "constant": true,
      "inputs": [],
      "name": "Discount",
      "outputs": [
        {
          "name": "",
          "type": "uint8"
        }
      ],
      "payable": false,
      "stateMutability": "view",
      "type": "function"
    },
    {
      "inputs": [],
      "payable": false,
      "stateMutability": "nonpayable",
      "type": "constructor"
    },
    {
      "anonymous": false,
      "inputs": [
        {
          "indexed": true,
          "name": "previousOwner",
          "type": "address"
        }
      ],
      "name": "OwnershipRenounced",
      "type": "event"
    },
    {
      "anonymous": false,
      "inputs": [
        {
          "indexed": true,
          "name": "previousOwner",
          "type": "address"
        },
        {
          "indexed": true,
          "name": "newOwner",
          "type": "address"
        }
      ],
      "name": "OwnershipTransferred",
      "type": "event"
    },
    {
      "constant": false,
      "inputs": [
        {
          "name": "_startDateTimeStamp",
          "type": "uint256"
        },
        {
          "name": "_currenttime",
          "type": "uint256"
        }
      ],
      "name": "changeStartDate",
      "outputs": [
        {
          "name": "",
          "type": "bool"
        }
      ],
      "payable": false,
      "stateMutability": "nonpayable",
      "type": "function"
    },
    {
      "constant": false,
      "inputs": [
        {
          "name": "_endDateTimeStamp",
          "type": "uint256"
        },
        {
          "name": "_currenttime",
          "type": "uint256"
        }
      ],
      "name": "changeEndDate",
      "outputs": [
        {
          "name": "",
          "type": "bool"
        }
      ],
      "payable": false,
      "stateMutability": "nonpayable",
      "type": "function"
    },
    {
      "constant": true,
      "inputs": [
        {
          "name": "_currenttime",
          "type": "uint256"
        }
      ],
      "name": "inPreSalePeriod",
      "outputs": [
        {
          "name": "",
          "type": "bool"
        }
      ],
      "payable": false,
      "stateMutability": "view",
      "type": "function"
    },
    {
      "constant": false,
      "inputs": [
        {
          "name": "_tokensalestatus",
          "type": "bool"
        }
      ],
      "name": "changeTokenSaleStatus",
      "outputs": [],
      "payable": false,
      "stateMutability": "nonpayable",
      "type": "function"
    }
  ],
  "bytecode": "0x6080604052635be030c0600155635d194cff6002556000600355600060045560006005556000600655630ee6b2806007556001600860006101000a81548160ff02191690831515021790555034801561005757600080fd5b50336000806101000a81548173ffffffffffffffffffffffffffffffffffffffff021916908373ffffffffffffffffffffffffffffffffffffffff160217905550610930806100a76000396000f300608060405260043610610112576000357c0100000000000000000000000000000000000000000000000000000000900463ffffffff16806306fdde031461011757806320522347146101a757806322180b37146101f6578063313ce5671461022557806331a8a91014610250578063378dc3dc1461027f5780633c0afb59146102aa578063410116fb146102f957806348c26e221461032457806354c15d5e1461034f57806354fd4d501461037a5780638da5cb5b1461040a5780638f32d59b1461046157806395d89b41146104905780639ca5d79f14610520578063a180218f14610551578063a4876bc41461057c578063b30f63da146105d3578063c63ccb3b146105fe578063f569aed61461062f575b600080fd5b34801561012357600080fd5b5061012c610674565b6040518080602001828103825283818151815260200191508051906020019080838360005b8381101561016c578082015181840152602081019050610151565b50505050905090810190601f1680156101995780820380516001836020036101000a031916815260200191505b509250505060405180910390f35b3480156101b357600080fd5b506101dc60048036038101908080359060200190929190803590602001909291905050506106ad565b604051808215151515815260200191505060405180910390f35b34801561020257600080fd5b50610223600480360381019080803515159060200190929190505050610701565b005b34801561023157600080fd5b5061023a610731565b6040518082815260200191505060405180910390f35b34801561025c57600080fd5b50610265610736565b604051808215151515815260200191505060405180910390f35b34801561028b57600080fd5b50610294610749565b6040518082815260200191505060405180910390f35b3480156102b657600080fd5b506102df6004803603810190808035906020019092919080359060200190929190505050610751565b604051808215151515815260200191505060405180910390f35b34801561030557600080fd5b5061030e610797565b6040518082815260200191505060405180910390f35b34801561033057600080fd5b5061033961079c565b6040518082815260200191505060405180910390f35b34801561035b57600080fd5b506103646107a2565b6040518082815260200191505060405180910390f35b34801561038657600080fd5b5061038f6107aa565b6040518080602001828103825283818151815260200191508051906020019080838360005b838110156103cf5780820151818401526020810190506103b4565b50505050905090810190601f1680156103fc5780820380516001836020036101000a031916815260200191505b509250505060405180910390f35b34801561041657600080fd5b5061041f6107e3565b604051808273ffffffffffffffffffffffffffffffffffffffff1673ffffffffffffffffffffffffffffffffffffffff16815260200191505060405180910390f35b34801561046d57600080fd5b5061047661080c565b604051808215151515815260200191505060405180910390f35b34801561049c57600080fd5b506104a5610863565b6040518080602001828103825283818151815260200191508051906020019080838360005b838110156104e55780820151818401526020810190506104ca565b50505050905090810190601f1680156105125780820380516001836020036101000a031916815260200191505b509250505060405180910390f35b34801561052c57600080fd5b5061053561089c565b604051808260ff1660ff16815260200191505060405180910390f35b34801561055d57600080fd5b506105666108ac565b6040518082815260200191505060405180910390f35b34801561058857600080fd5b506105916108b4565b604051808273ffffffffffffffffffffffffffffffffffffffff1673ffffffffffffffffffffffffffffffffffffffff16815260200191505060405180910390f35b3480156105df57600080fd5b506105e86108cc565b6040518082815260200191505060405180910390f35b34801561060a57600080fd5b506106136108d1565b604051808260ff1660ff16815260200191505060405180910390f35b34801561063b57600080fd5b5061065a600480360381019080803590602001909291905050506108d6565b604051808215151515815260200191505060405180910390f35b6040805190810160405280600981526020017f50726f7869436f696e000000000000000000000000000000000000000000000081525081565b60006106b761080c565b15156106c257600080fd5b81831115156106d057600080fd5b816002541115156106e057600080fd5b600154831115156106f057600080fd5b826002819055506001905092915050565b61070961080c565b151561071457600080fd5b80600860006101000a81548160ff02191690831515021790555050565b600081565b600860009054906101000a900460ff1681565b631dcd650081565b600061075b61080c565b151561076657600080fd5b8160015411151561077657600080fd5b6002548310151561078657600080fd5b826001819055506001905092915050565b600081565b60055481565b6302625a0081565b6040805190810160405280600381526020017f312e30000000000000000000000000000000000000000000000000000000000081525081565b60008060009054906101000a900473ffffffffffffffffffffffffffffffffffffffff16905090565b60008060009054906101000a900473ffffffffffffffffffffffffffffffffffffffff1673ffffffffffffffffffffffffffffffffffffffff163373ffffffffffffffffffffffffffffffffffffffff1614905090565b6040805190810160405280600381526020017f50434e000000000000000000000000000000000000000000000000000000000081525081565b600260038111156108a957fe5b81565b630bebc20081565b73b9872b9ab8235cc3b4253195c5476d284d448c5d81565b600081565b600081565b600060015482101580156108ec57506002548211155b156108fa57600190506108ff565b600090505b9190505600a165627a7a723058205798f087651e067408bce7000a6789682c4d4aa14075dff1b7bb07805da304f10029",
  "source": "pragma solidity >=0.4.21 <0.5.0;\n//pragma solidity ^0.4.25;\n\nimport \"./BrightCoinTokenOwner.sol\";\nimport \"./SafeMath.sol\";\nimport \"./BrightCoinTokenConfig.sol\";\n\n//Section1\n//...............................................................................\ncontract BrightCoinTokenPreSaleDetails is BrightCoinTokenOwner, BrightCoinTokenConfig\n{\n\n    //address owner;\n    using SafeMath for uint;\n    constructor() public\n    {\n    }\n  \n    //Current Presale Status \n    bool public TokenSaleOn = true;\n \n     //Function for changing the startDate of Presale\n    function changeStartDate(uint256 _startDateTimeStamp, uint256 _currenttime) public onlyTokenOwner  returns(bool){\n\n    require(ICOstartDate > _currenttime );\n    require( _startDateTimeStamp < ICOendDate );\n    ICOstartDate = _startDateTimeStamp;\n    return true;\n  }\n\n    function getMaxCoinSoldDuringPreSale(uint256 _decimal) pure internal  returns(uint256)\n    {\n        uint256 val = maxCoinSoldDuringPresale*(10**uint256(_decimal));\n        return val;\n        \n    }\n\n    /**\n   * @dev It changes end date of Presale , provided it is not crossed.\n   * @param _endDateTimeStamp The new proposed end datetime for Presale.\n   */\n    function changeEndDate(uint256 _endDateTimeStamp,uint256 _currenttime) public onlyTokenOwner  returns(bool) \n    {\n      require(_endDateTimeStamp > _currenttime);\n      require(ICOendDate > _currenttime);\n      require( _endDateTimeStamp > ICOstartDate );\n      ICOendDate = _endDateTimeStamp;\n      return true;\n    }\n    \n    /**\n   * @dev It check whether the datetime passed is in presale period or not\n   * @param _currenttime The datetime to be checked for presale period.\n   */\n     function inPreSalePeriod(uint256 _currenttime) public view returns (bool) {\n      if (_currenttime >= ICOstartDate && _currenttime <= ICOendDate) \n          return true;\n      else \n          return false;     \n     }\n\n    /**\n   * @dev It will change the presale status or true/false depending upon input\n   * @param _tokensalestatus the staus to be set with presale.\n   */\n     function changeTokenSaleStatus(bool _tokensalestatus) public onlyTokenOwner \n     {\n       TokenSaleOn = _tokensalestatus;\n     }\n}\n\n\n\n \n  ",
  "sourcePath": "/Users/shubhamsuyal/code/brightcoin/dapp/contracts/BrightCoinTokenSaleType.sol",
  "compiler": {
    "name": "solc",
    "version": "0.4.24+commit.e67f0147.Emscripten.clang"
  },
  "schemaVersion": "2.0.1",
  "updatedAt": "2019-01-15T05:16:30.831Z"
}