{
  "contractName": "BrightCoinFounderTokenDistribution",
  "abi": [
    {
      "constant": true,
      "inputs": [],
      "name": "owner",
      "outputs": [
        {
          "name": "",
          "type": "address"
        }
      ],
      "payable": false,
      "stateMutability": "view",
      "type": "function"
    },
    {
      "constant": true,
      "inputs": [],
      "name": "isOwner",
      "outputs": [
        {
          "name": "",
          "type": "bool"
        }
      ],
      "payable": false,
      "stateMutability": "view",
      "type": "function"
    },
    {
      "inputs": [],
      "payable": false,
      "stateMutability": "nonpayable",
      "type": "constructor"
    },
    {
      "anonymous": false,
      "inputs": [
        {
          "indexed": true,
          "name": "previousOwner",
          "type": "address"
        }
      ],
      "name": "OwnershipRenounced",
      "type": "event"
    },
    {
      "anonymous": false,
      "inputs": [
        {
          "indexed": true,
          "name": "previousOwner",
          "type": "address"
        },
        {
          "indexed": true,
          "name": "newOwner",
          "type": "address"
        }
      ],
      "name": "OwnershipTransferred",
      "type": "event"
    },
    {
      "constant": false,
      "inputs": [
        {
          "name": "_newFounderAddr",
          "type": "address"
        }
      ],
      "name": "RemoveFounderFromFurtherInvestment",
      "outputs": [
        {
          "name": "",
          "type": "bool"
        }
      ],
      "payable": false,
      "stateMutability": "nonpayable",
      "type": "function"
    },
    {
      "constant": true,
      "inputs": [],
      "name": "TotalFounder",
      "outputs": [
        {
          "name": "",
          "type": "uint256"
        }
      ],
      "payable": false,
      "stateMutability": "view",
      "type": "function"
    },
    {
      "constant": true,
      "inputs": [
        {
          "name": "_newFounderAddr",
          "type": "address"
        }
      ],
      "name": "CheckFounderTokenAmount",
      "outputs": [
        {
          "name": "",
          "type": "uint256"
        }
      ],
      "payable": false,
      "stateMutability": "view",
      "type": "function"
    }
  ],
  "bytecode": "0x608060405234801561001057600080fd5b50336000806101000a81548173ffffffffffffffffffffffffffffffffffffffff021916908373ffffffffffffffffffffffffffffffffffffffff16021790555061035d806100606000396000f30060806040526004361061006d576000357c0100000000000000000000000000000000000000000000000000000000900463ffffffff1680632b2d837014610072578063354fc0c01461009d578063515879e7146100f85780638da5cb5b1461014f5780638f32d59b146101a6575b600080fd5b34801561007e57600080fd5b506100876101d5565b6040518082815260200191505060405180910390f35b3480156100a957600080fd5b506100de600480360381019080803573ffffffffffffffffffffffffffffffffffffffff1690602001909291905050506101e2565b604051808215151515815260200191505060405180910390f35b34801561010457600080fd5b50610139600480360381019080803573ffffffffffffffffffffffffffffffffffffffff169060200190929190505050610260565b6040518082815260200191505060405180910390f35b34801561015b57600080fd5b506101646102b1565b604051808273ffffffffffffffffffffffffffffffffffffffff1673ffffffffffffffffffffffffffffffffffffffff16815260200191505060405180910390f35b3480156101b257600080fd5b506101bb6102da565b604051808215151515815260200191505060405180910390f35b6000600380549050905090565b6000806101ed6102da565b15156101f857600080fd5b600260008473ffffffffffffffffffffffffffffffffffffffff1673ffffffffffffffffffffffffffffffffffffffff168152602001908152602001600020905060008160030160006101000a81548160ff0219169083151502179055506001915050919050565b600080600260008473ffffffffffffffffffffffffffffffffffffffff1673ffffffffffffffffffffffffffffffffffffffff16815260200190815260200160002090508060010154915050919050565b60008060009054906101000a900473ffffffffffffffffffffffffffffffffffffffff16905090565b60008060009054906101000a900473ffffffffffffffffffffffffffffffffffffffff1673ffffffffffffffffffffffffffffffffffffffff163373ffffffffffffffffffffffffffffffffffffffff16149050905600a165627a7a723058206f6a72c35abb09cef6bddc7f073cda213e8279e93d90e031bcda6b8c4d4a79ed0029",
  "source": "pragma solidity >=0.4.21 <0.5.0;\n\nimport \"./SafeMath.sol\";\nimport \"./BrightCoinTokenOwner.sol\";\n\ncontract BrightCoinFounderTokenDistribution  is BrightCoinTokenOwner\n{\n\n  mapping(address => uint256)FounderBalances;\nusing SafeMath for uint;\n\n struct founderDistribution {\n       address founderAddress;\n       uint256 founderToken;\n       uint256 lockExpiryTime;\n       bool    founderActive;\n       bool    tokenlocked;\n    }\n    \n mapping(address => founderDistribution) founderTokenDetails;\n address[] internal founderAddrs;\n\nconstructor() public\n{\n \n}\n\n//Add Founder Starts\n\nfunction AddFounder(address _newFounder,uint256 _founderToken,uint256 _lockExpiryDateTime,\n bool _tokenLocked)   internal \n  {\n\n      founderDistribution storage  founderDetails = founderTokenDetails[_newFounder];\n    \n      founderDetails.founderAddress = _newFounder;\n      founderDetails.founderToken = _founderToken;\n      founderDetails.lockExpiryTime = _lockExpiryDateTime;\n      founderDetails.tokenlocked = _tokenLocked;\n      founderDetails.founderActive = true;\n      founderAddrs.push(_newFounder);\n    \n }\n\n\n  function  UpdateFounderTokenDetails(address _newFounder,uint256 _founderToken,\n  uint256 _lockExpiryDateTime) internal\n  {\n    require(CheckIfFounderActive(_newFounder) == true);   \n     //Add new Token amount and Set new locking Period\n      founderDistribution storage  founderDetails = founderTokenDetails[_newFounder];\n     founderDetails.founderToken  = founderDetails.founderToken.add(_founderToken);\n     founderDetails.lockExpiryTime = _lockExpiryDateTime;     \n  }\n\n//Remove Founder For Further Investment and from the Team\n function RemoveFounderFromFurtherInvestment(address _newFounderAddr)  public onlyTokenOwner  returns(bool)\n {\n   founderDistribution storage newFounderDetails = founderTokenDetails[_newFounderAddr];\n   newFounderDetails.founderActive = false;\n    \n    return true;\n\n }\n\n//ENDS\n\n//check if Founder Removed \n function CheckIfFounderActive(address _newFounderAddr) view internal returns(bool)\n {\n\n  founderDistribution storage founderDetails = founderTokenDetails[_newFounderAddr];\n if(founderDetails.founderActive == true)\n  {\n      return true;\n  }\n  \n  return false;\n\n }\n\n\n\n//Count total no of Advisors\n function TotalFounder() public view returns(uint256) \n {\n   return founderAddrs.length;\n  \n }\n\n\n //check Amount with Advisor\n function CheckFounderTokenAmount(address _newFounderAddr) view public returns(uint256)\n {\n\n  founderDistribution storage founderDetails = founderTokenDetails[_newFounderAddr];\n  return founderDetails.founderToken;\n   \n }\n\n}\n\n\n \n    ",
  "sourcePath": "/Users/shubhamsuyal/code/brightcoin/dapp/contracts/BrightCoinFounderTokenDistribution.sol",
  "compiler": {
    "name": "solc",
    "version": "0.4.24+commit.e67f0147.Emscripten.clang"
  },
  "schemaVersion": "2.0.1",
  "updatedAt": "2019-01-15T05:16:30.790Z"
}