{
  "contractName": "BrightCoinMessage",
  "abi": [
    {
      "constant": true,
      "inputs": [],
      "name": "SUCCESS_CODE",
      "outputs": [
        {
          "name": "",
          "type": "uint8"
        }
      ],
      "payable": false,
      "stateMutability": "view",
      "type": "function"
    },
    {
      "constant": true,
      "inputs": [],
      "name": "INVESTOR_KYC_FAILED_MESSAGE",
      "outputs": [
        {
          "name": "",
          "type": "string"
        }
      ],
      "payable": false,
      "stateMutability": "view",
      "type": "function"
    },
    {
      "constant": true,
      "inputs": [],
      "name": "TOKEN_TRANSFER_LOCK_CODE",
      "outputs": [
        {
          "name": "",
          "type": "uint8"
        }
      ],
      "payable": false,
      "stateMutability": "view",
      "type": "function"
    },
    {
      "constant": true,
      "inputs": [],
      "name": "TOKEN_TRANSFER_UTILITY_TOKEN_MESSAGE",
      "outputs": [
        {
          "name": "",
          "type": "string"
        }
      ],
      "payable": false,
      "stateMutability": "view",
      "type": "function"
    },
    {
      "constant": true,
      "inputs": [],
      "name": "ZERO_ADDRESS_RESTRICTION_MESSAGE",
      "outputs": [
        {
          "name": "",
          "type": "string"
        }
      ],
      "payable": false,
      "stateMutability": "view",
      "type": "function"
    },
    {
      "constant": true,
      "inputs": [],
      "name": "INVESTOR_TOKEN_LOCK_EXPIRED_CODE",
      "outputs": [
        {
          "name": "",
          "type": "uint8"
        }
      ],
      "payable": false,
      "stateMutability": "view",
      "type": "function"
    },
    {
      "constant": true,
      "inputs": [],
      "name": "INVESTOR_ACCREDITION_FAILED_MESSAGE",
      "outputs": [
        {
          "name": "",
          "type": "string"
        }
      ],
      "payable": false,
      "stateMutability": "view",
      "type": "function"
    },
    {
      "constant": true,
      "inputs": [],
      "name": "TOKEN_TRANSFER_UTILITY_TOKEN_CODE",
      "outputs": [
        {
          "name": "",
          "type": "uint8"
        }
      ],
      "payable": false,
      "stateMutability": "view",
      "type": "function"
    },
    {
      "constant": true,
      "inputs": [],
      "name": "INVESTOR_ICO_PAUSED_CODE",
      "outputs": [
        {
          "name": "",
          "type": "uint8"
        }
      ],
      "payable": false,
      "stateMutability": "view",
      "type": "function"
    },
    {
      "constant": true,
      "inputs": [],
      "name": "ZERO_ADDRESS_RESTRICTION_CODE",
      "outputs": [
        {
          "name": "",
          "type": "uint8"
        }
      ],
      "payable": false,
      "stateMutability": "view",
      "type": "function"
    },
    {
      "constant": true,
      "inputs": [],
      "name": "INVESTOR_ACCREDITION_FAILED_CODE",
      "outputs": [
        {
          "name": "",
          "type": "uint8"
        }
      ],
      "payable": false,
      "stateMutability": "view",
      "type": "function"
    },
    {
      "constant": true,
      "inputs": [],
      "name": "UNKNOWN_MESSAGE",
      "outputs": [
        {
          "name": "",
          "type": "string"
        }
      ],
      "payable": false,
      "stateMutability": "view",
      "type": "function"
    },
    {
      "constant": true,
      "inputs": [],
      "name": "ICO_PAUSED_MESSAGE",
      "outputs": [
        {
          "name": "",
          "type": "string"
        }
      ],
      "payable": false,
      "stateMutability": "view",
      "type": "function"
    },
    {
      "constant": true,
      "inputs": [],
      "name": "TOKEN_TRANSFER_LOCK_MESSAGE",
      "outputs": [
        {
          "name": "",
          "type": "string"
        }
      ],
      "payable": false,
      "stateMutability": "view",
      "type": "function"
    },
    {
      "constant": true,
      "inputs": [],
      "name": "SUCCESS_MESSAGE",
      "outputs": [
        {
          "name": "",
          "type": "string"
        }
      ],
      "payable": false,
      "stateMutability": "view",
      "type": "function"
    },
    {
      "constant": true,
      "inputs": [],
      "name": "INVESTOR_KYC_FAILED_CODE",
      "outputs": [
        {
          "name": "",
          "type": "uint8"
        }
      ],
      "payable": false,
      "stateMutability": "view",
      "type": "function"
    },
    {
      "constant": true,
      "inputs": [
        {
          "name": "restrictionCode",
          "type": "uint8"
        }
      ],
      "name": "messageForTransferRestriction",
      "outputs": [
        {
          "name": "message",
          "type": "string"
        }
      ],
      "payable": false,
      "stateMutability": "pure",
      "type": "function"
    }
  ],
  "bytecode": "0x608060405234801561001057600080fd5b50610c1a806100206000396000f3006080604052600436106100f1576000357c0100000000000000000000000000000000000000000000000000000000900463ffffffff1680630e969a05146100f6578063442ea1a2146101275780634575f721146101b75780635288bb49146101e8578063572fb26c1461027857806361fa3df5146103085780637754e0ed146103395780637f4ab1dd146103c95780637ffacdc7146104725780638da28ea3146104a35780639260c58c146104d4578063afbc344614610505578063ba0cf30414610536578063bfdb67f3146105c6578063df50131f14610656578063e7984d17146106e6578063f94fd7a614610776575b600080fd5b34801561010257600080fd5b5061010b6107a7565b604051808260ff1660ff16815260200191505060405180910390f35b34801561013357600080fd5b5061013c6107ac565b6040518080602001828103825283818151815260200191508051906020019080838360005b8381101561017c578082015181840152602081019050610161565b50505050905090810190601f1680156101a95780820380516001836020036101000a031916815260200191505b509250505060405180910390f35b3480156101c357600080fd5b506101cc6107e5565b604051808260ff1660ff16815260200191505060405180910390f35b3480156101f457600080fd5b506101fd6107ea565b6040518080602001828103825283818151815260200191508051906020019080838360005b8381101561023d578082015181840152602081019050610222565b50505050905090810190601f16801561026a5780820380516001836020036101000a031916815260200191505b509250505060405180910390f35b34801561028457600080fd5b5061028d610823565b6040518080602001828103825283818151815260200191508051906020019080838360005b838110156102cd5780820151818401526020810190506102b2565b50505050905090810190601f1680156102fa5780820380516001836020036101000a031916815260200191505b509250505060405180910390f35b34801561031457600080fd5b5061031d61085c565b604051808260ff1660ff16815260200191505060405180910390f35b34801561034557600080fd5b5061034e610861565b6040518080602001828103825283818151815260200191508051906020019080838360005b8381101561038e578082015181840152602081019050610373565b50505050905090810190601f1680156103bb5780820380516001836020036101000a031916815260200191505b509250505060405180910390f35b3480156103d557600080fd5b506103f7600480360381019080803560ff1690602001909291905050506108c1565b6040518080602001828103825283818151815260200191508051906020019080838360005b8381101561043757808201518184015260208101905061041c565b50505050905090810190601f1680156104645780820380516001836020036101000a031916815260200191505b509250505060405180910390f35b34801561047e57600080fd5b50610487610aca565b604051808260ff1660ff16815260200191505060405180910390f35b3480156104af57600080fd5b506104b8610acf565b604051808260ff1660ff16815260200191505060405180910390f35b3480156104e057600080fd5b506104e9610ad4565b604051808260ff1660ff16815260200191505060405180910390f35b34801561051157600080fd5b5061051a610ad9565b604051808260ff1660ff16815260200191505060405180910390f35b34801561054257600080fd5b5061054b610ade565b6040518080602001828103825283818151815260200191508051906020019080838360005b8381101561058b578082015181840152602081019050610570565b50505050905090810190601f1680156105b85780820380516001836020036101000a031916815260200191505b509250505060405180910390f35b3480156105d257600080fd5b506105db610b17565b6040518080602001828103825283818151815260200191508051906020019080838360005b8381101561061b578082015181840152602081019050610600565b50505050905090810190601f1680156106485780820380516001836020036101000a031916815260200191505b509250505060405180910390f35b34801561066257600080fd5b5061066b610b50565b6040518080602001828103825283818151815260200191508051906020019080838360005b838110156106ab578082015181840152602081019050610690565b50505050905090810190601f1680156106d85780820380516001836020036101000a031916815260200191505b509250505060405180910390f35b3480156106f257600080fd5b506106fb610bb0565b6040518080602001828103825283818151815260200191508051906020019080838360005b8381101561073b578082015181840152602081019050610720565b50505050905090810190601f1680156107685780820380516001836020036101000a031916815260200191505b509250505060405180910390f35b34801561078257600080fd5b5061078b610be9565b604051808260ff1660ff16815260200191505060405180910390f35b600081565b6040805190810160405280601b81526020017f494e564553544f52204953204e4f54204b594320454e41424c4544000000000081525081565b600281565b6040805190810160405280601681526020017f544f4b454e204953205554494c49545920544f4b454e0000000000000000000081525081565b6040805190810160405280602081526020017f494c4c4547414c5f5452414e534645525f544f5f5a45524f5f4144445245535381525081565b600681565b606060405190810160405280602181526020017f494e564553544f52204143435245444954494f4e204953204e4f542056414c4981526020017f440000000000000000000000000000000000000000000000000000000000000081525081565b60606040805190810160405280600781526020017f554e4b4e4f574e000000000000000000000000000000000000000000000000008152509050600060ff168260ff161415610947576040805190810160405280600781526020017f53554343455353000000000000000000000000000000000000000000000000008152509050610ac5565b600160ff168260ff161415610993576040805190810160405280602081526020017f494c4c4547414c5f5452414e534645525f544f5f5a45524f5f414444524553538152509050610ac4565b600260ff168260ff161415610a0657606060405190810160405280602181526020017f54494d45204c4f434b454420544f4b454e2043414e204e4f54205452414e534681526020017f52000000000000000000000000000000000000000000000000000000000000008152509050610ac3565b600360ff168260ff161415610a7957606060405190810160405280602181526020017f494e564553544f52204143435245444954494f4e204953204e4f542056414c4981526020017f44000000000000000000000000000000000000000000000000000000000000008152509050610ac2565b600460ff168260ff161415610ac1576040805190810160405280601b81526020017f494e564553544f52204953204e4f54204b594320454e41424c4544000000000081525090505b5b5b5b5b919050565b600781565b600581565b600181565b600381565b6040805190810160405280600781526020017f554e4b4e4f574e0000000000000000000000000000000000000000000000000081525081565b6040805190810160405280600d81526020017f49434f204953205041555345440000000000000000000000000000000000000081525081565b606060405190810160405280602181526020017f54494d45204c4f434b454420544f4b454e2043414e204e4f54205452414e534681526020017f520000000000000000000000000000000000000000000000000000000000000081525081565b6040805190810160405280600781526020017f535543434553530000000000000000000000000000000000000000000000000081525081565b6004815600a165627a7a72305820923e6329ad2ffad0b14b84adf4e61153b86e68d9806d3f5f403b5ad88144abb90029",
  "source": "pragma solidity >=0.4.21 <0.5.0;\n\ncontract BrightCoinMessage\n{\n    //Error Code \nuint8 public constant SUCCESS_CODE = 0;\nuint8 public constant ZERO_ADDRESS_RESTRICTION_CODE = 1;\nuint8 public constant TOKEN_TRANSFER_LOCK_CODE = 2;\nuint8 public constant INVESTOR_ACCREDITION_FAILED_CODE = 3;\nuint8 public constant INVESTOR_KYC_FAILED_CODE = 4;\nuint8 public constant INVESTOR_ICO_PAUSED_CODE = 5;\nuint8 public constant INVESTOR_TOKEN_LOCK_EXPIRED_CODE = 6;\nuint8 public constant TOKEN_TRANSFER_UTILITY_TOKEN_CODE = 7;\n\n//Error Message\nstring public constant UNKNOWN_MESSAGE = \"UNKNOWN\";\nstring public constant SUCCESS_MESSAGE = \"SUCCESS\";\nstring public constant ZERO_ADDRESS_RESTRICTION_MESSAGE = \"ILLEGAL_TRANSFER_TO_ZERO_ADDRESS\";\nstring public constant TOKEN_TRANSFER_LOCK_MESSAGE = \"TIME LOCKED TOKEN CAN NOT TRANSFR\";\nstring public constant INVESTOR_ACCREDITION_FAILED_MESSAGE = \"INVESTOR ACCREDITION IS NOT VALID\";\nstring public constant INVESTOR_KYC_FAILED_MESSAGE = \"INVESTOR IS NOT KYC ENABLED\";\nstring public constant ICO_PAUSED_MESSAGE = \"ICO IS PAUSED\";\nstring public constant TOKEN_TRANSFER_UTILITY_TOKEN_MESSAGE = \"TOKEN IS UTILITY TOKEN\";\n\n\n\n/// @notice Returns a human-readable message for a given restriction code\n/// @param restrictionCode Identifier for looking up a message\n/// @return Text showing the restriction's reasoning\n/// @dev Overwrite with your custom message and restrictionCode handling\n function messageForTransferRestriction (uint8 restrictionCode)\n        public pure returns (string message)\n    {\n        message = UNKNOWN_MESSAGE;\n        if (restrictionCode == SUCCESS_CODE) {\n            message = SUCCESS_MESSAGE;\n        } else if (restrictionCode == ZERO_ADDRESS_RESTRICTION_CODE) {\n            message = ZERO_ADDRESS_RESTRICTION_MESSAGE;\n        } else if (restrictionCode == TOKEN_TRANSFER_LOCK_CODE) {\n            message = TOKEN_TRANSFER_LOCK_MESSAGE;\n        } else if (restrictionCode == INVESTOR_ACCREDITION_FAILED_CODE) {\n            message = INVESTOR_ACCREDITION_FAILED_MESSAGE;\n        } else if (restrictionCode == INVESTOR_KYC_FAILED_CODE) {\n            message = INVESTOR_KYC_FAILED_MESSAGE;\n        }\n    }\n    \n    \n    /// @notice Detects if a transfer will be reverted and if so returns an appropriate reference code\n    /// @param from Sending address\n    /// @param to Receiving address\n    /// @param value Amount of tokens being transferred\n    /// @return Code by which to reference message for rejection reasoning\n    /// @dev Overwrite with your custom transfer restriction logic\n   /* function detectTransferRestriction (address from, address to, uint256 value)\n        public view returns (uint8 restrictionCode)\n    {\n        restrictionCode = SUCCESS_CODE; // success\n        if (to == address(0x0)) {\n            restrictionCode = ZERO_ADDRESS_RESTRICTION_CODE; // illegal transfer to zero address\n        }\n    }\n    */\n}",
  "sourcePath": "/Users/shubhamsuyal/code/brightcoin/dapp/contracts/BrightCoinMessage.sol",
  "compiler": {
    "name": "solc",
    "version": "0.4.24+commit.e67f0147.Emscripten.clang"
  },
  "schemaVersion": "2.0.1",
  "updatedAt": "2019-01-15T05:16:30.814Z"
}