{
  "contractName": "BrightCoinInvestorKYC",
  "abi": [
    {
      "constant": true,
      "inputs": [],
      "name": "owner",
      "outputs": [
        {
          "name": "",
          "type": "address"
        }
      ],
      "payable": false,
      "stateMutability": "view",
      "type": "function"
    },
    {
      "constant": true,
      "inputs": [],
      "name": "isOwner",
      "outputs": [
        {
          "name": "",
          "type": "bool"
        }
      ],
      "payable": false,
      "stateMutability": "view",
      "type": "function"
    },
    {
      "constant": true,
      "inputs": [
        {
          "name": "",
          "type": "uint256"
        }
      ],
      "name": "brightCoinInvestorKYCAddr",
      "outputs": [
        {
          "name": "",
          "type": "address"
        }
      ],
      "payable": false,
      "stateMutability": "view",
      "type": "function"
    },
    {
      "inputs": [],
      "payable": false,
      "stateMutability": "nonpayable",
      "type": "constructor"
    },
    {
      "anonymous": false,
      "inputs": [
        {
          "indexed": true,
          "name": "previousOwner",
          "type": "address"
        }
      ],
      "name": "OwnershipRenounced",
      "type": "event"
    },
    {
      "anonymous": false,
      "inputs": [
        {
          "indexed": true,
          "name": "previousOwner",
          "type": "address"
        },
        {
          "indexed": true,
          "name": "newOwner",
          "type": "address"
        }
      ],
      "name": "OwnershipTransferred",
      "type": "event"
    },
    {
      "constant": false,
      "inputs": [
        {
          "name": "_investordAddress",
          "type": "address"
        },
        {
          "name": "_kycStatus",
          "type": "bool"
        },
        {
          "name": "_kycExpiryDateTime",
          "type": "uint256"
        },
        {
          "name": "_ipfsHashKYC",
          "type": "string"
        }
      ],
      "name": "SetKYCDetailsofInvestor",
      "outputs": [],
      "payable": false,
      "stateMutability": "nonpayable",
      "type": "function"
    },
    {
      "constant": false,
      "inputs": [
        {
          "name": "_addr",
          "type": "address"
        }
      ],
      "name": "RemoveKYCDetailsofInvestor",
      "outputs": [
        {
          "name": "",
          "type": "bool"
        }
      ],
      "payable": false,
      "stateMutability": "nonpayable",
      "type": "function"
    },
    {
      "constant": false,
      "inputs": [
        {
          "name": "_investorAddress",
          "type": "address"
        },
        {
          "name": "_kycStatus",
          "type": "bool"
        }
      ],
      "name": "SetKYCStatus",
      "outputs": [],
      "payable": false,
      "stateMutability": "nonpayable",
      "type": "function"
    },
    {
      "constant": true,
      "inputs": [
        {
          "name": "_investordAddress",
          "type": "address"
        },
        {
          "name": "_currentDateTime",
          "type": "uint256"
        }
      ],
      "name": "CheckKYCStatus",
      "outputs": [
        {
          "name": "",
          "type": "bool"
        }
      ],
      "payable": false,
      "stateMutability": "view",
      "type": "function"
    },
    {
      "constant": true,
      "inputs": [
        {
          "name": "_investordAddress",
          "type": "address"
        }
      ],
      "name": "GetKYCDetails",
      "outputs": [
        {
          "name": "",
          "type": "string"
        }
      ],
      "payable": false,
      "stateMutability": "view",
      "type": "function"
    },
    {
      "constant": false,
      "inputs": [
        {
          "name": "_investordAddress",
          "type": "address"
        },
        {
          "name": "_expiryDateTime",
          "type": "uint256"
        }
      ],
      "name": "SetKYCExpiryDateTime",
      "outputs": [],
      "payable": false,
      "stateMutability": "nonpayable",
      "type": "function"
    },
    {
      "constant": true,
      "inputs": [
        {
          "name": "_investordAddress",
          "type": "address"
        }
      ],
      "name": "GetKYCExpiryDate",
      "outputs": [
        {
          "name": "",
          "type": "uint256"
        }
      ],
      "payable": false,
      "stateMutability": "view",
      "type": "function"
    },
    {
      "constant": true,
      "inputs": [],
      "name": "GetKYCCount",
      "outputs": [
        {
          "name": "",
          "type": "uint256"
        }
      ],
      "payable": false,
      "stateMutability": "view",
      "type": "function"
    }
  ],
  "bytecode": "0x608060405234801561001057600080fd5b50336000806101000a81548173ffffffffffffffffffffffffffffffffffffffff021916908373ffffffffffffffffffffffffffffffffffffffff160217905550610d20806100606000396000f3006080604052600436106100af576000357c0100000000000000000000000000000000000000000000000000000000900463ffffffff16806306722dd9146100b457806331b75b381461017057806342112417146101c757806373417dab1461022c578063848bcbed146102875780638da5cb5b146102b25780638f32d59b14610309578063981c759a14610338578063da73f13c146103a5578063e1fc4645146103f2578063faf1932114610441575b600080fd5b3480156100c057600080fd5b506100f5600480360381019080803573ffffffffffffffffffffffffffffffffffffffff1690602001909291905050506104e0565b6040518080602001828103825283818151815260200191508051906020019080838360005b8381101561013557808201518184015260208101905061011a565b50505050905090810190601f1680156101625780820380516001836020036101000a031916815260200191505b509250505060405180910390f35b34801561017c57600080fd5b506101b1600480360381019080803573ffffffffffffffffffffffffffffffffffffffff1690602001909291905050506105ca565b6040518082815260200191505060405180910390f35b3480156101d357600080fd5b50610212600480360381019080803573ffffffffffffffffffffffffffffffffffffffff1690602001909291908035906020019092919050505061061b565b604051808215151515815260200191505060405180910390f35b34801561023857600080fd5b5061026d600480360381019080803573ffffffffffffffffffffffffffffffffffffffff1690602001909291905050506106b0565b604051808215151515815260200191505060405180910390f35b34801561029357600080fd5b5061029c6107a7565b6040518082815260200191505060405180910390f35b3480156102be57600080fd5b506102c76107b4565b604051808273ffffffffffffffffffffffffffffffffffffffff1673ffffffffffffffffffffffffffffffffffffffff16815260200191505060405180910390f35b34801561031557600080fd5b5061031e6107dd565b604051808215151515815260200191505060405180910390f35b34801561034457600080fd5b5061036360048036038101908080359060200190929190505050610834565b604051808273ffffffffffffffffffffffffffffffffffffffff1673ffffffffffffffffffffffffffffffffffffffff16815260200191505060405180910390f35b3480156103b157600080fd5b506103f0600480360381019080803573ffffffffffffffffffffffffffffffffffffffff16906020019092919080359060200190929190505050610872565b005b3480156103fe57600080fd5b5061043f600480360381019080803573ffffffffffffffffffffffffffffffffffffffff169060200190929190803515159060200190929190505050610999565b005b34801561044d57600080fd5b506104de600480360381019080803573ffffffffffffffffffffffffffffffffffffffff16906020019092919080351515906020019092919080359060200190929190803590602001908201803590602001908080601f0160208091040260200160405190810160405280939291908181526020018383808284378201915050505050509192919290505050610ac3565b005b60606000600160008473ffffffffffffffffffffffffffffffffffffffff1673ffffffffffffffffffffffffffffffffffffffff1681526020019081526020016000209050806002018054600181600116156101000203166002900480601f0160208091040260200160405190810160405280929190818152602001828054600181600116156101000203166002900480156105bd5780601f10610592576101008083540402835291602001916105bd565b820191906000526020600020905b8154815290600101906020018083116105a057829003601f168201915b5050505050915050919050565b600080600160008473ffffffffffffffffffffffffffffffffffffffff1673ffffffffffffffffffffffffffffffffffffffff16815260200190815260200160002090508060010154915050919050565b60008060008473ffffffffffffffffffffffffffffffffffffffff161415151561064457600080fd5b6000831415151561065457600080fd5b600160008573ffffffffffffffffffffffffffffffffffffffff1673ffffffffffffffffffffffffffffffffffffffff16815260200190815260200160002090508060000160149054906101000a900460ff1691505092915050565b6000806106bb6107dd565b15156106c657600080fd5b60008373ffffffffffffffffffffffffffffffffffffffff16141515156106ec57600080fd5b600160008473ffffffffffffffffffffffffffffffffffffffff1673ffffffffffffffffffffffffffffffffffffffff16815260200190815260200160002090508060000160006101000a81549073ffffffffffffffffffffffffffffffffffffffff02191690558060000160146101000a81549060ff021916905580600101600090558060020160006107809190610c07565b60018160030160006101000a81548160ff0219169083151502179055506001915050919050565b6000600280549050905090565b60008060009054906101000a900473ffffffffffffffffffffffffffffffffffffffff16905090565b60008060009054906101000a900473ffffffffffffffffffffffffffffffffffffffff1673ffffffffffffffffffffffffffffffffffffffff163373ffffffffffffffffffffffffffffffffffffffff1614905090565b60028181548110151561084357fe5b906000526020600020016000915054906101000a900473ffffffffffffffffffffffffffffffffffffffff1681565b600061087c6107dd565b151561088757600080fd5b60008373ffffffffffffffffffffffffffffffffffffffff16141515156108ad57600080fd5b600082141515156108bd57600080fd5b600160008473ffffffffffffffffffffffffffffffffffffffff1673ffffffffffffffffffffffffffffffffffffffff1681526020019081526020016000209050600015158160030160009054906101000a900460ff16151514151561098b576040517f08c379a00000000000000000000000000000000000000000000000000000000081526004018080602001828103825260138152602001807f496e766573746f722069732064656c657465640000000000000000000000000081525060200191505060405180910390fd5b818160010181905550505050565b60006109a36107dd565b15156109ae57600080fd5b60008373ffffffffffffffffffffffffffffffffffffffff16141515156109d457600080fd5b600160008473ffffffffffffffffffffffffffffffffffffffff1673ffffffffffffffffffffffffffffffffffffffff1681526020019081526020016000209050600015158160030160009054906101000a900460ff161515141515610aa2576040517f08c379a00000000000000000000000000000000000000000000000000000000081526004018080602001828103825260138152602001807f496e766573746f722069732064656c657465640000000000000000000000000081525060200191505060405180910390fd5b818160000160146101000a81548160ff021916908315150217905550505050565b6000610acd6107dd565b1515610ad857600080fd5b600160008673ffffffffffffffffffffffffffffffffffffffff1673ffffffffffffffffffffffffffffffffffffffff1681526020019081526020016000209050848160000160006101000a81548173ffffffffffffffffffffffffffffffffffffffff021916908373ffffffffffffffffffffffffffffffffffffffff160217905550838160000160146101000a81548160ff02191690831515021790555082816001018190555081816002019080519060200190610b99929190610c4f565b5060028590806001815401808255809150509060018203906000526020600020016000909192909190916101000a81548173ffffffffffffffffffffffffffffffffffffffff021916908373ffffffffffffffffffffffffffffffffffffffff160217905550505050505050565b50805460018160011615610100020316600290046000825580601f10610c2d5750610c4c565b601f016020900490600052602060002090810190610c4b9190610ccf565b5b50565b828054600181600116156101000203166002900490600052602060002090601f016020900481019282601f10610c9057805160ff1916838001178555610cbe565b82800160010185558215610cbe579182015b82811115610cbd578251825591602001919060010190610ca2565b5b509050610ccb9190610ccf565b5090565b610cf191905b80821115610ced576000816000905550600101610cd5565b5090565b905600a165627a7a723058208bf3947b2078a4680800af76838a8e95751f167ee2d7fda86c0be9c8636660cf0029",
  "source": "pragma solidity >=0.4.21 <0.5.0;\n//pragma solidity ^0.4.25;\n\nimport \"./BrightCoinTokenOwner.sol\";\n\ncontract BrightCoinInvestorKYC is BrightCoinTokenOwner\n{\n\n\n\n\nconstructor() public\n{\n\n}\n    \nstruct brightCoinInvestorKYCstruct {\n\n    address whitelistedAddress; // Whitelist customer address\n    bool kycStatus;  //KYC  Status\n    uint256 kycExpiryDateTime; //KYC Expity Date Time\n    string kycIPFSHash; //It must contains the details of Investor\n    bool deleted;\n  }\n\nmapping(address => brightCoinInvestorKYCstruct) brightCoinInvestorKYCDetails;\naddress[] public brightCoinInvestorKYCAddr;\n\nfunction SetKYCDetailsofInvestor(address _investordAddress,bool _kycStatus,\n                                uint256 _kycExpiryDateTime, string _ipfsHashKYC) public onlyTokenOwner  \n {\n\n       brightCoinInvestorKYCstruct storage investorKYC = brightCoinInvestorKYCDetails[_investordAddress];\n       investorKYC.whitelistedAddress = _investordAddress;\n       investorKYC.kycStatus = _kycStatus;\n       investorKYC.kycExpiryDateTime = _kycExpiryDateTime;\n       investorKYC.kycIPFSHash = _ipfsHashKYC;\n       brightCoinInvestorKYCAddr.push(_investordAddress);\n   }\n   \n   function RemoveKYCDetailsofInvestor(address _addr) public onlyTokenOwner returns(bool)\n   {\n         require(_addr != 0x0);\n         brightCoinInvestorKYCstruct storage investorKYC = brightCoinInvestorKYCDetails[_addr];\n         delete investorKYC.whitelistedAddress;\n         delete investorKYC.kycStatus;\n         delete investorKYC.kycExpiryDateTime;\n         delete investorKYC.kycIPFSHash;\n         \n         investorKYC.deleted = true;\n         return true;\n         \n         \n   }\n\n  function SetKYCStatus(address _investorAddress, bool _kycStatus) public onlyTokenOwner  \n  {\n\n    require(_investorAddress != 0x0);\n\n    brightCoinInvestorKYCstruct storage investorKYC = brightCoinInvestorKYCDetails[_investorAddress];\n    require(investorKYC.deleted == false, \"Investor is deleted\");\n    investorKYC.kycStatus = _kycStatus;\n\n  }\nfunction CheckKYCStatus(address _investordAddress,uint256 _currentDateTime)  public view returns(bool)\n{\n    require(_investordAddress != 0x0);\n    require(_currentDateTime != 0);\n\n    brightCoinInvestorKYCstruct storage InvestorKYC = brightCoinInvestorKYCDetails[_investordAddress];\n\n    return InvestorKYC.kycStatus;\n}\n\n\n\nfunction GetKYCDetails(address _investordAddress)  public view returns(string)\n{ \n    \n    brightCoinInvestorKYCstruct storage investorKYC = brightCoinInvestorKYCDetails[_investordAddress];\n    return investorKYC.kycIPFSHash;\n}\n\n\nfunction SetKYCExpiryDateTime(address _investordAddress,uint256 _expiryDateTime)  public onlyTokenOwner  \n{\n\n     require(_investordAddress != 0x0);\n    require(_expiryDateTime != 0);\n    \n    brightCoinInvestorKYCstruct storage investorKYC = brightCoinInvestorKYCDetails[_investordAddress];\n     require(investorKYC.deleted == false, \"Investor is deleted\");\n    investorKYC.kycExpiryDateTime = _expiryDateTime;\n\n}\nfunction GetKYCExpiryDate(address _investordAddress)  public view returns(uint256)\n{\n    \n    brightCoinInvestorKYCstruct storage investorKYC = brightCoinInvestorKYCDetails[_investordAddress];\n    return investorKYC.kycExpiryDateTime;\n}\n\n\n\nfunction GetKYCCount() view public returns(uint256)\n{\n    \n    return brightCoinInvestorKYCAddr.length;\n   \n}\n\n\n\n\n}",
  "sourcePath": "/Users/shubhamsuyal/code/brightcoin/dapp/contracts/BrightCoinInvestorKYC.sol",
  "compiler": {
    "name": "solc",
    "version": "0.4.24+commit.e67f0147.Emscripten.clang"
  },
  "schemaVersion": "2.0.1",
  "updatedAt": "2019-01-15T05:16:30.809Z"
}