{
  "contractName": "BrightCoinInvestorCheck",
  "abi": [
    {
      "constant": false,
      "inputs": [
        {
          "name": "_investoraddr",
          "type": "address"
        },
        {
          "name": "_accreditionStatus",
          "type": "bool"
        },
        {
          "name": "_accreditionExpiryDateTime",
          "type": "uint256"
        },
        {
          "name": "_investorGeoLocation",
          "type": "uint256"
        },
        {
          "name": "_ipfsHashRegDInvestor",
          "type": "string"
        }
      ],
      "name": "AddInvestorAccreditionDetails",
      "outputs": [],
      "payable": false,
      "stateMutability": "nonpayable",
      "type": "function"
    },
    {
      "constant": true,
      "inputs": [
        {
          "name": "",
          "type": "uint256"
        }
      ],
      "name": "accreditedInvestors",
      "outputs": [
        {
          "name": "",
          "type": "address"
        }
      ],
      "payable": false,
      "stateMutability": "view",
      "type": "function"
    },
    {
      "constant": true,
      "inputs": [
        {
          "name": "_accreditedInvestoraddr",
          "type": "address"
        }
      ],
      "name": "GetGeoLocationAccreditedInvestor",
      "outputs": [
        {
          "name": "",
          "type": "uint256"
        }
      ],
      "payable": false,
      "stateMutability": "view",
      "type": "function"
    },
    {
      "constant": true,
      "inputs": [
        {
          "name": "_accreditedInvestoraddr",
          "type": "address"
        }
      ],
      "name": "CheckAccreditionStatus",
      "outputs": [
        {
          "name": "",
          "type": "bool"
        }
      ],
      "payable": false,
      "stateMutability": "view",
      "type": "function"
    },
    {
      "constant": false,
      "inputs": [
        {
          "name": "_investorAddress",
          "type": "address"
        },
        {
          "name": "_status",
          "type": "bool"
        }
      ],
      "name": "SetAccreditionStatus",
      "outputs": [],
      "payable": false,
      "stateMutability": "nonpayable",
      "type": "function"
    },
    {
      "constant": true,
      "inputs": [],
      "name": "owner",
      "outputs": [
        {
          "name": "",
          "type": "address"
        }
      ],
      "payable": false,
      "stateMutability": "view",
      "type": "function"
    },
    {
      "constant": true,
      "inputs": [],
      "name": "isOwner",
      "outputs": [
        {
          "name": "",
          "type": "bool"
        }
      ],
      "payable": false,
      "stateMutability": "view",
      "type": "function"
    },
    {
      "constant": true,
      "inputs": [
        {
          "name": "_investoraddr",
          "type": "address"
        }
      ],
      "name": "GetGeoLocationOfNonInvestor",
      "outputs": [
        {
          "name": "",
          "type": "uint256"
        }
      ],
      "payable": false,
      "stateMutability": "view",
      "type": "function"
    },
    {
      "constant": false,
      "inputs": [
        {
          "name": "_accreditedInvestoraddr",
          "type": "address"
        },
        {
          "name": "_expiryDateTime",
          "type": "uint256"
        }
      ],
      "name": "SetAccreditionExpiryDateTime",
      "outputs": [],
      "payable": false,
      "stateMutability": "nonpayable",
      "type": "function"
    },
    {
      "constant": false,
      "inputs": [
        {
          "name": "_addr",
          "type": "address"
        }
      ],
      "name": "RemoveAccreditedInvestor",
      "outputs": [
        {
          "name": "",
          "type": "bool"
        }
      ],
      "payable": false,
      "stateMutability": "nonpayable",
      "type": "function"
    },
    {
      "constant": true,
      "inputs": [
        {
          "name": "",
          "type": "uint256"
        }
      ],
      "name": "nonAccreditedInvestors",
      "outputs": [
        {
          "name": "",
          "type": "address"
        }
      ],
      "payable": false,
      "stateMutability": "view",
      "type": "function"
    },
    {
      "constant": false,
      "inputs": [
        {
          "name": "_investoraddr",
          "type": "address"
        },
        {
          "name": "_investorGeoLocation",
          "type": "uint256"
        },
        {
          "name": "_ipfsHashRegSInvestor",
          "type": "string"
        }
      ],
      "name": "AddNonAccreditedInvestorDetails",
      "outputs": [],
      "payable": false,
      "stateMutability": "nonpayable",
      "type": "function"
    },
    {
      "inputs": [],
      "payable": false,
      "stateMutability": "nonpayable",
      "type": "constructor"
    },
    {
      "anonymous": false,
      "inputs": [
        {
          "indexed": true,
          "name": "previousOwner",
          "type": "address"
        }
      ],
      "name": "OwnershipRenounced",
      "type": "event"
    },
    {
      "anonymous": false,
      "inputs": [
        {
          "indexed": true,
          "name": "previousOwner",
          "type": "address"
        },
        {
          "indexed": true,
          "name": "newOwner",
          "type": "address"
        }
      ],
      "name": "OwnershipTransferred",
      "type": "event"
    },
    {
      "constant": true,
      "inputs": [
        {
          "name": "_investor",
          "type": "address"
        },
        {
          "name": "_investorAddress",
          "type": "address"
        },
        {
          "name": "_ICOType",
          "type": "uint8"
        }
      ],
      "name": "checkBothInvestorValidity",
      "outputs": [
        {
          "name": "",
          "type": "bool"
        }
      ],
      "payable": false,
      "stateMutability": "view",
      "type": "function"
    },
    {
      "constant": true,
      "inputs": [
        {
          "name": "_investorAddress",
          "type": "address"
        },
        {
          "name": "_ICOType",
          "type": "uint8"
        }
      ],
      "name": "checkInvestorValidity",
      "outputs": [
        {
          "name": "",
          "type": "bool"
        }
      ],
      "payable": false,
      "stateMutability": "view",
      "type": "function"
    }
  ],
  "bytecode": "0x608060405234801561001057600080fd5b50336000806101000a81548173ffffffffffffffffffffffffffffffffffffffff021916908373ffffffffffffffffffffffffffffffffffffffff160217905550611498806100606000396000f3006080604052600436106100d0576000357c0100000000000000000000000000000000000000000000000000000000900463ffffffff16806319fd7e89146100d55780632bf207da1461017e578063433c7ee4146101eb5780635c6c4fad146102425780635e9ea6dd1461029d5780638da5cb5b146102ec5780638f32d59b14610343578063a59b5b0b14610372578063a6f556b6146103c9578063aa7ced7714610416578063abc9985e14610471578063c3af7fa3146104de578063d949979b14610546578063f022594a146105d9575b600080fd5b3480156100e157600080fd5b5061017c600480360381019080803573ffffffffffffffffffffffffffffffffffffffff1690602001909291908035151590602001909291908035906020019092919080359060200190929190803590602001908201803590602001908080601f0160208091040260200160405190810160405280939291908181526020018383808284378201915050505050509192919290505050610661565b005b34801561018a57600080fd5b506101a960048036038101908080359060200190929190505050610802565b604051808273ffffffffffffffffffffffffffffffffffffffff1673ffffffffffffffffffffffffffffffffffffffff16815260200191505060405180910390f35b3480156101f757600080fd5b5061022c600480360381019080803573ffffffffffffffffffffffffffffffffffffffff169060200190929190505050610840565b6040518082815260200191505060405180910390f35b34801561024e57600080fd5b50610283600480360381019080803573ffffffffffffffffffffffffffffffffffffffff1690602001909291905050506108bb565b604051808215151515815260200191505060405180910390f35b3480156102a957600080fd5b506102ea600480360381019080803573ffffffffffffffffffffffffffffffffffffffff169060200190929190803515159060200190929190505050610919565b005b3480156102f857600080fd5b50610301610a42565b604051808273ffffffffffffffffffffffffffffffffffffffff1673ffffffffffffffffffffffffffffffffffffffff16815260200191505060405180910390f35b34801561034f57600080fd5b50610358610a6b565b604051808215151515815260200191505060405180910390f35b34801561037e57600080fd5b506103b3600480360381019080803573ffffffffffffffffffffffffffffffffffffffff169060200190929190505050610ac2565b6040518082815260200191505060405180910390f35b3480156103d557600080fd5b50610414600480360381019080803573ffffffffffffffffffffffffffffffffffffffff16906020019092919080359060200190929190505050610b3d565b005b34801561042257600080fd5b50610457600480360381019080803573ffffffffffffffffffffffffffffffffffffffff169060200190929190505050610c53565b604051808215151515815260200191505060405180910390f35b34801561047d57600080fd5b5061049c60048036038101908080359060200190929190505050610dab565b604051808273ffffffffffffffffffffffffffffffffffffffff1673ffffffffffffffffffffffffffffffffffffffff16815260200191505060405180910390f35b3480156104ea57600080fd5b5061052c600480360381019080803573ffffffffffffffffffffffffffffffffffffffff169060200190929190803560ff169060200190929190505050610de9565b604051808215151515815260200191505060405180910390f35b34801561055257600080fd5b506105d7600480360381019080803573ffffffffffffffffffffffffffffffffffffffff16906020019092919080359060200190929190803590602001908201803590602001908080601f0160208091040260200160405190810160405280939291908181526020018383808284378201915050505050509192919290505050610f94565b005b3480156105e557600080fd5b50610647600480360381019080803573ffffffffffffffffffffffffffffffffffffffff169060200190929190803573ffffffffffffffffffffffffffffffffffffffff169060200190929190803560ff1690602001909291905050506110ff565b604051808215151515815260200191505060405180910390f35b600061066b610a6b565b151561067657600080fd5b60008673ffffffffffffffffffffffffffffffffffffffff161415151561069c57600080fd5b6000841115156106ab57600080fd5b600160008773ffffffffffffffffffffffffffffffffffffffff1673ffffffffffffffffffffffffffffffffffffffff1681526020019081526020016000209050858160000160006101000a81548173ffffffffffffffffffffffffffffffffffffffff021916908373ffffffffffffffffffffffffffffffffffffffff160217905550848160000160146101000a81548160ff0219169083151502179055508381600101819055508281600201819055508181600301908051906020019061077592919061137f565b5060018160040160006101000a81548160ff021916908360ff16021790555060028690806001815401808255809150509060018203906000526020600020016000909192909190916101000a81548173ffffffffffffffffffffffffffffffffffffffff021916908373ffffffffffffffffffffffffffffffffffffffff16021790555050505050505050565b60028181548110151561081157fe5b906000526020600020016000915054906101000a900473ffffffffffffffffffffffffffffffffffffffff1681565b600080600160008473ffffffffffffffffffffffffffffffffffffffff1673ffffffffffffffffffffffffffffffffffffffff168152602001908152602001600020905060018160040160009054906101000a900460ff1660ff161415156108ad57620f423f91506108b5565b806002015491505b50919050565b600080600160008473ffffffffffffffffffffffffffffffffffffffff1673ffffffffffffffffffffffffffffffffffffffff16815260200190815260200160002090508060000160149054906101000a900460ff16915050919050565b6000610923610a6b565b151561092e57600080fd5b60008373ffffffffffffffffffffffffffffffffffffffff161415151561095457600080fd5b600160008473ffffffffffffffffffffffffffffffffffffffff1673ffffffffffffffffffffffffffffffffffffffff168152602001908152602001600020905060018160040160009054906101000a900460ff1660ff16141515610a21576040517f08c379a000000000000000000000000000000000000000000000000000000000815260040180806020018281038252601e8152602001807f496e766573746f72206e6f7420616464656420696e20746865206c697374000081525060200191505060405180910390fd5b818160000160146101000a81548160ff021916908315150217905550505050565b60008060009054906101000a900473ffffffffffffffffffffffffffffffffffffffff16905090565b60008060009054906101000a900473ffffffffffffffffffffffffffffffffffffffff1673ffffffffffffffffffffffffffffffffffffffff163373ffffffffffffffffffffffffffffffffffffffff1614905090565b600080600360008473ffffffffffffffffffffffffffffffffffffffff1673ffffffffffffffffffffffffffffffffffffffff168152602001908152602001600020905060018160030160009054906101000a900460ff1660ff16141515610b2f57620f423f9150610b37565b806001015491505b50919050565b6000610b47610a6b565b1515610b5257600080fd5b60008373ffffffffffffffffffffffffffffffffffffffff1614151515610b7857600080fd5b600160008473ffffffffffffffffffffffffffffffffffffffff1673ffffffffffffffffffffffffffffffffffffffff168152602001908152602001600020905060018160040160009054906101000a900460ff1660ff16141515610c45576040517f08c379a000000000000000000000000000000000000000000000000000000000815260040180806020018281038252601e8152602001807f496e766573746f72206e6f7420616464656420696e20746865206c697374000081525060200191505060405180910390fd5b818160010181905550505050565b600080610c5e610a6b565b1515610c6957600080fd5b600160008473ffffffffffffffffffffffffffffffffffffffff1673ffffffffffffffffffffffffffffffffffffffff168152602001908152602001600020905060018160040160009054906101000a900460ff1660ff16141515610d36576040517f08c379a000000000000000000000000000000000000000000000000000000000815260040180806020018281038252601e8152602001807f496e766573746f72206e6f7420616464656420696e20746865206c697374000081525060200191505060405180910390fd5b8060000160006101000a81549073ffffffffffffffffffffffffffffffffffffffff02191690558060000160146101000a81549060ff021916905580600101600090558060020160009055806003016000610d9191906113ff565b8060040160006101000a81549060ff021916905550919050565b600481815481101515610dba57fe5b906000526020600020016000915054906101000a900473ffffffffffffffffffffffffffffffffffffffff1681565b600080600080600080935060006003811115610e0157fe5b60ff168660ff161415610e2157610e17876108bb565b9350839450610f8a565b60016003811115610e2e57fe5b60ff168660ff161415610e9757610e44876108bb565b9150600115158215151415610e7557610e5c87610840565b9050600181141515610e6d57600193505b839450610f8a565b610e7e87610ac2565b9250600183141515610e8f57600193505b839450610f8a565b60026003811115610ea457fe5b60ff168660ff161415610f6c57610eba876108bb565b9350600015158415151415610f6457610ed287610ac2565b925060008314151515610f4d576040517f08c379a000000000000000000000000000000000000000000000000000000000815260040180806020018281038252601e8152602001807f47656f6c6f636174696f6e2053686f756c64206e6f74206265207a65726f000081525060200191505060405180910390fd5b600183141515610f5c57600193505b839450610f8a565b839450610f8a565b610f7587610ac2565b9250600183141515610f8657600193505b8394505b5050505092915050565b6000610f9e610a6b565b1515610fa957600080fd5b60008473ffffffffffffffffffffffffffffffffffffffff1614151515610fcf57600080fd5b600360008573ffffffffffffffffffffffffffffffffffffffff1673ffffffffffffffffffffffffffffffffffffffff1681526020019081526020016000209050838160000160006101000a81548173ffffffffffffffffffffffffffffffffffffffff021916908373ffffffffffffffffffffffffffffffffffffffff1602179055508281600101819055508181600201908051906020019061107492919061137f565b5060018160030160006101000a81548160ff021916908360ff16021790555060048490806001815401808255809150509060018203906000526020600020016000909192909190916101000a81548173ffffffffffffffffffffffffffffffffffffffff021916908373ffffffffffffffffffffffffffffffffffffffff1602179055505050505050565b6000806000806000806000806000806000985060009750600096506000600381111561112757fe5b60ff168b60ff1614156111755761113d8d6108bb565b97506111488c6108bb565b965060011515881515148015611162575060011515871515145b15611170576001995061136f565b61136b565b6001600381111561118257fe5b60ff168b60ff16141561123c576111988d6108bb565b97506001151588151514156111b7576111b08d610840565b95506111c3565b6111c08d610ac2565b95505b6111cc8c6108bb565b97506001151588151514156111eb576111e48c610840565b94506111f7565b6111f48c610ac2565b94505b620f423f86148061120a5750620f423f85145b15611218576000995061136f565b6001861415801561122a575060018514155b1561123457600198505b88995061136f565b6002600381111561124957fe5b60ff168b60ff16141561132d5760009350600092506112678d6108bb565b97506000151588151514156112a95761127f8d610ac2565b9150620f423f821415611295576000995061136f565b6001821415156112a457600193505b6112ae565b600193505b6112b78c6108bb565b90506000151581151514156112f9576112cf8c610ac2565b9150620f423f8214156112e5576000995061136f565b6001821415156112f457600192505b6112fe565b600192505b60011515841515148015611316575060011515831515145b15611324576001995061136f565b6000995061136f565b6113368c610ac2565b95506113418d610ac2565b945060018614158015611355575060018514155b15611363576001995061136f565b88995061136f565b8899505b5050505050505050509392505050565b828054600181600116156101000203166002900490600052602060002090601f016020900481019282601f106113c057805160ff19168380011785556113ee565b828001600101855582156113ee579182015b828111156113ed5782518255916020019190600101906113d2565b5b5090506113fb9190611447565b5090565b50805460018160011615610100020316600290046000825580601f106114255750611444565b601f0160209004906000526020600020908101906114439190611447565b5b50565b61146991905b8082111561146557600081600090555060010161144d565b5090565b905600a165627a7a72305820fde186d774a86b79c6b2299ac6e46ab0d2165e679d5f7fda5616605473b1f0bd0029",
  "source": "//Rules for Accredited Investors\n/*\nReg D - \nFor USA citizens only. \nThese are for sale to accredited investors only .\n(KYC/AML has to be done). \nThere is a 1 year lockin period. \nThe only exception is that one accredited investor can sell to another accredited investor. \n\nReg A+ -  For USA citizens only. Anyone can invest. \n    The maximum that can be invested is $50Million per year. \n    KYC/AML is required.\n     The max a person can invest in reg a+ is $17500 per year. \n\nReg S -\n This is for USA companies raising money outside USA. \n This can have a 6 Month or a 1 year lockin. \n (KYC/AML has to be done). The other rule is that these tokens cannot be sold to a USA person for a 1 year period. \n\nNOTE- During any sale period a investor in USA can be offered reg d and reg a+. \nThe investor has to choose and fill out paperwork to qualify. \n\nSo the token has to be aware of the following:\nWHO CAN BUY AND WHO CAN SELL\nwas it sold as a reg d. date of its sale.  Has to have to ability to unlock\nwas it sold as a reg a+ . date of sale\nwas it sold as reg S. date of sale. Is the lockin 6month or 1 year. During this period the token cannot unlock.\n*/\n\n/*\n\nwhat location is the investor based in\nIs this investor accredited. Time and date of accreditation (as it expires after x time)\nis KYC/AML done. Time and date of KYC/AML (as it expires after x time)\nIs there more data that can be stored here? eg: file numbers etc? post documents to blockchain etc?\nHow much has this investor invested in the past.\n\n*/\npragma solidity >=0.4.21 <0.5.0;\n\nimport \"./BrightCoinTokenOwner.sol\";\nimport \"./BrightCoinnonAccridetedInvestor.sol\";\nimport \"./BrightCoinAccreditionInvestor.sol\";\n\n\n\ncontract BrightCoinInvestorCheck is BrightCoinAccreditionInvestor,BrightCoinnonAccridetedInvestor\n{\n\nenum BrightCoinICOType { RegD, RegS, RegDRegS, Utility }\nuint256  private constant defaultgeolation = 999999;\n\n\nconstructor() public\n{\n  \n}\n\n\n function checkBothInvestorValidity(address _investor, address _investorAddress, uint8 _ICOType)  public view returns(bool)\n {\n\n   bool validityStatus = false;\n    bool Investoevalidity = false;\n    bool newInvestorvalidity = false;\n \n    if(_ICOType == uint8(BrightCoinICOType.RegD))\n    {\n      Investoevalidity = CheckAccreditionStatus(_investor);\n      newInvestorvalidity = CheckAccreditionStatus(_investorAddress);\n       if( (Investoevalidity == true)  && (newInvestorvalidity == true))\n            return true;\n    }\n    else if (_ICOType == uint8(BrightCoinICOType.RegS))\n    {\n\n        uint256 geoLocation1;\n        uint256 geoLocation2;\n  \n        //check Accridition Status of Both the Investor as\n          Investoevalidity = CheckAccreditionStatus(_investor);\n          if(Investoevalidity == true) \n               geoLocation1 = GetGeoLocationAccreditedInvestor(_investor);\n           else\n           geoLocation1 = GetGeoLocationOfNonInvestor(_investor);\n\n           //check of other Investor\n           Investoevalidity = CheckAccreditionStatus(_investorAddress);\n          if(Investoevalidity == true) \n               geoLocation2 = GetGeoLocationAccreditedInvestor(_investorAddress);\n           else\n           geoLocation2 = GetGeoLocationOfNonInvestor(_investorAddress);\n\n            if((geoLocation1 == defaultgeolation) ||  (geoLocation2 == defaultgeolation) )\n               return false;\n               \n           if( geoLocation1 !=1 && geoLocation2 != 1 )  //Make sure GeoLocation ius not USA\n              validityStatus =  true;   \n     \n      return validityStatus;\n\n    }\n    else if (_ICOType == uint8(BrightCoinICOType.RegDRegS))\n    {\n\n        bool validityStatus1 = false;\n        bool validityStatus2 = false;\n        uint256 geolocation;\n        \n        Investoevalidity = CheckAccreditionStatus(_investor);\n          if(Investoevalidity == false) \n          {\n               geolocation = GetGeoLocationOfNonInvestor(_investor);\n               if(geolocation == defaultgeolation)\n                    return false;\n                if(geolocation != 1 )\n                    validityStatus1 =  true; \n          }\n          else\n          {\n             validityStatus1 =  true; \n          }\n\n          bool Investorevalidity2 = CheckAccreditionStatus(_investorAddress);\n          if(Investorevalidity2 == false) \n          {\n               geolocation = GetGeoLocationOfNonInvestor(_investorAddress);\n               if(geolocation == defaultgeolation)\n                    return false;\n                    \n               if( geolocation != 1)\n                 validityStatus2 =  true; \n          }\n          else\n          {\n             validityStatus2 =  true; \n          }\n\n          if( (validityStatus1 == true) && (validityStatus2 == true))\n          return true;\n          else\n          return false;\n       \n    }\n    else  //Utility ICO \n    {\n\n\n         geoLocation1 = GetGeoLocationOfNonInvestor(_investorAddress);\n         geoLocation2 = GetGeoLocationOfNonInvestor(_investor);\n\n        if((geoLocation1 != 1) && (geoLocation2 != 1))\n              return true;\n\n          return validityStatus;\n    }\n\n\n   return validityStatus;\n\n }\n\n\nfunction checkInvestorValidity( address _investorAddress, uint8 _ICOType)  public view returns(bool)\n {\n\n    bool validityStatus = false;\n    uint256 GeoLocation;\n \n    if(_ICOType == uint8(BrightCoinICOType.RegD))\n    {\n      validityStatus = CheckAccreditionStatus(_investorAddress);\n       return validityStatus;\n    }\n    else if (_ICOType == uint8(BrightCoinICOType.RegS))\n    {\n   \n      //check if Investor is Accrideted One\n      bool AccreditionStatus  = CheckAccreditionStatus(_investorAddress);\n      if(AccreditionStatus == true)\n      {\n          // now check GeoLocatiom\n          uint256 geoLocation = GetGeoLocationAccreditedInvestor(_investorAddress);\n          if(geoLocation != 1) // If Not USA then return true;\n            validityStatus = true;\n\n          return validityStatus;\n      }    \n\n      GeoLocation = GetGeoLocationOfNonInvestor(_investorAddress);\n      if(GeoLocation != 1) //Should not be USA\n      validityStatus = true;\n      return validityStatus;\n\n    }\n    else if(_ICOType == uint8(BrightCoinICOType.RegDRegS))\n    {\n        //Do check for RegD and RegS stuff\n        validityStatus = CheckAccreditionStatus(_investorAddress);\n        if(validityStatus == false)\n        {            \n           \n           GeoLocation = GetGeoLocationOfNonInvestor(_investorAddress);\n           require(GeoLocation !=0, \"Geolocation Should not be zero\");\n           if(GeoLocation != 1) //Should not be USA  \n               validityStatus = true;\n         \n           return validityStatus;\n        }\n        return validityStatus;\n\n    }\n    else  //Utility ICO \n    {\n        GeoLocation = GetGeoLocationOfNonInvestor(_investorAddress);\n        if(GeoLocation != 1)\n           validityStatus = true;\n\n          return validityStatus;\n\n     }\n\n\n   return true;\n\n }\n\n\n  \n}\n\n\n",
  "sourcePath": "/Users/shubhamsuyal/code/brightcoin/dapp/contracts/BrightCoinInvestorCheck.sol",
  "compiler": {
    "name": "solc",
    "version": "0.4.24+commit.e67f0147.Emscripten.clang"
  },
  "schemaVersion": "2.0.1",
  "updatedAt": "2019-01-15T05:16:30.784Z"
}