{
  "contractName": "BrightCoinRegulatedToken",
  "abi": [
    {
      "constant": true,
      "inputs": [],
      "name": "name",
      "outputs": [
        {
          "name": "",
          "type": "string"
        }
      ],
      "payable": false,
      "stateMutability": "view",
      "type": "function"
    },
    {
      "constant": true,
      "inputs": [],
      "name": "SUCCESS_CODE",
      "outputs": [
        {
          "name": "",
          "type": "uint8"
        }
      ],
      "payable": false,
      "stateMutability": "view",
      "type": "function"
    },
    {
      "constant": true,
      "inputs": [],
      "name": "totalSupply",
      "outputs": [
        {
          "name": "",
          "type": "uint256"
        }
      ],
      "payable": false,
      "stateMutability": "view",
      "type": "function"
    },
    {
      "constant": true,
      "inputs": [
        {
          "name": "_newTeamAddr",
          "type": "address"
        }
      ],
      "name": "CheckTeamTokenAmount",
      "outputs": [
        {
          "name": "",
          "type": "uint256"
        }
      ],
      "payable": false,
      "stateMutability": "view",
      "type": "function"
    },
    {
      "constant": false,
      "inputs": [
        {
          "name": "_endDateTimeStamp",
          "type": "uint256"
        },
        {
          "name": "_currenttime",
          "type": "uint256"
        }
      ],
      "name": "changeEndDate",
      "outputs": [
        {
          "name": "",
          "type": "bool"
        }
      ],
      "payable": false,
      "stateMutability": "nonpayable",
      "type": "function"
    },
    {
      "constant": false,
      "inputs": [
        {
          "name": "_tokensalestatus",
          "type": "bool"
        }
      ],
      "name": "changeTokenSaleStatus",
      "outputs": [],
      "payable": false,
      "stateMutability": "nonpayable",
      "type": "function"
    },
    {
      "constant": true,
      "inputs": [],
      "name": "CheckIfSoftcapAchived",
      "outputs": [
        {
          "name": "",
          "type": "bool"
        }
      ],
      "payable": false,
      "stateMutability": "view",
      "type": "function"
    },
    {
      "constant": false,
      "inputs": [
        {
          "name": "_newSoftcap",
          "type": "uint256"
        }
      ],
      "name": "ChangeSoftCap",
      "outputs": [],
      "payable": false,
      "stateMutability": "nonpayable",
      "type": "function"
    },
    {
      "constant": true,
      "inputs": [],
      "name": "TotalFounder",
      "outputs": [
        {
          "name": "",
          "type": "uint256"
        }
      ],
      "payable": false,
      "stateMutability": "view",
      "type": "function"
    },
    {
      "constant": true,
      "inputs": [],
      "name": "decimals",
      "outputs": [
        {
          "name": "",
          "type": "uint256"
        }
      ],
      "payable": false,
      "stateMutability": "view",
      "type": "function"
    },
    {
      "constant": true,
      "inputs": [],
      "name": "TokenSaleOn",
      "outputs": [
        {
          "name": "",
          "type": "bool"
        }
      ],
      "payable": false,
      "stateMutability": "view",
      "type": "function"
    },
    {
      "constant": false,
      "inputs": [
        {
          "name": "_newFounderAddr",
          "type": "address"
        }
      ],
      "name": "RemoveFounderFromFurtherInvestment",
      "outputs": [
        {
          "name": "",
          "type": "bool"
        }
      ],
      "payable": false,
      "stateMutability": "nonpayable",
      "type": "function"
    },
    {
      "constant": true,
      "inputs": [],
      "name": "initialSupply",
      "outputs": [
        {
          "name": "",
          "type": "uint256"
        }
      ],
      "payable": false,
      "stateMutability": "view",
      "type": "function"
    },
    {
      "constant": false,
      "inputs": [
        {
          "name": "_startDateTimeStamp",
          "type": "uint256"
        },
        {
          "name": "_currenttime",
          "type": "uint256"
        }
      ],
      "name": "changeStartDate",
      "outputs": [
        {
          "name": "",
          "type": "bool"
        }
      ],
      "payable": false,
      "stateMutability": "nonpayable",
      "type": "function"
    },
    {
      "constant": false,
      "inputs": [
        {
          "name": "_to",
          "type": "address"
        },
        {
          "name": "_value",
          "type": "uint256"
        }
      ],
      "name": "mint",
      "outputs": [],
      "payable": false,
      "stateMutability": "nonpayable",
      "type": "function"
    },
    {
      "constant": true,
      "inputs": [],
      "name": "BonusAmountPreSale",
      "outputs": [
        {
          "name": "",
          "type": "uint256"
        }
      ],
      "payable": false,
      "stateMutability": "view",
      "type": "function"
    },
    {
      "constant": false,
      "inputs": [
        {
          "name": "_value",
          "type": "uint256"
        }
      ],
      "name": "burn",
      "outputs": [],
      "payable": false,
      "stateMutability": "nonpayable",
      "type": "function"
    },
    {
      "constant": true,
      "inputs": [],
      "name": "INVESTOR_KYC_FAILED_MESSAGE",
      "outputs": [
        {
          "name": "",
          "type": "string"
        }
      ],
      "payable": false,
      "stateMutability": "view",
      "type": "function"
    },
    {
      "constant": true,
      "inputs": [],
      "name": "TOKEN_TRANSFER_LOCK_CODE",
      "outputs": [
        {
          "name": "",
          "type": "uint8"
        }
      ],
      "payable": false,
      "stateMutability": "view",
      "type": "function"
    },
    {
      "constant": true,
      "inputs": [],
      "name": "purchaseRate",
      "outputs": [
        {
          "name": "",
          "type": "uint256"
        }
      ],
      "payable": false,
      "stateMutability": "view",
      "type": "function"
    },
    {
      "constant": true,
      "inputs": [],
      "name": "TotalTeamnvestor",
      "outputs": [
        {
          "name": "",
          "type": "uint256"
        }
      ],
      "payable": false,
      "stateMutability": "view",
      "type": "function"
    },
    {
      "constant": true,
      "inputs": [
        {
          "name": "_newFounderAddr",
          "type": "address"
        }
      ],
      "name": "CheckFounderTokenAmount",
      "outputs": [
        {
          "name": "",
          "type": "uint256"
        }
      ],
      "payable": false,
      "stateMutability": "view",
      "type": "function"
    },
    {
      "constant": true,
      "inputs": [],
      "name": "TOKEN_TRANSFER_UTILITY_TOKEN_MESSAGE",
      "outputs": [
        {
          "name": "",
          "type": "string"
        }
      ],
      "payable": false,
      "stateMutability": "view",
      "type": "function"
    },
    {
      "constant": true,
      "inputs": [],
      "name": "InitialCompanyHoldingValue",
      "outputs": [
        {
          "name": "",
          "type": "uint256"
        }
      ],
      "payable": false,
      "stateMutability": "view",
      "type": "function"
    },
    {
      "constant": true,
      "inputs": [],
      "name": "version",
      "outputs": [
        {
          "name": "",
          "type": "string"
        }
      ],
      "payable": false,
      "stateMutability": "view",
      "type": "function"
    },
    {
      "constant": true,
      "inputs": [],
      "name": "ZERO_ADDRESS_RESTRICTION_MESSAGE",
      "outputs": [
        {
          "name": "",
          "type": "string"
        }
      ],
      "payable": false,
      "stateMutability": "view",
      "type": "function"
    },
    {
      "constant": false,
      "inputs": [
        {
          "name": "_newTeamAddr",
          "type": "address"
        }
      ],
      "name": "RemoveTeamFromFurtherInvestment",
      "outputs": [],
      "payable": false,
      "stateMutability": "nonpayable",
      "type": "function"
    },
    {
      "constant": true,
      "inputs": [],
      "name": "INVESTOR_TOKEN_LOCK_EXPIRED_CODE",
      "outputs": [
        {
          "name": "",
          "type": "uint8"
        }
      ],
      "payable": false,
      "stateMutability": "view",
      "type": "function"
    },
    {
      "constant": true,
      "inputs": [],
      "name": "BountyAllocated",
      "outputs": [
        {
          "name": "",
          "type": "uint256"
        }
      ],
      "payable": false,
      "stateMutability": "view",
      "type": "function"
    },
    {
      "constant": true,
      "inputs": [],
      "name": "CurrentAllocatedFounderToken",
      "outputs": [
        {
          "name": "",
          "type": "uint256"
        }
      ],
      "payable": false,
      "stateMutability": "view",
      "type": "function"
    },
    {
      "constant": true,
      "inputs": [],
      "name": "GetHardcap",
      "outputs": [
        {
          "name": "",
          "type": "uint256"
        }
      ],
      "payable": false,
      "stateMutability": "view",
      "type": "function"
    },
    {
      "constant": true,
      "inputs": [
        {
          "name": "_who",
          "type": "address"
        }
      ],
      "name": "balanceOf",
      "outputs": [
        {
          "name": "",
          "type": "uint256"
        }
      ],
      "payable": false,
      "stateMutability": "view",
      "type": "function"
    },
    {
      "constant": true,
      "inputs": [],
      "name": "INVESTOR_ACCREDITION_FAILED_MESSAGE",
      "outputs": [
        {
          "name": "",
          "type": "string"
        }
      ],
      "payable": false,
      "stateMutability": "view",
      "type": "function"
    },
    {
      "constant": true,
      "inputs": [
        {
          "name": "_newAdvisorAddr",
          "type": "address"
        }
      ],
      "name": "CheckAdvisorTokenAmount",
      "outputs": [
        {
          "name": "",
          "type": "uint256"
        }
      ],
      "payable": false,
      "stateMutability": "view",
      "type": "function"
    },
    {
      "constant": true,
      "inputs": [
        {
          "name": "restrictionCode",
          "type": "uint8"
        }
      ],
      "name": "messageForTransferRestriction",
      "outputs": [
        {
          "name": "message",
          "type": "string"
        }
      ],
      "payable": false,
      "stateMutability": "pure",
      "type": "function"
    },
    {
      "constant": true,
      "inputs": [],
      "name": "TOKEN_TRANSFER_UTILITY_TOKEN_CODE",
      "outputs": [
        {
          "name": "",
          "type": "uint8"
        }
      ],
      "payable": false,
      "stateMutability": "view",
      "type": "function"
    },
    {
      "constant": true,
      "inputs": [],
      "name": "BrightCoinInvestorAccreditationAddress",
      "outputs": [
        {
          "name": "",
          "type": "address"
        }
      ],
      "payable": false,
      "stateMutability": "view",
      "type": "function"
    },
    {
      "constant": true,
      "inputs": [],
      "name": "INVESTOR_ICO_PAUSED_CODE",
      "outputs": [
        {
          "name": "",
          "type": "uint8"
        }
      ],
      "payable": false,
      "stateMutability": "view",
      "type": "function"
    },
    {
      "constant": true,
      "inputs": [],
      "name": "owner",
      "outputs": [
        {
          "name": "",
          "type": "address"
        }
      ],
      "payable": false,
      "stateMutability": "view",
      "type": "function"
    },
    {
      "constant": true,
      "inputs": [],
      "name": "isOwner",
      "outputs": [
        {
          "name": "",
          "type": "bool"
        }
      ],
      "payable": false,
      "stateMutability": "view",
      "type": "function"
    },
    {
      "constant": true,
      "inputs": [],
      "name": "ZERO_ADDRESS_RESTRICTION_CODE",
      "outputs": [
        {
          "name": "",
          "type": "uint8"
        }
      ],
      "payable": false,
      "stateMutability": "view",
      "type": "function"
    },
    {
      "constant": true,
      "inputs": [],
      "name": "symbol",
      "outputs": [
        {
          "name": "",
          "type": "string"
        }
      ],
      "payable": false,
      "stateMutability": "view",
      "type": "function"
    },
    {
      "constant": true,
      "inputs": [],
      "name": "ICOType",
      "outputs": [
        {
          "name": "",
          "type": "uint8"
        }
      ],
      "payable": false,
      "stateMutability": "view",
      "type": "function"
    },
    {
      "constant": false,
      "inputs": [
        {
          "name": "_newAdvisorAddr",
          "type": "address"
        }
      ],
      "name": "RemoveAdvisorFromFurtherInvestment",
      "outputs": [
        {
          "name": "",
          "type": "bool"
        }
      ],
      "payable": false,
      "stateMutability": "nonpayable",
      "type": "function"
    },
    {
      "constant": true,
      "inputs": [],
      "name": "InitialFounderToken",
      "outputs": [
        {
          "name": "",
          "type": "uint256"
        }
      ],
      "payable": false,
      "stateMutability": "view",
      "type": "function"
    },
    {
      "constant": true,
      "inputs": [],
      "name": "CompanyHoldingValue",
      "outputs": [
        {
          "name": "",
          "type": "uint256"
        }
      ],
      "payable": false,
      "stateMutability": "view",
      "type": "function"
    },
    {
      "constant": true,
      "inputs": [],
      "name": "CompanyHoldingAddress",
      "outputs": [
        {
          "name": "",
          "type": "address"
        }
      ],
      "payable": false,
      "stateMutability": "view",
      "type": "function"
    },
    {
      "constant": false,
      "inputs": [
        {
          "name": "_newHardcap",
          "type": "uint256"
        }
      ],
      "name": "changeHardCapLimit",
      "outputs": [],
      "payable": false,
      "stateMutability": "nonpayable",
      "type": "function"
    },
    {
      "constant": true,
      "inputs": [],
      "name": "INVESTOR_ACCREDITION_FAILED_CODE",
      "outputs": [
        {
          "name": "",
          "type": "uint8"
        }
      ],
      "payable": false,
      "stateMutability": "view",
      "type": "function"
    },
    {
      "constant": true,
      "inputs": [],
      "name": "TotalAdvisor",
      "outputs": [
        {
          "name": "",
          "type": "uint256"
        }
      ],
      "payable": false,
      "stateMutability": "view",
      "type": "function"
    },
    {
      "constant": true,
      "inputs": [
        {
          "name": "_tokens",
          "type": "uint256"
        }
      ],
      "name": "CheckIfHardcapAchived",
      "outputs": [
        {
          "name": "",
          "type": "bool"
        }
      ],
      "payable": false,
      "stateMutability": "view",
      "type": "function"
    },
    {
      "constant": true,
      "inputs": [],
      "name": "maxCoinSoldDuringPresale",
      "outputs": [
        {
          "name": "",
          "type": "uint256"
        }
      ],
      "payable": false,
      "stateMutability": "view",
      "type": "function"
    },
    {
      "constant": true,
      "inputs": [],
      "name": "UNKNOWN_MESSAGE",
      "outputs": [
        {
          "name": "",
          "type": "string"
        }
      ],
      "payable": false,
      "stateMutability": "view",
      "type": "function"
    },
    {
      "constant": true,
      "inputs": [],
      "name": "TotalAllocatedTeamToken",
      "outputs": [
        {
          "name": "",
          "type": "uint256"
        }
      ],
      "payable": false,
      "stateMutability": "view",
      "type": "function"
    },
    {
      "constant": true,
      "inputs": [],
      "name": "ICO_PAUSED_MESSAGE",
      "outputs": [
        {
          "name": "",
          "type": "string"
        }
      ],
      "payable": false,
      "stateMutability": "view",
      "type": "function"
    },
    {
      "constant": true,
      "inputs": [],
      "name": "GetSoftcap",
      "outputs": [
        {
          "name": "",
          "type": "uint256"
        }
      ],
      "payable": false,
      "stateMutability": "view",
      "type": "function"
    },
    {
      "constant": true,
      "inputs": [],
      "name": "Discount",
      "outputs": [
        {
          "name": "",
          "type": "uint8"
        }
      ],
      "payable": false,
      "stateMutability": "view",
      "type": "function"
    },
    {
      "constant": true,
      "inputs": [],
      "name": "TotalAllocatedAdvisorToken",
      "outputs": [
        {
          "name": "",
          "type": "uint256"
        }
      ],
      "payable": false,
      "stateMutability": "view",
      "type": "function"
    },
    {
      "constant": true,
      "inputs": [],
      "name": "MintMoreTokens",
      "outputs": [
        {
          "name": "",
          "type": "bool"
        }
      ],
      "payable": false,
      "stateMutability": "view",
      "type": "function"
    },
    {
      "constant": true,
      "inputs": [
        {
          "name": "",
          "type": "uint256"
        }
      ],
      "name": "advisorDistributionAddr",
      "outputs": [
        {
          "name": "",
          "type": "address"
        }
      ],
      "payable": false,
      "stateMutability": "view",
      "type": "function"
    },
    {
      "constant": false,
      "inputs": [
        {
          "name": "_status",
          "type": "bool"
        }
      ],
      "name": "pauseICOtransaction",
      "outputs": [],
      "payable": false,
      "stateMutability": "nonpayable",
      "type": "function"
    },
    {
      "constant": true,
      "inputs": [],
      "name": "TotalAllocatedFounder",
      "outputs": [
        {
          "name": "",
          "type": "uint256"
        }
      ],
      "payable": false,
      "stateMutability": "view",
      "type": "function"
    },
    {
      "constant": true,
      "inputs": [
        {
          "name": "",
          "type": "uint256"
        }
      ],
      "name": "teamTokenDetailsAddr",
      "outputs": [
        {
          "name": "",
          "type": "address"
        }
      ],
      "payable": false,
      "stateMutability": "view",
      "type": "function"
    },
    {
      "constant": true,
      "inputs": [
        {
          "name": "_owner",
          "type": "address"
        },
        {
          "name": "_spender",
          "type": "address"
        }
      ],
      "name": "allowance",
      "outputs": [
        {
          "name": "",
          "type": "uint256"
        }
      ],
      "payable": false,
      "stateMutability": "view",
      "type": "function"
    },
    {
      "constant": true,
      "inputs": [],
      "name": "TOKEN_TRANSFER_LOCK_MESSAGE",
      "outputs": [
        {
          "name": "",
          "type": "string"
        }
      ],
      "payable": false,
      "stateMutability": "view",
      "type": "function"
    },
    {
      "constant": true,
      "inputs": [],
      "name": "BrightCoinInvestorKYCAddress",
      "outputs": [
        {
          "name": "",
          "type": "address"
        }
      ],
      "payable": false,
      "stateMutability": "view",
      "type": "function"
    },
    {
      "constant": false,
      "inputs": [
        {
          "name": "_mintingOption",
          "type": "bool"
        }
      ],
      "name": "UpdateTokenMintingOption",
      "outputs": [],
      "payable": false,
      "stateMutability": "nonpayable",
      "type": "function"
    },
    {
      "constant": true,
      "inputs": [],
      "name": "SUCCESS_MESSAGE",
      "outputs": [
        {
          "name": "",
          "type": "string"
        }
      ],
      "payable": false,
      "stateMutability": "view",
      "type": "function"
    },
    {
      "constant": false,
      "inputs": [
        {
          "name": "_newOwner",
          "type": "address"
        }
      ],
      "name": "transferownership",
      "outputs": [],
      "payable": false,
      "stateMutability": "nonpayable",
      "type": "function"
    },
    {
      "constant": true,
      "inputs": [
        {
          "name": "_currenttime",
          "type": "uint256"
        }
      ],
      "name": "inPreSalePeriod",
      "outputs": [
        {
          "name": "",
          "type": "bool"
        }
      ],
      "payable": false,
      "stateMutability": "view",
      "type": "function"
    },
    {
      "constant": true,
      "inputs": [],
      "name": "INVESTOR_KYC_FAILED_CODE",
      "outputs": [
        {
          "name": "",
          "type": "uint8"
        }
      ],
      "payable": false,
      "stateMutability": "view",
      "type": "function"
    },
    {
      "inputs": [],
      "payable": false,
      "stateMutability": "nonpayable",
      "type": "constructor"
    },
    {
      "anonymous": false,
      "inputs": [
        {
          "indexed": false,
          "name": "owner",
          "type": "address"
        },
        {
          "indexed": false,
          "name": "investor",
          "type": "address"
        },
        {
          "indexed": false,
          "name": "amount",
          "type": "uint256"
        }
      ],
      "name": "BuyToken",
      "type": "event"
    },
    {
      "anonymous": false,
      "inputs": [
        {
          "indexed": true,
          "name": "from",
          "type": "address"
        },
        {
          "indexed": true,
          "name": "_to",
          "type": "address"
        },
        {
          "indexed": false,
          "name": "_value",
          "type": "uint256"
        }
      ],
      "name": "Transfer",
      "type": "event"
    },
    {
      "anonymous": false,
      "inputs": [
        {
          "indexed": true,
          "name": "owner",
          "type": "address"
        },
        {
          "indexed": true,
          "name": "_spender",
          "type": "address"
        },
        {
          "indexed": false,
          "name": "_value",
          "type": "uint256"
        }
      ],
      "name": "Approval",
      "type": "event"
    },
    {
      "anonymous": false,
      "inputs": [
        {
          "indexed": false,
          "name": "tokens",
          "type": "uint256"
        }
      ],
      "name": "PresaleFinalized",
      "type": "event"
    },
    {
      "anonymous": false,
      "inputs": [
        {
          "indexed": false,
          "name": "softcap",
          "type": "string"
        }
      ],
      "name": "ICOSoftCapReached",
      "type": "event"
    },
    {
      "anonymous": false,
      "inputs": [
        {
          "indexed": false,
          "name": "TokenSold",
          "type": "uint256"
        },
        {
          "indexed": false,
          "name": "str",
          "type": "string"
        }
      ],
      "name": "ICOSoftUnsuccessFull",
      "type": "event"
    },
    {
      "anonymous": false,
      "inputs": [
        {
          "indexed": false,
          "name": "addr",
          "type": "address"
        },
        {
          "indexed": false,
          "name": "tokens",
          "type": "uint256"
        }
      ],
      "name": "Burn",
      "type": "event"
    },
    {
      "anonymous": false,
      "inputs": [
        {
          "indexed": false,
          "name": "target",
          "type": "address"
        },
        {
          "indexed": false,
          "name": "mintedAmount",
          "type": "uint256"
        }
      ],
      "name": "Mint",
      "type": "event"
    },
    {
      "anonymous": false,
      "inputs": [
        {
          "indexed": true,
          "name": "_of",
          "type": "address"
        },
        {
          "indexed": false,
          "name": "_amount",
          "type": "uint256"
        },
        {
          "indexed": false,
          "name": "_validity",
          "type": "uint256"
        }
      ],
      "name": "Locked",
      "type": "event"
    },
    {
      "anonymous": false,
      "inputs": [
        {
          "indexed": false,
          "name": "sender",
          "type": "address"
        },
        {
          "indexed": false,
          "name": "investor",
          "type": "address"
        },
        {
          "indexed": false,
          "name": "_validity",
          "type": "uint256"
        },
        {
          "indexed": true,
          "name": "_reason",
          "type": "bytes32"
        }
      ],
      "name": "LockUpdated",
      "type": "event"
    },
    {
      "anonymous": false,
      "inputs": [
        {
          "indexed": true,
          "name": "_of",
          "type": "address"
        },
        {
          "indexed": true,
          "name": "_reason",
          "type": "bytes32"
        },
        {
          "indexed": false,
          "name": "_amount",
          "type": "uint256"
        }
      ],
      "name": "Unlocked",
      "type": "event"
    },
    {
      "anonymous": false,
      "inputs": [
        {
          "indexed": true,
          "name": "previousOwner",
          "type": "address"
        }
      ],
      "name": "OwnershipRenounced",
      "type": "event"
    },
    {
      "anonymous": false,
      "inputs": [
        {
          "indexed": true,
          "name": "previousOwner",
          "type": "address"
        },
        {
          "indexed": true,
          "name": "newOwner",
          "type": "address"
        }
      ],
      "name": "OwnershipTransferred",
      "type": "event"
    },
    {
      "constant": false,
      "inputs": [
        {
          "name": "AddrOfInvestor",
          "type": "address"
        },
        {
          "name": "tokenamount",
          "type": "uint256"
        },
        {
          "name": "tokenlockPeriod",
          "type": "uint256"
        },
        {
          "name": "currenttime",
          "type": "uint256"
        }
      ],
      "name": "DistributeToken",
      "outputs": [],
      "payable": false,
      "stateMutability": "nonpayable",
      "type": "function"
    },
    {
      "constant": false,
      "inputs": [
        {
          "name": "_to",
          "type": "address"
        },
        {
          "name": "_tokens",
          "type": "uint256"
        }
      ],
      "name": "transfer",
      "outputs": [
        {
          "name": "",
          "type": "bool"
        }
      ],
      "payable": false,
      "stateMutability": "nonpayable",
      "type": "function"
    },
    {
      "constant": false,
      "inputs": [
        {
          "name": "_to",
          "type": "address"
        }
      ],
      "name": "tranfertocustodian",
      "outputs": [
        {
          "name": "",
          "type": "bool"
        }
      ],
      "payable": false,
      "stateMutability": "nonpayable",
      "type": "function"
    },
    {
      "constant": false,
      "inputs": [
        {
          "name": "_spender",
          "type": "address"
        },
        {
          "name": "_value",
          "type": "uint256"
        }
      ],
      "name": "approve",
      "outputs": [
        {
          "name": "success",
          "type": "bool"
        }
      ],
      "payable": false,
      "stateMutability": "nonpayable",
      "type": "function"
    },
    {
      "constant": false,
      "inputs": [
        {
          "name": "_from",
          "type": "address"
        },
        {
          "name": "_to",
          "type": "address"
        },
        {
          "name": "_tokens",
          "type": "uint256"
        }
      ],
      "name": "transferfrom",
      "outputs": [
        {
          "name": "",
          "type": "bool"
        }
      ],
      "payable": false,
      "stateMutability": "nonpayable",
      "type": "function"
    },
    {
      "constant": false,
      "inputs": [
        {
          "name": "_kyc",
          "type": "address"
        },
        {
          "name": "_InvestorAcrridetion",
          "type": "address"
        }
      ],
      "name": "setKYCAndAccridetionAddres",
      "outputs": [],
      "payable": false,
      "stateMutability": "nonpayable",
      "type": "function"
    },
    {
      "constant": false,
      "inputs": [
        {
          "name": "_kycSupportAcquired",
          "type": "bool"
        }
      ],
      "name": "setKYCSupport",
      "outputs": [],
      "payable": false,
      "stateMutability": "nonpayable",
      "type": "function"
    },
    {
      "constant": false,
      "inputs": [
        {
          "name": "_securitySupport",
          "type": "bool"
        }
      ],
      "name": "setInvestorSecuritySupport",
      "outputs": [],
      "payable": false,
      "stateMutability": "nonpayable",
      "type": "function"
    },
    {
      "constant": false,
      "inputs": [
        {
          "name": "_addr",
          "type": "address"
        },
        {
          "name": "_tokens",
          "type": "uint256"
        },
        {
          "name": "_lockExpiryDateTime",
          "type": "uint256"
        },
        {
          "name": "_adminType",
          "type": "uint8"
        }
      ],
      "name": "DistributeTokentoAdmin",
      "outputs": [
        {
          "name": "",
          "type": "bool"
        }
      ],
      "payable": false,
      "stateMutability": "nonpayable",
      "type": "function"
    },
    {
      "constant": false,
      "inputs": [
        {
          "name": "_lockExpiry",
          "type": "uint256"
        }
      ],
      "name": "TransferCompanyHoldingTokens",
      "outputs": [
        {
          "name": "",
          "type": "bool"
        }
      ],
      "payable": false,
      "stateMutability": "nonpayable",
      "type": "function"
    },
    {
      "constant": false,
      "inputs": [
        {
          "name": "_addr",
          "type": "address"
        },
        {
          "name": "_lockperiod",
          "type": "uint256"
        }
      ],
      "name": "UpdateTokenlockValidity",
      "outputs": [
        {
          "name": "",
          "type": "bool"
        }
      ],
      "payable": false,
      "stateMutability": "nonpayable",
      "type": "function"
    }
  ],
  "bytecode": "0x6080604052635be030c0600c55635d194cff600d556000600e556000600f5560006010556000601155630ee6b2806012556001601360006101000a81548160ff02191690831515021790555060006016556000601755600060185560006019556000601b60006101000a81548160ff0219169083151502179055506000601b60016101000a81548160ff021916908360ff1602179055506000601d60006101000a81548160ff021916908315150217905550348015620000be57600080fd5b50336000806101000a81548173ffffffffffffffffffffffffffffffffffffffff021916908373ffffffffffffffffffffffffffffffffffffffff1602179055506000600a0a631dcd650002601c819055506000600a0a6000026006819055506000600a0a630bebc200026016819055506000600a0a62989680026002819055506000600a0a6302625a0002601881905550620001796000600a0a601254620003b06401000000000262005e1f179091906401000000009004565b601281905550620001a86000600a0a601154620003b06401000000000262005e1f179091906401000000009004565b601181905550601c54601e60003373ffffffffffffffffffffffffffffffffffffffff1673ffffffffffffffffffffffffffffffffffffffff168152602001908152602001600020819055503373ffffffffffffffffffffffffffffffffffffffff16600073ffffffffffffffffffffffffffffffffffffffff167fddf252ad1be2c89b69c2b068fc378daa952ba7f163c4a11628f55a4df523b3ef601c546040518082815260200191505060405180910390a3601654600960003373ffffffffffffffffffffffffffffffffffffffff1673ffffffffffffffffffffffffffffffffffffffff16815260200190815260200160002081905550600254600160003373ffffffffffffffffffffffffffffffffffffffff1673ffffffffffffffffffffffffffffffffffffffff16815260200190815260200160002081905550600654600560003373ffffffffffffffffffffffffffffffffffffffff1673ffffffffffffffffffffffffffffffffffffffff16815260200190815260200160002081905550601854601460003373ffffffffffffffffffffffffffffffffffffffff1673ffffffffffffffffffffffffffffffffffffffff168152602001908152602001600020819055506000602360146101000a81548160ff0219169083151502179055506000602360156101000a81548160ff021916908315150217905550620003f2565b6000806000841415620003c75760009150620003eb565b8284029050828482811515620003d957fe5b04141515620003e757600080fd5b8091505b5092915050565b615e8980620004026000396000f3006080604052600436106103bc576000357c0100000000000000000000000000000000000000000000000000000000900463ffffffff16806306fdde03146103c1578063083386b814610451578063095ea7b3146104805780630e969a05146104e557806318160ddd146105165780631e9e3f97146105415780631f616e751461059857806320522347146105f957806322180b371461064857806324851bc314610677578063272c25cf146106a65780632b2d8370146106d3578063313ce567146106fe57806331a8a91014610729578063354fc0c014610758578063359ba137146107b3578063378dc3dc1461082f5780633c0afb591461085a57806340c10f19146108a9578063410116fb146108f657806342966c6814610921578063442ea1a21461094e5780634575f721146109de57806348c26e2214610a0f5780634c3ed4e114610a3a578063515879e714610a6557806351c4d40d14610abc5780635288bb4914610b1757806354c15d5e14610ba757806354fd4d5014610bd2578063572fb26c14610c62578063577ed9d214610cf257806361fa3df514610d3557806363b0545f14610d66578063641dd05e14610deb5780636474451514610e1a57806366055b1414610e455780636ff6dec914610e7057806370a0823114610e9b5780637754e0ed14610ef25780637b758ef714610f825780637f4ab1dd14610fd95780637ffacdc71461108257806389fb88e8146110b35780638be9f3dd146110f85780638da28ea31461114f5780638da5cb5b146111805780638f32d59b146111d75780639260c58c1461120657806395d89b411461123757806399224578146112c75780639ca5d79f1461132a5780639f07f6691461135b5780639f7e3a7f146113c0578063a180218f1461141b578063a240c60c14611446578063a4876bc414611471578063a5d1b200146114c8578063a9059cbb146114f5578063afbc34461461155a578063b03fd1ba1461158b578063b1f2ac55146115b6578063b30f63da146115fb578063ba0cf30414611626578063bc305852146116b6578063bfdb67f3146116e1578063c33ba86214611771578063c63ccb3b1461179c578063cc15c0f0146117cd578063cd6ce90c146117f8578063d62eb96014611827578063d7b0243e14611894578063d9d4f00c146118c3578063da04bb10146118ee578063dd62ed3e1461195b578063df50131f146119d2578063e118a49a14611a62578063e43158be14611ab9578063e7984d1714611ae8578063e8b5b79614611b78578063f569aed614611bbb578063f94fd7a614611c00575b600080fd5b3480156103cd57600080fd5b506103d6611c31565b6040518080602001828103825283818151815260200191508051906020019080838360005b838110156104165780820151818401526020810190506103fb565b50505050905090810190601f1680156104435780820380516001836020036101000a031916815260200191505b509250505060405180910390f35b34801561045d57600080fd5b5061047e600480360381019080803515159060200190929190505050611c6a565b005b34801561048c57600080fd5b506104cb600480360381019080803573ffffffffffffffffffffffffffffffffffffffff16906020019092919080359060200190929190505050611c9a565b604051808215151515815260200191505060405180910390f35b3480156104f157600080fd5b506104fa611e55565b604051808260ff1660ff16815260200191505060405180910390f35b34801561052257600080fd5b5061052b611e5a565b6040518082815260200191505060405180910390f35b34801561054d57600080fd5b50610582600480360381019080803573ffffffffffffffffffffffffffffffffffffffff169060200190929190505050611e64565b6040518082815260200191505060405180910390f35b3480156105a457600080fd5b506105f7600480360381019080803573ffffffffffffffffffffffffffffffffffffffff169060200190929190803590602001909291908035906020019092919080359060200190929190505050611eb5565b005b34801561060557600080fd5b5061062e6004803603810190808035906020019092919080359060200190929190505050612030565b604051808215151515815260200191505060405180910390f35b34801561065457600080fd5b50610675600480360381019080803515159060200190929190505050612084565b005b34801561068357600080fd5b5061068c6120b4565b604051808215151515815260200191505060405180910390f35b3480156106b257600080fd5b506106d1600480360381019080803590602001909291905050506121ae565b005b3480156106df57600080fd5b506106e86122a6565b6040518082815260200191505060405180910390f35b34801561070a57600080fd5b506107136122b3565b6040518082815260200191505060405180910390f35b34801561073557600080fd5b5061073e6122b8565b604051808215151515815260200191505060405180910390f35b34801561076457600080fd5b50610799600480360381019080803573ffffffffffffffffffffffffffffffffffffffff1690602001909291905050506122cb565b604051808215151515815260200191505060405180910390f35b3480156107bf57600080fd5b50610815600480360381019080803573ffffffffffffffffffffffffffffffffffffffff1690602001909291908035906020019092919080359060200190929190803560ff169060200190929190505050612349565b604051808215151515815260200191505060405180910390f35b34801561083b57600080fd5b506108446125d2565b6040518082815260200191505060405180910390f35b34801561086657600080fd5b5061088f60048036038101908080359060200190929190803590602001909291905050506125da565b604051808215151515815260200191505060405180910390f35b3480156108b557600080fd5b506108f4600480360381019080803573ffffffffffffffffffffffffffffffffffffffff16906020019092919080359060200190929190505050612620565b005b34801561090257600080fd5b5061090b612641565b6040518082815260200191505060405180910390f35b34801561092d57600080fd5b5061094c60048036038101908080359060200190929190505050612646565b005b34801561095a57600080fd5b506109636127da565b6040518080602001828103825283818151815260200191508051906020019080838360005b838110156109a3578082015181840152602081019050610988565b50505050905090810190601f1680156109d05780820380516001836020036101000a031916815260200191505b509250505060405180910390f35b3480156109ea57600080fd5b506109f3612813565b604051808260ff1660ff16815260200191505060405180910390f35b348015610a1b57600080fd5b50610a24612818565b6040518082815260200191505060405180910390f35b348015610a4657600080fd5b50610a4f61281e565b6040518082815260200191505060405180910390f35b348015610a7157600080fd5b50610aa6600480360381019080803573ffffffffffffffffffffffffffffffffffffffff16906020019092919050505061282b565b6040518082815260200191505060405180910390f35b348015610ac857600080fd5b50610afd600480360381019080803573ffffffffffffffffffffffffffffffffffffffff16906020019092919050505061287c565b604051808215151515815260200191505060405180910390f35b348015610b2357600080fd5b50610b2c612926565b6040518080602001828103825283818151815260200191508051906020019080838360005b83811015610b6c578082015181840152602081019050610b51565b50505050905090810190601f168015610b995780820380516001836020036101000a031916815260200191505b509250505060405180910390f35b348015610bb357600080fd5b50610bbc61295f565b6040518082815260200191505060405180910390f35b348015610bde57600080fd5b50610be7612967565b6040518080602001828103825283818151815260200191508051906020019080838360005b83811015610c27578082015181840152602081019050610c0c565b50505050905090810190601f168015610c545780820380516001836020036101000a031916815260200191505b509250505060405180910390f35b348015610c6e57600080fd5b50610c776129a0565b6040518080602001828103825283818151815260200191508051906020019080838360005b83811015610cb7578082015181840152602081019050610c9c565b50505050905090810190601f168015610ce45780820380516001836020036101000a031916815260200191505b509250505060405180910390f35b348015610cfe57600080fd5b50610d33600480360381019080803573ffffffffffffffffffffffffffffffffffffffff1690602001909291905050506129d9565b005b348015610d4157600080fd5b50610d4a612a50565b604051808260ff1660ff16815260200191505060405180910390f35b348015610d7257600080fd5b50610dd1600480360381019080803573ffffffffffffffffffffffffffffffffffffffff169060200190929190803573ffffffffffffffffffffffffffffffffffffffff16906020019092919080359060200190929190505050612a55565b604051808215151515815260200191505060405180910390f35b348015610df757600080fd5b50610e18600480360381019080803515159060200190929190505050612cd6565b005b348015610e2657600080fd5b50610e2f612d06565b6040518082815260200191505060405180910390f35b348015610e5157600080fd5b50610e5a612d0c565b6040518082815260200191505060405180910390f35b348015610e7c57600080fd5b50610e85612d12565b6040518082815260200191505060405180910390f35b348015610ea757600080fd5b50610edc600480360381019080803573ffffffffffffffffffffffffffffffffffffffff169060200190929190505050612d1c565b6040518082815260200191505060405180910390f35b348015610efe57600080fd5b50610f07612d65565b6040518080602001828103825283818151815260200191508051906020019080838360005b83811015610f47578082015181840152602081019050610f2c565b50505050905090810190601f168015610f745780820380516001836020036101000a031916815260200191505b509250505060405180910390f35b348015610f8e57600080fd5b50610fc3600480360381019080803573ffffffffffffffffffffffffffffffffffffffff169060200190929190505050612dc5565b6040518082815260200191505060405180910390f35b348015610fe557600080fd5b50611007600480360381019080803560ff169060200190929190505050612e29565b6040518080602001828103825283818151815260200191508051906020019080838360005b8381101561104757808201518184015260208101905061102c565b50505050905090810190601f1680156110745780820380516001836020036101000a031916815260200191505b509250505060405180910390f35b34801561108e57600080fd5b50611097613032565b604051808260ff1660ff16815260200191505060405180910390f35b3480156110bf57600080fd5b506110de60048036038101908080359060200190929190505050613037565b604051808215151515815260200191505060405180910390f35b34801561110457600080fd5b5061110d6131be565b604051808273ffffffffffffffffffffffffffffffffffffffff1673ffffffffffffffffffffffffffffffffffffffff16815260200191505060405180910390f35b34801561115b57600080fd5b506111646131e4565b604051808260ff1660ff16815260200191505060405180910390f35b34801561118c57600080fd5b506111956131e9565b604051808273ffffffffffffffffffffffffffffffffffffffff1673ffffffffffffffffffffffffffffffffffffffff16815260200191505060405180910390f35b3480156111e357600080fd5b506111ec613212565b604051808215151515815260200191505060405180910390f35b34801561121257600080fd5b5061121b613269565b604051808260ff1660ff16815260200191505060405180910390f35b34801561124357600080fd5b5061124c61326e565b6040518080602001828103825283818151815260200191508051906020019080838360005b8381101561128c578082015181840152602081019050611271565b50505050905090810190601f1680156112b95780820380516001836020036101000a031916815260200191505b509250505060405180910390f35b3480156112d357600080fd5b50611328600480360381019080803573ffffffffffffffffffffffffffffffffffffffff169060200190929190803573ffffffffffffffffffffffffffffffffffffffff1690602001909291905050506132a7565b005b34801561133657600080fd5b5061133f6133c2565b604051808260ff1660ff16815260200191505060405180910390f35b34801561136757600080fd5b506113a6600480360381019080803573ffffffffffffffffffffffffffffffffffffffff169060200190929190803590602001909291905050506133d2565b604051808215151515815260200191505060405180910390f35b3480156113cc57600080fd5b50611401600480360381019080803573ffffffffffffffffffffffffffffffffffffffff1690602001909291905050506134de565b604051808215151515815260200191505060405180910390f35b34801561142757600080fd5b5061143061355c565b6040518082815260200191505060405180910390f35b34801561145257600080fd5b5061145b613564565b6040518082815260200191505060405180910390f35b34801561147d57600080fd5b5061148661356a565b604051808273ffffffffffffffffffffffffffffffffffffffff1673ffffffffffffffffffffffffffffffffffffffff16815260200191505060405180910390f35b3480156114d457600080fd5b506114f360048036038101908080359060200190929190505050613582565b005b34801561150157600080fd5b50611540600480360381019080803573ffffffffffffffffffffffffffffffffffffffff16906020019092919080359060200190929190505050613678565b604051808215151515815260200191505060405180910390f35b34801561156657600080fd5b5061156f61374f565b604051808260ff1660ff16815260200191505060405180910390f35b34801561159757600080fd5b506115a0613754565b6040518082815260200191505060405180910390f35b3480156115c257600080fd5b506115e160048036038101908080359060200190929190505050613774565b604051808215151515815260200191505060405180910390f35b34801561160757600080fd5b50611610613890565b6040518082815260200191505060405180910390f35b34801561163257600080fd5b5061163b613895565b6040518080602001828103825283818151815260200191508051906020019080838360005b8381101561167b578082015181840152602081019050611660565b50505050905090810190601f1680156116a85780820380516001836020036101000a031916815260200191505b509250505060405180910390f35b3480156116c257600080fd5b506116cb6138ce565b6040518082815260200191505060405180910390f35b3480156116ed57600080fd5b506116f66138d4565b6040518080602001828103825283818151815260200191508051906020019080838360005b8381101561173657808201518184015260208101905061171b565b50505050905090810190601f1680156117635780820380516001836020036101000a031916815260200191505b509250505060405180910390f35b34801561177d57600080fd5b5061178661390d565b6040518082815260200191505060405180910390f35b3480156117a857600080fd5b506117b1613917565b604051808260ff1660ff16815260200191505060405180910390f35b3480156117d957600080fd5b506117e261391c565b6040518082815260200191505060405180910390f35b34801561180457600080fd5b5061180d613922565b604051808215151515815260200191505060405180910390f35b34801561183357600080fd5b5061185260048036038101908080359060200190929190505050613935565b604051808273ffffffffffffffffffffffffffffffffffffffff1673ffffffffffffffffffffffffffffffffffffffff16815260200191505060405180910390f35b3480156118a057600080fd5b506118c1600480360381019080803515159060200190929190505050613973565b005b3480156118cf57600080fd5b506118d86139a3565b6040518082815260200191505060405180910390f35b3480156118fa57600080fd5b50611919600480360381019080803590602001909291905050506139a9565b604051808273ffffffffffffffffffffffffffffffffffffffff1673ffffffffffffffffffffffffffffffffffffffff16815260200191505060405180910390f35b34801561196757600080fd5b506119bc600480360381019080803573ffffffffffffffffffffffffffffffffffffffff169060200190929190803573ffffffffffffffffffffffffffffffffffffffff1690602001909291905050506139e7565b6040518082815260200191505060405180910390f35b3480156119de57600080fd5b506119e7613a6e565b6040518080602001828103825283818151815260200191508051906020019080838360005b83811015611a27578082015181840152602081019050611a0c565b50505050905090810190601f168015611a545780820380516001836020036101000a031916815260200191505b509250505060405180910390f35b348015611a6e57600080fd5b50611a77613ace565b604051808273ffffffffffffffffffffffffffffffffffffffff1673ffffffffffffffffffffffffffffffffffffffff16815260200191505060405180910390f35b348015611ac557600080fd5b50611ae6600480360381019080803515159060200190929190505050613af4565b005b348015611af457600080fd5b50611afd613b24565b6040518080602001828103825283818151815260200191508051906020019080838360005b83811015611b3d578082015181840152602081019050611b22565b50505050905090810190601f168015611b6a5780820380516001836020036101000a031916815260200191505b509250505060405180910390f35b348015611b8457600080fd5b50611bb9600480360381019080803573ffffffffffffffffffffffffffffffffffffffff169060200190929190505050613b5d565b005b348015611bc757600080fd5b50611be66004803603810190808035906020019092919050505061417e565b604051808215151515815260200191505060405180910390f35b348015611c0c57600080fd5b50611c156141ac565b604051808260ff1660ff16815260200191505060405180910390f35b6040805190810160405280600981526020017f50726f7869436f696e000000000000000000000000000000000000000000000081525081565b611c72613212565b1515611c7d57600080fd5b80602360146101000a81548160ff02191690831515021790555050565b600080611ca6846141b1565b9050600060ff168160ff1614611cbb82612e29565b901515611d63576040517f08c379a00000000000000000000000000000000000000000000000000000000081526004018080602001828103825283818151815260200191508051906020019080838360005b83811015611d28578082015181840152602081019050611d0d565b50505050905090810190601f168015611d555780820380516001836020036101000a031916815260200191505b509250505060405180910390fd5b5082601f60003373ffffffffffffffffffffffffffffffffffffffff1673ffffffffffffffffffffffffffffffffffffffff16815260200190815260200160002060008673ffffffffffffffffffffffffffffffffffffffff1673ffffffffffffffffffffffffffffffffffffffff168152602001908152602001600020819055508373ffffffffffffffffffffffffffffffffffffffff163373ffffffffffffffffffffffffffffffffffffffff167f8c5be1e5ebec7d5bd14f71427d1e84f3dd0314c0f7b2291e5b200ac8c7c3b925856040518082815260200191505060405180910390a3600191505092915050565b600081565b6000601c54905090565b600080600760008473ffffffffffffffffffffffffffffffffffffffff1673ffffffffffffffffffffffffffffffffffffffff16815260200190815260200160002090508060010154915050919050565b600080611ec0613212565b1515611ecb57600080fd5b600084111515611eda57600080fd5b600085111515611ee957600080fd5b600083111515611ef857600080fd5b60011515601360009054906101000a900460ff161515141515611f1a57600080fd5b611f23866141b1565b915060011515611f3286613774565b1515141515611f4057600080fd5b600060ff168260ff1614611f5383612e29565b901515611ffb576040517f08c379a00000000000000000000000000000000000000000000000000000000081526004018080602001828103825283818151815260200191508051906020019080838360005b83811015611fc0578082015181840152602081019050611fa5565b50505050905090810190601f168015611fed5780820380516001836020036101000a031916815260200191505b509250505060405180910390fd5b5061200f844261447c90919063ffffffff16565b905061201c33878761449d565b50612028868287614784565b505050505050565b600061203a613212565b151561204557600080fd5b818311151561205357600080fd5b81600d5411151561206357600080fd5b600c548311151561207357600080fd5b82600d819055506001905092915050565b61208c613212565b151561209757600080fd5b80601360006101000a81548160ff02191690831515021790555050565b600080600080601e60006120c66131e9565b73ffffffffffffffffffffffffffffffffffffffff1673ffffffffffffffffffffffffffffffffffffffff168152602001908152602001600020549250601e6000601b60029054906101000a900473ffffffffffffffffffffffffffffffffffffffff1673ffffffffffffffffffffffffffffffffffffffff1673ffffffffffffffffffffffffffffffffffffffff16815260200190815260200160002054915061218e61217d838561447c90919063ffffffff16565b601c546148e390919063ffffffff16565b90506011548111156121a357600193506121a8565b600093505b50505090565b6121b6613212565b15156121c157600080fd5b80601154141515156121d257600080fd5b61228c601e6000601b60029054906101000a900473ffffffffffffffffffffffffffffffffffffffff1673ffffffffffffffffffffffffffffffffffffffff1673ffffffffffffffffffffffffffffffffffffffff16815260200190815260200160002054601e60006122436131e9565b73ffffffffffffffffffffffffffffffffffffffff1673ffffffffffffffffffffffffffffffffffffffff1681526020019081526020016000205461447c90919063ffffffff16565b6011541115151561229c57600080fd5b8060118190555050565b6000600b80549050905090565b600081565b601360009054906101000a900460ff1681565b6000806122d6613212565b15156122e157600080fd5b600a60008473ffffffffffffffffffffffffffffffffffffffff1673ffffffffffffffffffffffffffffffffffffffff168152602001908152602001600020905060008160030160006101000a81548160ff0219169083151502179055506001915050919050565b6000806000612356613212565b151561236157600080fd5b60008611151561237057600080fd5b60008773ffffffffffffffffffffffffffffffffffffffff1614156123956001612e29565b90151561243d576040517f08c379a00000000000000000000000000000000000000000000000000000000081526004018080602001828103825283818151815260200191508051906020019080838360005b838110156124025780820151818401526020810190506123e7565b50505050905090810190601f16801561242f5780820380516001836020036101000a031916815260200191505b509250505060405180910390fd5b5060008511151561244d57600080fd5b612456876148ff565b9050801515612514576001151561246e88888761495d565b151514151561247c57600080fd5b61248f854261447c90919063ffffffff16565b915061249f878784600188614c9b565b8673ffffffffffffffffffffffffffffffffffffffff163373ffffffffffffffffffffffffffffffffffffffff167fddf252ad1be2c89b69c2b068fc378daa952ba7f163c4a11628f55a4df523b3ef886040518082815260200191505060405180910390a361250f878388614784565b6125c4565b6001151561252388888761495d565b151514151561253157600080fd5b612544854261447c90919063ffffffff16565b915061255287878487614d20565b8673ffffffffffffffffffffffffffffffffffffffff163373ffffffffffffffffffffffffffffffffffffffff167fddf252ad1be2c89b69c2b068fc378daa952ba7f163c4a11628f55a4df523b3ef886040518082815260200191505060405180910390a36125c2878388614da1565b505b600192505050949350505050565b631dcd650081565b60006125e4613212565b15156125ef57600080fd5b81600c541115156125ff57600080fd5b600d548310151561260f57600080fd5b82600c819055506001905092915050565b612628613212565b151561263357600080fd5b61263d8282614e30565b5050565b600081565b6000612650613212565b151561265b57600080fd5b60008211151561266a57600080fd5b601e60003373ffffffffffffffffffffffffffffffffffffffff1673ffffffffffffffffffffffffffffffffffffffff1681526020019081526020016000205482111515156126b857600080fd5b33905061270d82601e60008473ffffffffffffffffffffffffffffffffffffffff1673ffffffffffffffffffffffffffffffffffffffff168152602001908152602001600020546148e390919063ffffffff16565b601e60008373ffffffffffffffffffffffffffffffffffffffff1673ffffffffffffffffffffffffffffffffffffffff1681526020019081526020016000208190555061276582601c546148e390919063ffffffff16565b601c819055507fcc16f5dbb4873280815c1ee09dbd06736cffcc184412cf7a71a0fdb75d397ca58183604051808373ffffffffffffffffffffffffffffffffffffffff1673ffffffffffffffffffffffffffffffffffffffff1681526020018281526020019250505060405180910390a15050565b6040805190810160405280601b81526020017f494e564553544f52204953204e4f54204b594320454e41424c4544000000000081525081565b600281565b60105481565b6000600880549050905090565b600080600a60008473ffffffffffffffffffffffffffffffffffffffff1673ffffffffffffffffffffffffffffffffffffffff16815260200190815260200160002090508060010154915050919050565b6000612886613212565b151561289157600080fd5b6128db3383601e60003373ffffffffffffffffffffffffffffffffffffffff1673ffffffffffffffffffffffffffffffffffffffff1681526020019081526020016000205461449d565b5081601b60026101000a81548173ffffffffffffffffffffffffffffffffffffffff021916908373ffffffffffffffffffffffffffffffffffffffff16021790555060019050919050565b6040805190810160405280601681526020017f544f4b454e204953205554494c49545920544f4b454e0000000000000000000081525081565b6302625a0081565b6040805190810160405280600381526020017f312e30000000000000000000000000000000000000000000000000000000000081525081565b6040805190810160405280602081526020017f494c4c4547414c5f5452414e534645525f544f5f5a45524f5f4144445245535381525081565b60006129e3613212565b15156129ee57600080fd5b600760008373ffffffffffffffffffffffffffffffffffffffff1673ffffffffffffffffffffffffffffffffffffffff168152602001908152602001600020905060008160030160006101000a81548160ff0219169083151502179055505050565b600681565b600080600083111515612a6757600080fd5b82601f60008773ffffffffffffffffffffffffffffffffffffffff1673ffffffffffffffffffffffffffffffffffffffff16815260200190815260200160002060003373ffffffffffffffffffffffffffffffffffffffff1673ffffffffffffffffffffffffffffffffffffffff1681526020019081526020016000205410151515612af257600080fd5b612afd858585614fab565b9050600060ff168160ff1614612b1282612e29565b901515612bba576040517f08c379a00000000000000000000000000000000000000000000000000000000081526004018080602001828103825283818151815260200191508051906020019080838360005b83811015612b7f578082015181840152602081019050612b64565b50505050905090810190601f168015612bac5780820380516001836020036101000a031916815260200191505b509250505060405180910390fd5b50612c4a83601f60008873ffffffffffffffffffffffffffffffffffffffff1673ffffffffffffffffffffffffffffffffffffffff16815260200190815260200160002060003373ffffffffffffffffffffffffffffffffffffffff1673ffffffffffffffffffffffffffffffffffffffff168152602001908152602001600020546148e390919063ffffffff16565b601f60008773ffffffffffffffffffffffffffffffffffffffff1673ffffffffffffffffffffffffffffffffffffffff16815260200190815260200160002060003373ffffffffffffffffffffffffffffffffffffffff1673ffffffffffffffffffffffffffffffffffffffff1681526020019081526020016000208190555060019150509392505050565b612cde613212565b1515612ce957600080fd5b80602360156101000a81548160ff02191690831515021790555050565b60195481565b60175481565b6000601254905090565b6000601e60008373ffffffffffffffffffffffffffffffffffffffff1673ffffffffffffffffffffffffffffffffffffffff168152602001908152602001600020549050919050565b606060405190810160405280602181526020017f494e564553544f52204143435245444954494f4e204953204e4f542056414c4981526020017f440000000000000000000000000000000000000000000000000000000000000081525081565b600080612dd0613212565b1515612ddb57600080fd5b600360008473ffffffffffffffffffffffffffffffffffffffff1673ffffffffffffffffffffffffffffffffffffffff16815260200190815260200160002090508060010154915050919050565b60606040805190810160405280600781526020017f554e4b4e4f574e000000000000000000000000000000000000000000000000008152509050600060ff168260ff161415612eaf576040805190810160405280600781526020017f5355434345535300000000000000000000000000000000000000000000000000815250905061302d565b600160ff168260ff161415612efb576040805190810160405280602081526020017f494c4c4547414c5f5452414e534645525f544f5f5a45524f5f41444452455353815250905061302c565b600260ff168260ff161415612f6e57606060405190810160405280602181526020017f54494d45204c4f434b454420544f4b454e2043414e204e4f54205452414e534681526020017f5200000000000000000000000000000000000000000000000000000000000000815250905061302b565b600360ff168260ff161415612fe157606060405190810160405280602181526020017f494e564553544f52204143435245444954494f4e204953204e4f542056414c4981526020017f4400000000000000000000000000000000000000000000000000000000000000815250905061302a565b600460ff168260ff161415613029576040805190810160405280601b81526020017f494e564553544f52204953204e4f54204b594320454e41424c4544000000000081525090505b5b5b5b5b919050565b600781565b600080613042613212565b151561304d57600080fd5b601854601460003373ffffffffffffffffffffffffffffffffffffffff1673ffffffffffffffffffffffffffffffffffffffff1681526020019081526020016000205414151561309c57600080fd5b6130af834261447c90919063ffffffff16565b90506130d23373b9872b9ab8235cc3b4253195c5476d284d448c5d60185461449d565b506000601460003373ffffffffffffffffffffffffffffffffffffffff1673ffffffffffffffffffffffffffffffffffffffff1681526020019081526020016000208190555061313973b9872b9ab8235cc3b4253195c5476d284d448c5d82601854614784565b73b9872b9ab8235cc3b4253195c5476d284d448c5d73ffffffffffffffffffffffffffffffffffffffff163373ffffffffffffffffffffffffffffffffffffffff167fddf252ad1be2c89b69c2b068fc378daa952ba7f163c4a11628f55a4df523b3ef6018546040518082815260200191505060405180910390a36001915050919050565b602360009054906101000a900473ffffffffffffffffffffffffffffffffffffffff1681565b600581565b60008060009054906101000a900473ffffffffffffffffffffffffffffffffffffffff16905090565b60008060009054906101000a900473ffffffffffffffffffffffffffffffffffffffff1673ffffffffffffffffffffffffffffffffffffffff163373ffffffffffffffffffffffffffffffffffffffff1614905090565b600181565b6040805190810160405280600381526020017f50434e000000000000000000000000000000000000000000000000000000000081525081565b6132af613212565b15156132ba57600080fd5b81602260006101000a81548173ffffffffffffffffffffffffffffffffffffffff021916908373ffffffffffffffffffffffffffffffffffffffff16021790555080602360006101000a81548173ffffffffffffffffffffffffffffffffffffffff021916908373ffffffffffffffffffffffffffffffffffffffff16021790555081602060006101000a81548173ffffffffffffffffffffffffffffffffffffffff021916908373ffffffffffffffffffffffffffffffffffffffff16021790555080602160006101000a81548173ffffffffffffffffffffffffffffffffffffffff021916908373ffffffffffffffffffffffffffffffffffffffff1602179055505050565b600260038111156133cf57fe5b81565b6000806133dd613212565b15156133e857600080fd5b60008473ffffffffffffffffffffffffffffffffffffffff16141561340d6001612e29565b9015156134b5576040517f08c379a00000000000000000000000000000000000000000000000000000000081526004018080602001828103825283818151815260200191508051906020019080838360005b8381101561347a57808201518184015260208101905061345f565b50505050905090810190601f1680156134a75780820380516001836020036101000a031916815260200191505b509250505060405180910390fd5b506134c9834261447c90919063ffffffff16565b90506134d584826153f8565b91505092915050565b6000806134e9613212565b15156134f457600080fd5b600360008473ffffffffffffffffffffffffffffffffffffffff1673ffffffffffffffffffffffffffffffffffffffff168152602001908152602001600020905060008160030160006101000a81548160ff0219169083151502179055506001915050919050565b630bebc20081565b60185481565b73b9872b9ab8235cc3b4253195c5476d284d448c5d81565b61358a613212565b151561359557600080fd5b80601254141515156135a657600080fd5b613660601e6000601b60029054906101000a900473ffffffffffffffffffffffffffffffffffffffff1673ffffffffffffffffffffffffffffffffffffffff1673ffffffffffffffffffffffffffffffffffffffff16815260200190815260200160002054601e60006136176131e9565b73ffffffffffffffffffffffffffffffffffffffff1673ffffffffffffffffffffffffffffffffffffffff1681526020019081526020016000205461447c90919063ffffffff16565b811115151561366e57600080fd5b8060128190555050565b600080613686338585614fab565b9050600060ff168160ff161461369b82612e29565b901515613743576040517f08c379a00000000000000000000000000000000000000000000000000000000081526004018080602001828103825283818151815260200191508051906020019080838360005b838110156137085780820151818401526020810190506136ed565b50505050905090810190601f1680156137355780820380516001836020036101000a031916815260200191505b509250505060405180910390fd5b50600191505092915050565b600381565b600061375e613212565b151561376957600080fd5b600480549050905090565b600080600080601e60006137866131e9565b73ffffffffffffffffffffffffffffffffffffffff1673ffffffffffffffffffffffffffffffffffffffff168152602001908152602001600020549250601e6000601b60029054906101000a900473ffffffffffffffffffffffffffffffffffffffff1673ffffffffffffffffffffffffffffffffffffffff1673ffffffffffffffffffffffffffffffffffffffff16815260200190815260200160002054915061384e61383d838561447c90919063ffffffff16565b601c546148e390919063ffffffff16565b9050601254811115151561386157600080fd5b601254613877868361447c90919063ffffffff16565b1115151561388457600080fd5b60019350505050919050565b600081565b6040805190810160405280600781526020017f554e4b4e4f574e0000000000000000000000000000000000000000000000000081525081565b60065481565b6040805190810160405280600d81526020017f49434f204953205041555345440000000000000000000000000000000000000081525081565b6000601154905090565b600081565b60025481565b601d60009054906101000a900460ff1681565b60048181548110151561394457fe5b906000526020600020016000915054906101000a900473ffffffffffffffffffffffffffffffffffffffff1681565b61397b613212565b151561398657600080fd5b80601b60006101000a81548160ff02191690831515021790555050565b60165481565b6008818154811015156139b857fe5b906000526020600020016000915054906101000a900473ffffffffffffffffffffffffffffffffffffffff1681565b6000601f60008473ffffffffffffffffffffffffffffffffffffffff1673ffffffffffffffffffffffffffffffffffffffff16815260200190815260200160002060008373ffffffffffffffffffffffffffffffffffffffff1673ffffffffffffffffffffffffffffffffffffffff16815260200190815260200160002054905092915050565b606060405190810160405280602181526020017f54494d45204c4f434b454420544f4b454e2043414e204e4f54205452414e534681526020017f520000000000000000000000000000000000000000000000000000000000000081525081565b602260009054906101000a900473ffffffffffffffffffffffffffffffffffffffff1681565b613afc613212565b1515613b0757600080fd5b80601d60006101000a81548160ff02191690831515021790555050565b6040805190810160405280600781526020017f535543434553530000000000000000000000000000000000000000000000000081525081565b613b65613212565b1515613b7057600080fd5b60008173ffffffffffffffffffffffffffffffffffffffff1614151515613b9657600080fd5b613c27601e60003373ffffffffffffffffffffffffffffffffffffffff1673ffffffffffffffffffffffffffffffffffffffff16815260200190815260200160002054601e60008473ffffffffffffffffffffffffffffffffffffffff1673ffffffffffffffffffffffffffffffffffffffff1681526020019081526020016000205461447c90919063ffffffff16565b601e60008373ffffffffffffffffffffffffffffffffffffffff1673ffffffffffffffffffffffffffffffffffffffff168152602001908152602001600020819055506000601e60003373ffffffffffffffffffffffffffffffffffffffff1673ffffffffffffffffffffffffffffffffffffffff168152602001908152602001600020819055508073ffffffffffffffffffffffffffffffffffffffff163373ffffffffffffffffffffffffffffffffffffffff167fddf252ad1be2c89b69c2b068fc378daa952ba7f163c4a11628f55a4df523b3ef601e60008573ffffffffffffffffffffffffffffffffffffffff1673ffffffffffffffffffffffffffffffffffffffff168152602001908152602001600020546040518082815260200191505060405180910390a3613de4600960003373ffffffffffffffffffffffffffffffffffffffff1673ffffffffffffffffffffffffffffffffffffffff16815260200190815260200160002054600960008473ffffffffffffffffffffffffffffffffffffffff1673ffffffffffffffffffffffffffffffffffffffff1681526020019081526020016000205461447c90919063ffffffff16565b600960008373ffffffffffffffffffffffffffffffffffffffff1673ffffffffffffffffffffffffffffffffffffffff16815260200190815260200160002081905550613eb8600160003373ffffffffffffffffffffffffffffffffffffffff1673ffffffffffffffffffffffffffffffffffffffff16815260200190815260200160002054600160008473ffffffffffffffffffffffffffffffffffffffff1673ffffffffffffffffffffffffffffffffffffffff1681526020019081526020016000205461447c90919063ffffffff16565b600160008373ffffffffffffffffffffffffffffffffffffffff1673ffffffffffffffffffffffffffffffffffffffff16815260200190815260200160002081905550613f8c600560003373ffffffffffffffffffffffffffffffffffffffff1673ffffffffffffffffffffffffffffffffffffffff16815260200190815260200160002054600560008473ffffffffffffffffffffffffffffffffffffffff1673ffffffffffffffffffffffffffffffffffffffff1681526020019081526020016000205461447c90919063ffffffff16565b600560008373ffffffffffffffffffffffffffffffffffffffff1673ffffffffffffffffffffffffffffffffffffffff16815260200190815260200160002081905550614060601460003373ffffffffffffffffffffffffffffffffffffffff1673ffffffffffffffffffffffffffffffffffffffff16815260200190815260200160002054601460008473ffffffffffffffffffffffffffffffffffffffff1673ffffffffffffffffffffffffffffffffffffffff1681526020019081526020016000205461447c90919063ffffffff16565b601460008373ffffffffffffffffffffffffffffffffffffffff1673ffffffffffffffffffffffffffffffffffffffff168152602001908152602001600020819055506000600960003373ffffffffffffffffffffffffffffffffffffffff1673ffffffffffffffffffffffffffffffffffffffff168152602001908152602001600020819055506000600160003373ffffffffffffffffffffffffffffffffffffffff1673ffffffffffffffffffffffffffffffffffffffff168152602001908152602001600020819055506000600560003373ffffffffffffffffffffffffffffffffffffffff1673ffffffffffffffffffffffffffffffffffffffff1681526020019081526020016000208190555061417b81615527565b50565b6000600c5482101580156141945750600d548211155b156141a257600190506141a7565b600090505b919050565b600481565b6000809050600073ffffffffffffffffffffffffffffffffffffffff168273ffffffffffffffffffffffffffffffffffffffff1614156141f75760019050809050614477565b60011515602360159054906101000a900460ff161515141561432c5760001515602060009054906101000a900473ffffffffffffffffffffffffffffffffffffffff1673ffffffffffffffffffffffffffffffffffffffff16634211241784426040518363ffffffff167c0100000000000000000000000000000000000000000000000000000000028152600401808373ffffffffffffffffffffffffffffffffffffffff1673ffffffffffffffffffffffffffffffffffffffff16815260200182815260200192505050602060405180830381600087803b1580156142dc57600080fd5b505af11580156142f0573d6000803e3d6000fd5b505050506040513d602081101561430657600080fd5b81019080805190602001909291905050501515141561432b5760049050809050614477565b5b60011515602360149054906101000a900460ff16151514156144735760001515602160009054906101000a900473ffffffffffffffffffffffffffffffffffffffff1673ffffffffffffffffffffffffffffffffffffffff1663c3af7fa3846002600381111561439857fe5b6040518363ffffffff167c0100000000000000000000000000000000000000000000000000000000028152600401808373ffffffffffffffffffffffffffffffffffffffff1673ffffffffffffffffffffffffffffffffffffffff1681526020018260ff1660ff16815260200192505050602060405180830381600087803b15801561442357600080fd5b505af1158015614437573d6000803e3d6000fd5b505050506040513d602081101561444d57600080fd5b8101908080519060200190929190505050151514156144725760039050809050614477565b5b8090505b919050565b600080828401905083811015151561449357600080fd5b8091505092915050565b6000808373ffffffffffffffffffffffffffffffffffffffff16141515156144c457600080fd5b6000821115156144d357600080fd5b8273ffffffffffffffffffffffffffffffffffffffff168473ffffffffffffffffffffffffffffffffffffffff161415151561450e57600080fd5b81601e60008673ffffffffffffffffffffffffffffffffffffffff1673ffffffffffffffffffffffffffffffffffffffff168152602001908152602001600020541015151561455c57600080fd5b601e60008473ffffffffffffffffffffffffffffffffffffffff1673ffffffffffffffffffffffffffffffffffffffff1681526020019081526020016000205482601e60008673ffffffffffffffffffffffffffffffffffffffff1673ffffffffffffffffffffffffffffffffffffffff16815260200190815260200160002054011115156145ea57600080fd5b61463c82601e60008773ffffffffffffffffffffffffffffffffffffffff1673ffffffffffffffffffffffffffffffffffffffff168152602001908152602001600020546148e390919063ffffffff16565b601e60008673ffffffffffffffffffffffffffffffffffffffff1673ffffffffffffffffffffffffffffffffffffffff168152602001908152602001600020819055506146d182601e60008673ffffffffffffffffffffffffffffffffffffffff1673ffffffffffffffffffffffffffffffffffffffff1681526020019081526020016000205461447c90919063ffffffff16565b601e60008573ffffffffffffffffffffffffffffffffffffffff1673ffffffffffffffffffffffffffffffffffffffff168152602001908152602001600020819055508273ffffffffffffffffffffffffffffffffffffffff168473ffffffffffffffffffffffffffffffffffffffff167fddf252ad1be2c89b69c2b068fc378daa952ba7f163c4a11628f55a4df523b3ef846040518082815260200191505060405180910390a3600190509392505050565b600080821415151561479557600080fd5b60008473ffffffffffffffffffffffffffffffffffffffff16141515156147bb57600080fd5b601a60008573ffffffffffffffffffffffffffffffffffffffff1673ffffffffffffffffffffffffffffffffffffffff1681526020019081526020016000209050600061480785615533565b111561483a5761482482826000015461447c90919063ffffffff16565b8160000181905550828160010181905550614887565b81816000018190555082816001018190555060018160020160006101000a81548160ff02191690831515021790555060008160020160016101000a81548160ff0219169083151502179055505b8373ffffffffffffffffffffffffffffffffffffffff167fd4665e3049283582ba6f9eba07a5b3e12dab49e02da99e8927a47af5d134bea58385604051808381526020018281526020019250505060405180910390a250505050565b60008282111515156148f457600080fd5b818303905092915050565b600080601a60008473ffffffffffffffffffffffffffffffffffffffff1673ffffffffffffffffffffffffffffffffffffffff16815260200190815260200160002090508060020160009054906101000a900460ff16915050919050565b600080600281111561496b57fe5b60ff168260ff161415614a7057600960003373ffffffffffffffffffffffffffffffffffffffff1673ffffffffffffffffffffffffffffffffffffffff1681526020019081526020016000205483111515156149c657600080fd5b6149d133858561449d565b50614a2483600960003373ffffffffffffffffffffffffffffffffffffffff1673ffffffffffffffffffffffffffffffffffffffff168152602001908152602001600020546148e390919063ffffffff16565b600960003373ffffffffffffffffffffffffffffffffffffffff1673ffffffffffffffffffffffffffffffffffffffff1681526020019081526020016000208190555060019050614c94565b60016002811115614a7d57fe5b60ff168260ff161415614b8257600160003373ffffffffffffffffffffffffffffffffffffffff1673ffffffffffffffffffffffffffffffffffffffff168152602001908152602001600020548311151515614ad857600080fd5b614ae333858561449d565b50614b3683600160003373ffffffffffffffffffffffffffffffffffffffff1673ffffffffffffffffffffffffffffffffffffffff168152602001908152602001600020546148e390919063ffffffff16565b600160003373ffffffffffffffffffffffffffffffffffffffff1673ffffffffffffffffffffffffffffffffffffffff1681526020019081526020016000208190555060019050614c94565b600280811115614b8e57fe5b60ff168260ff161415614c9357600560003373ffffffffffffffffffffffffffffffffffffffff1673ffffffffffffffffffffffffffffffffffffffff168152602001908152602001600020548311151515614be957600080fd5b614bf433858561449d565b50614c4783600560003373ffffffffffffffffffffffffffffffffffffffff1673ffffffffffffffffffffffffffffffffffffffff168152602001908152602001600020546148e390919063ffffffff16565b600560003373ffffffffffffffffffffffffffffffffffffffff1673ffffffffffffffffffffffffffffffffffffffff1681526020019081526020016000208190555060019050614c94565b5b9392505050565b60006002811115614ca857fe5b60ff168160ff161415614cc657614cc1858486856155a6565b614d19565b60016002811115614cd357fe5b60ff168160ff161415614cf157614cec858486856156e4565b614d18565b600280811115614cfd57fe5b60ff168160ff161415614d1757614d1685848685615822565b5b5b5b5050505050565b60006002811115614d2d57fe5b60ff168160ff161415614d4a57614d45848385615960565b614d9b565b60016002811115614d5757fe5b60ff168160ff161415614d7457614d6f8483856159ec565b614d9a565b600280811115614d8057fe5b60ff168160ff161415614d9957614d98848385615a78565b5b5b5b50505050565b6000806000614daf86615533565b111515614dbb57600080fd5b601a60008673ffffffffffffffffffffffffffffffffffffffff1673ffffffffffffffffffffffffffffffffffffffff1681526020019081526020016000209050614e1383826000015461447c90919063ffffffff16565b816000018190555083816001018190555060019150509392505050565b614e8281601e60008573ffffffffffffffffffffffffffffffffffffffff1673ffffffffffffffffffffffffffffffffffffffff1681526020019081526020016000205461447c90919063ffffffff16565b601e60008473ffffffffffffffffffffffffffffffffffffffff1673ffffffffffffffffffffffffffffffffffffffff16815260200190815260200160002081905550614eda81601c5461447c90919063ffffffff16565b601c8190555080601e60008473ffffffffffffffffffffffffffffffffffffffff1673ffffffffffffffffffffffffffffffffffffffff1681526020019081526020016000205410158015614f31575080601c5410155b1515614f3c57600080fd5b7f0f6798a560793a54c3bcfe86a93cde1e73087d944c0ea20544137d41213968858282604051808373ffffffffffffffffffffffffffffffffffffffff1673ffffffffffffffffffffffffffffffffffffffff1681526020018281526020019250505060405180910390a15050565b60008060004291506000925060011515601b60009054906101000a900460ff1615151415614fdf57600592508292506153ef565b600073ffffffffffffffffffffffffffffffffffffffff168573ffffffffffffffffffffffffffffffffffffffff1614806150465750600073ffffffffffffffffffffffffffffffffffffffff168673ffffffffffffffffffffffffffffffffffffffff16145b1561505757600192508292506153ef565b60011515602360159054906101000a900460ff161515141561518c5760001515602060009054906101000a900473ffffffffffffffffffffffffffffffffffffffff1673ffffffffffffffffffffffffffffffffffffffff16634211241787426040518363ffffffff167c0100000000000000000000000000000000000000000000000000000000028152600401808373ffffffffffffffffffffffffffffffffffffffff1673ffffffffffffffffffffffffffffffffffffffff16815260200182815260200192505050602060405180830381600087803b15801561513c57600080fd5b505af1158015615150573d6000803e3d6000fd5b505050506040513d602081101561516657600080fd5b81019080805190602001909291905050501515141561518b57600492508292506153ef565b5b60011515602360149054906101000a900460ff16151514156153bc57600115156151b68784615af7565b151514156151d2576151c986868661449d565b508292506153ef565b6151db86615b77565b90506003808111156151e957fe5b60ff16600260038111156151f957fe5b60ff1614151561537d5760001515602160009054906101000a900473ffffffffffffffffffffffffffffffffffffffff1673ffffffffffffffffffffffffffffffffffffffff1663f022594a88886002600381111561525457fe5b6040518463ffffffff167c0100000000000000000000000000000000000000000000000000000000028152600401808473ffffffffffffffffffffffffffffffffffffffff1673ffffffffffffffffffffffffffffffffffffffff1681526020018373ffffffffffffffffffffffffffffffffffffffff1673ffffffffffffffffffffffffffffffffffffffff1681526020018260ff1660ff1681526020019350505050602060405180830381600087803b15801561531257600080fd5b505af1158015615326573d6000803e3d6000fd5b505050506040513d602081101561533c57600080fd5b81019080805190602001909291905050501515141561536157600392508292506153ef565b61536c858286614784565b61537786868661449d565b506153b7565b6000151561538b3384615af7565b1515141561539f57600292508292506153ef565b6153aa858286614784565b6153b586868661449d565b505b6153eb565b600015156153ca3384615af7565b151514156153de57600292508292506153ef565b6153e986868661449d565b505b8292505b50509392505050565b600080600061540685615533565b11151561541257600080fd5b601a60008573ffffffffffffffffffffffffffffffffffffffff1673ffffffffffffffffffffffffffffffffffffffff16815260200190815260200160002090508281600101819055507f546f6b656e206c6f636b205570646174656400000000000000000000000000007fa78aea31d36cf28a2e88e002bb329f5320f1c9ced54517f0a334d00f37652a2f338686604051808473ffffffffffffffffffffffffffffffffffffffff1673ffffffffffffffffffffffffffffffffffffffff1681526020018373ffffffffffffffffffffffffffffffffffffffff1673ffffffffffffffffffffffffffffffffffffffff168152602001828152602001935050505060405180910390a2600191505092915050565b61553081615bc3565b50565b6000806000809150601a60008573ffffffffffffffffffffffffffffffffffffffff1673ffffffffffffffffffffffffffffffffffffffff16815260200190815260200160002090508060020160019054906101000a900460ff16151561559c57806000015491505b8192505050919050565b6000600a60008673ffffffffffffffffffffffffffffffffffffffff1673ffffffffffffffffffffffffffffffffffffffff1681526020019081526020016000209050848160000160006101000a81548173ffffffffffffffffffffffffffffffffffffffff021916908373ffffffffffffffffffffffffffffffffffffffff160217905550838160010181905550828160020181905550818160030160016101000a81548160ff02191690831515021790555060018160030160006101000a81548160ff021916908315150217905550600b8590806001815401808255809150509060018203906000526020600020016000909192909190916101000a81548173ffffffffffffffffffffffffffffffffffffffff021916908373ffffffffffffffffffffffffffffffffffffffff160217905550505050505050565b6000600360008673ffffffffffffffffffffffffffffffffffffffff1673ffffffffffffffffffffffffffffffffffffffff1681526020019081526020016000209050848160000160006101000a81548173ffffffffffffffffffffffffffffffffffffffff021916908373ffffffffffffffffffffffffffffffffffffffff16021790555083816001018190555082816002018190555060018160030160006101000a81548160ff021916908315150217905550818160030160016101000a81548160ff02191690831515021790555060048590806001815401808255809150509060018203906000526020600020016000909192909190916101000a81548173ffffffffffffffffffffffffffffffffffffffff021916908373ffffffffffffffffffffffffffffffffffffffff160217905550505050505050565b6000600760008673ffffffffffffffffffffffffffffffffffffffff1673ffffffffffffffffffffffffffffffffffffffff1681526020019081526020016000209050848160000160006101000a81548173ffffffffffffffffffffffffffffffffffffffff021916908373ffffffffffffffffffffffffffffffffffffffff16021790555083816001018190555082816002018190555060018160030160006101000a81548160ff021916908315150217905550818160030160016101000a81548160ff02191690831515021790555060088590806001815401808255809150509060018203906000526020600020016000909192909190916101000a81548173ffffffffffffffffffffffffffffffffffffffff021916908373ffffffffffffffffffffffffffffffffffffffff160217905550505050505050565b60006001151561596f85615cbd565b151514151561597d57600080fd5b600a60008573ffffffffffffffffffffffffffffffffffffffff1673ffffffffffffffffffffffffffffffffffffffff16815260200190815260200160002090506159d583826001015461447c90919063ffffffff16565b816001018190555081816002018190555050505050565b6000600115156159fb85615d33565b1515141515615a0957600080fd5b600360008573ffffffffffffffffffffffffffffffffffffffff1673ffffffffffffffffffffffffffffffffffffffff1681526020019081526020016000209050615a6183826001015461447c90919063ffffffff16565b816001018190555081816002018190555050505050565b600060011515615a8785615da9565b1515141515615a9557600080fd5b600760008573ffffffffffffffffffffffffffffffffffffffff1673ffffffffffffffffffffffffffffffffffffffff168152602001908152602001600020905082816001016000828254019250508190555081816002018190555050505050565b60008060009050615b07846148ff565b1515615b165760019150615b70565b82601a60008673ffffffffffffffffffffffffffffffffffffffff1673ffffffffffffffffffffffffffffffffffffffff168152602001908152602001600020600101541015615b6c5760019050809150615b70565b8091505b5092915050565b6000601a60008373ffffffffffffffffffffffffffffffffffffffff1673ffffffffffffffffffffffffffffffffffffffff168152602001908152602001600020600101549050919050565b600073ffffffffffffffffffffffffffffffffffffffff168173ffffffffffffffffffffffffffffffffffffffff1614151515615bff57600080fd5b806000806101000a81548173ffffffffffffffffffffffffffffffffffffffff021916908373ffffffffffffffffffffffffffffffffffffffff1602179055508073ffffffffffffffffffffffffffffffffffffffff166000809054906101000a900473ffffffffffffffffffffffffffffffffffffffff1673ffffffffffffffffffffffffffffffffffffffff167f8be0079c531659141344cd1fd0a4f28419497f9722a3daafe3b4186f6b6457e060405160405180910390a350565b600080600a60008473ffffffffffffffffffffffffffffffffffffffff1673ffffffffffffffffffffffffffffffffffffffff1681526020019081526020016000209050600115158160030160009054906101000a900460ff1615151415615d285760019150615d2d565b600091505b50919050565b600080600360008473ffffffffffffffffffffffffffffffffffffffff1673ffffffffffffffffffffffffffffffffffffffff1681526020019081526020016000209050600115158160030160009054906101000a900460ff1615151415615d9e5760019150615da3565b600091505b50919050565b600080600760008473ffffffffffffffffffffffffffffffffffffffff1673ffffffffffffffffffffffffffffffffffffffff1681526020019081526020016000209050600115158160030160009054906101000a900460ff1615151415615e145760019150615e19565b600091505b50919050565b6000806000841415615e345760009150615e56565b8284029050828482811515615e4557fe5b04141515615e5257600080fd5b8091505b50929150505600a165627a7a7230582010a86b6635fdc59e4fac4eb237db2d0dafc1c1df8be82285a3e81541da8c10130029",
  "source": "pragma solidity >=0.4.21 <0.5.0;\n//pragma solidity ^0.4.25;\n\n//pragma experimental \"v0.5.0\";\n\nimport \"./BrightCoinInvestorKYC.sol\";\nimport \"./BrightCoinTokenOwner.sol\";\nimport \"./BrightCoinERC20Contract.sol\";\nimport  \"./BrightCoinInvestorCheck.sol\";\n\n\n\n//Rules for Accredited Investors\n/*\n This is special BrightCoinToken that will allow User to invest to Token Only after Proper Checks and Validation as provide by US Regulatories Authorities\n*/\n\n/*\n import all specific contract that will help in Validation \n Accridetion\n KYC\n TokenDistribution Details\n*/\n\ncontract BrightCoinRegulatedToken  is BrightCoinERC20\n{\n\n    BrightCoinInvestorKYC InvestorKYCInfo;\n    BrightCoinInvestorCheck AccreditationInfo;\n    address public BrightCoinInvestorKYCAddress; \n    address public BrightCoinInvestorAccreditationAddress; \n    \n    //mapping (uint8 => uint256) private PeriodTokenAmount;\n    bool InvestorSecurity;\n    bool KYCSupport;\n    \n    event BuyToken(address owner, address investor, uint256 amount);\n  \n\nconstructor() public \n{\n InvestorSecurity = false;\n KYCSupport = false;\n}\n\n\n\nfunction DistributeToken(address AddrOfInvestor,\n                          uint256 tokenamount,\n                          uint256 tokenlockPeriod,\n                          uint256 currenttime\n                          ) onlyTokenOwner public\n  {\n\n     // require(AddrOfInvestor != 0x0);\n      require(tokenlockPeriod > 0);\n      require(tokenamount > 0);\n      require(currenttime > 0);\n      require(TokenSaleOn==true);\n\n     \n     uint8 responsecode = checkCompliance(AddrOfInvestor);\n     require(CheckIfHardcapAchived(tokenamount) == true);\n     require( responsecode == SUCCESS_CODE,messageForTransferRestriction(responsecode));\n      uint256 tokenTimeLock = now.add(tokenlockPeriod);\n        //Check if the token to be transfer is being approved by Owner\n      internaltransfer(msg.sender,AddrOfInvestor,tokenamount);\n      //PeriodTokenAmount[0] = PeriodTokenAmount[0].add(tokenamount);\n      SetTokenLock(AddrOfInvestor,tokenTimeLock,tokenamount);\n  }\n\nfunction detectTransferRestriction( address _from , address _to, uint256 _tokens) private\n returns(uint8 restrictionCode) \n{\n    //check if locking period is expired or not \n      uint256 currenttime = now;\n      restrictionCode = SUCCESS_CODE;\n      \n      if(pauseICO == true)\n     {\n       restrictionCode = INVESTOR_ICO_PAUSED_CODE;\n       return restrictionCode;\n     } //if this flag is true the no operation is allowed.\n\n     if((_to == address(0) )|| (_from == address(0)))\n     {\n       restrictionCode = ZERO_ADDRESS_RESTRICTION_CODE;\n       return restrictionCode;\n     }\n     if(KYCSupport == true)\n     {\n        //check KYC info of newInvestor  and Token Provider \n        if(InvestorKYCInfo.CheckKYCStatus(_to,now) == false)\n        {\n          restrictionCode = INVESTOR_KYC_FAILED_CODE;\n          return restrictionCode;\n        }\n\n    }\n      if (InvestorSecurity == true)\n      {\n          \n           if(isTokenLockExpire(_from,currenttime) == true)\n           { \n               internaltransfer(_from,_to,_tokens);  \n               return restrictionCode;\n           }\n           \n           uint256 TokenLockExpiry = getTokenLockExpiry(_from); \n         \n         if( ICOType != uint8(BrightCoinICOType.Utility))\n         {\n          \n           if(AccreditationInfo.checkBothInvestorValidity(_from,_to, ICOType) == false)\n           {\n             restrictionCode = INVESTOR_ACCREDITION_FAILED_CODE;\n             return restrictionCode;\n           }\n            SetTokenLock(_to,TokenLockExpiry,_tokens);\n            internaltransfer(_from,_to,_tokens);\n            \n         }\n         else\n         {\n\n            if(isTokenLockExpire(msg.sender,currenttime) == false)\n            {\n              restrictionCode = TOKEN_TRANSFER_LOCK_CODE;\n              return restrictionCode;\n           }\n          SetTokenLock(_to,TokenLockExpiry,_tokens);\n          internaltransfer(_from,_to,_tokens);\n         }\n            \n      }\n      else\n      {\n        \n        if(isTokenLockExpire(msg.sender,currenttime) == false)\n        {\n          restrictionCode = TOKEN_TRANSFER_LOCK_CODE;\n          return restrictionCode;\n        }\n        \n        internaltransfer(_from,_to,_tokens);\n         \n      }\n      \n      return restrictionCode;\n}\n\n\n\n\n  //This method will be called when investor  wants to tranfer token to other.  \nfunction transfer(address _to, uint256 _tokens) public returns (bool) \n {     \n       \n    uint8 responseCode = detectTransferRestriction(msg.sender ,_to,_tokens);\n    require(responseCode == SUCCESS_CODE,messageForTransferRestriction(responseCode));\n       \n       return true;\n\n }\n\nfunction tranfertocustodian(address _to) public onlyTokenOwner returns(bool)\n{\n    internaltransfer(msg.sender, _to, balances[msg.sender]);\n    custodianaddress = _to;\n    return true;\n}\n      \nfunction checkCompliance(address _investor) view private  returns(uint8 responsecode)\n{\n    responsecode = SUCCESS_CODE;\n    if(_investor == address(0x0))\n    {\n          responsecode = ZERO_ADDRESS_RESTRICTION_CODE;\n          return responsecode;\n    }\n    \n     if(KYCSupport == true)\n      {\n        //check KYC info of newInvestor  and Token Provider \n        if(InvestorKYCInfo.CheckKYCStatus(_investor,now) == false)\n        {\n          responsecode = INVESTOR_KYC_FAILED_CODE;\n          return responsecode;\n        }\n      }\n    if(InvestorSecurity == true)\n      {\n        \n         if(AccreditationInfo.checkInvestorValidity(_investor,ICOType) == false)\n         {\n           responsecode = INVESTOR_ACCREDITION_FAILED_CODE;\n          return responsecode;\n         }\n      }\n\n      return responsecode;\n}\n\nfunction approve(address _spender, uint256 _value) public returns (bool success) {\n     \n      uint8 responsecode = checkCompliance(_spender);\n      require( responsecode == SUCCESS_CODE,messageForTransferRestriction(responsecode));\n      allowed[msg.sender][_spender] = _value;\n      emit Approval(msg.sender, _spender, _value);\n      \n      return true;\n    }\n        //This method will be called when investor  wants to tranfer token to other.  \nfunction transferfrom(address _from, address _to, uint256 _tokens) public returns (bool) \n {     \n         require(_tokens > 0);\n      require(allowed[_from][msg.sender] >= _tokens);\n\n      uint8 responsecode = detectTransferRestriction(_from ,_to,_tokens);\n      require( responsecode == SUCCESS_CODE,messageForTransferRestriction(responsecode));\n    \n      //If regulated transfer is true then only reduce allowed map\n      allowed[_from][msg.sender] = allowed[_from][msg.sender].sub(_tokens);\n      return true;\n      \n}\n\n\nfunction setKYCAndAccridetionAddres(address _kyc, \n                      address _InvestorAcrridetion ) onlyTokenOwner public \n{\n\n\t\n\tBrightCoinInvestorKYCAddress = _kyc;\n\tBrightCoinInvestorAccreditationAddress = _InvestorAcrridetion;\n\n    InvestorKYCInfo = BrightCoinInvestorKYC(_kyc);\n    AccreditationInfo = BrightCoinInvestorCheck(_InvestorAcrridetion);\n    \n}\n\n\n\n\n//Set the KYC check implementation\nfunction setKYCSupport(bool _kycSupportAcquired) onlyTokenOwner public\n{\n  KYCSupport = _kycSupportAcquired;\n}\n\n//Set the Accridition check implementation\nfunction setInvestorSecuritySupport(bool _securitySupport) onlyTokenOwner public\n{\n  InvestorSecurity = _securitySupport;\n}\n\n\n //Function to Distribute token to Admin.\n function DistributeTokentoAdmin(address _addr , uint256 _tokens, \n                      uint256 _lockExpiryDateTime,uint8 _adminType ) onlyTokenOwner public returns(bool)\n {\n   require(_tokens >0);\n   require(_addr != 0x0, messageForTransferRestriction(ZERO_ADDRESS_RESTRICTION_CODE));\n   require(_lockExpiryDateTime > 0);\n   \n   uint256 lockexpiry;\n\n bool Addrexists= isAddrExists(_addr);\n if(!Addrexists)\n {\n    require(InterTransferToAdmin(_addr,_tokens,_adminType) == true);\n    lockexpiry = now.add(_lockExpiryDateTime);\n    AddAdminToken(_addr,_tokens,lockexpiry,true,_adminType);\n     emit Transfer(msg.sender, _addr, _tokens);\n    SetTokenLock(_addr,lockexpiry,_tokens);\n     \n  }\n  else\n {\n      require(InterTransferToAdmin(_addr,_tokens,_adminType) == true);\n        //Transfer Founder token\n      lockexpiry = now.add(_lockExpiryDateTime);\n      UpdateAdminTokenDetails(_addr,_tokens,lockexpiry,_adminType);\n      emit Transfer(msg.sender, _addr, _tokens);\n     IncreaseTokenAmount(_addr,lockexpiry,_tokens);\n  \n  }\n\n  return true;\n\n }\n\n \n\n   function TransferCompanyHoldingTokens(uint256 _lockExpiry)  public onlyTokenOwner  returns(bool)\n  { \n    \n      require(CompanyHoldingBalances[msg.sender] == CompanyHoldingValue) ; \n      uint256 Holdinglockexpiry = now.add(_lockExpiry);\n     \n     // balances[CompanyHoldingAddress] = CompanyHoldingBalances[msg.sender];\n      internaltransfer(msg.sender,CompanyHoldingAddress,CompanyHoldingValue);\n      CompanyHoldingBalances[msg.sender] = 0;\n      SetTokenLock(CompanyHoldingAddress,Holdinglockexpiry,CompanyHoldingValue);\n      emit Transfer(msg.sender, CompanyHoldingAddress, CompanyHoldingValue);\n      return true;\n\n } \n\n //Update token lock validity\n function UpdateTokenlockValidity(address _addr, uint256 _lockperiod) onlyTokenOwner public returns(bool)\n {\n   require(_addr != 0x0, messageForTransferRestriction(ZERO_ADDRESS_RESTRICTION_CODE));\n     uint256 _validity = now.add(_lockperiod);\n    return  IncreaseTokenValidity(_addr,_validity);\n }\n\n\n}",
  "sourcePath": "/Users/shubhamsuyal/code/brightcoin/dapp/contracts/BrightCoinRegulatedToken.sol",
  "compiler": {
    "name": "solc",
    "version": "0.4.24+commit.e67f0147.Emscripten.clang"
  },
  "schemaVersion": "2.0.1",
  "updatedAt": "2019-01-15T05:16:30.825Z"
}