{
  "contractName": "BrightCoinTeamTokenDistribution",
  "abi": [
    {
      "constant": true,
      "inputs": [],
      "name": "owner",
      "outputs": [
        {
          "name": "",
          "type": "address"
        }
      ],
      "payable": false,
      "stateMutability": "view",
      "type": "function"
    },
    {
      "constant": true,
      "inputs": [],
      "name": "isOwner",
      "outputs": [
        {
          "name": "",
          "type": "bool"
        }
      ],
      "payable": false,
      "stateMutability": "view",
      "type": "function"
    },
    {
      "constant": true,
      "inputs": [],
      "name": "TotalAllocatedTeamToken",
      "outputs": [
        {
          "name": "",
          "type": "uint256"
        }
      ],
      "payable": false,
      "stateMutability": "view",
      "type": "function"
    },
    {
      "constant": true,
      "inputs": [
        {
          "name": "",
          "type": "uint256"
        }
      ],
      "name": "teamTokenDetailsAddr",
      "outputs": [
        {
          "name": "",
          "type": "address"
        }
      ],
      "payable": false,
      "stateMutability": "view",
      "type": "function"
    },
    {
      "inputs": [],
      "payable": false,
      "stateMutability": "nonpayable",
      "type": "constructor"
    },
    {
      "anonymous": false,
      "inputs": [
        {
          "indexed": true,
          "name": "previousOwner",
          "type": "address"
        }
      ],
      "name": "OwnershipRenounced",
      "type": "event"
    },
    {
      "anonymous": false,
      "inputs": [
        {
          "indexed": true,
          "name": "previousOwner",
          "type": "address"
        },
        {
          "indexed": true,
          "name": "newOwner",
          "type": "address"
        }
      ],
      "name": "OwnershipTransferred",
      "type": "event"
    },
    {
      "constant": false,
      "inputs": [
        {
          "name": "_newTeamAddr",
          "type": "address"
        }
      ],
      "name": "RemoveTeamFromFurtherInvestment",
      "outputs": [],
      "payable": false,
      "stateMutability": "nonpayable",
      "type": "function"
    },
    {
      "constant": true,
      "inputs": [],
      "name": "TotalTeamnvestor",
      "outputs": [
        {
          "name": "",
          "type": "uint256"
        }
      ],
      "payable": false,
      "stateMutability": "view",
      "type": "function"
    },
    {
      "constant": true,
      "inputs": [
        {
          "name": "_newTeamAddr",
          "type": "address"
        }
      ],
      "name": "CheckTeamTokenAmount",
      "outputs": [
        {
          "name": "",
          "type": "uint256"
        }
      ],
      "payable": false,
      "stateMutability": "view",
      "type": "function"
    }
  ],
  "bytecode": "0x608060405234801561001057600080fd5b50336000806101000a81548173ffffffffffffffffffffffffffffffffffffffff021916908373ffffffffffffffffffffffffffffffffffffffff160217905550610430806100606000396000f300608060405260043610610083576000357c0100000000000000000000000000000000000000000000000000000000900463ffffffff1680631e9e3f97146100885780634c3ed4e1146100df578063577ed9d21461010a5780638da5cb5b1461014d5780638f32d59b146101a4578063bc305852146101d3578063da04bb10146101fe575b600080fd5b34801561009457600080fd5b506100c9600480360381019080803573ffffffffffffffffffffffffffffffffffffffff16906020019092919050505061026b565b6040518082815260200191505060405180910390f35b3480156100eb57600080fd5b506100f46102bc565b6040518082815260200191505060405180910390f35b34801561011657600080fd5b5061014b600480360381019080803573ffffffffffffffffffffffffffffffffffffffff1690602001909291905050506102c9565b005b34801561015957600080fd5b50610162610340565b604051808273ffffffffffffffffffffffffffffffffffffffff1673ffffffffffffffffffffffffffffffffffffffff16815260200191505060405180910390f35b3480156101b057600080fd5b506101b9610369565b604051808215151515815260200191505060405180910390f35b3480156101df57600080fd5b506101e86103c0565b6040518082815260200191505060405180910390f35b34801561020a57600080fd5b50610229600480360381019080803590602001909291905050506103c6565b604051808273ffffffffffffffffffffffffffffffffffffffff1673ffffffffffffffffffffffffffffffffffffffff16815260200191505060405180910390f35b600080600360008473ffffffffffffffffffffffffffffffffffffffff1673ffffffffffffffffffffffffffffffffffffffff16815260200190815260200160002090508060010154915050919050565b6000600480549050905090565b60006102d3610369565b15156102de57600080fd5b600360008373ffffffffffffffffffffffffffffffffffffffff1673ffffffffffffffffffffffffffffffffffffffff168152602001908152602001600020905060008160030160006101000a81548160ff0219169083151502179055505050565b60008060009054906101000a900473ffffffffffffffffffffffffffffffffffffffff16905090565b60008060009054906101000a900473ffffffffffffffffffffffffffffffffffffffff1673ffffffffffffffffffffffffffffffffffffffff163373ffffffffffffffffffffffffffffffffffffffff1614905090565b60025481565b6004818154811015156103d557fe5b906000526020600020016000915054906101000a900473ffffffffffffffffffffffffffffffffffffffff16815600a165627a7a723058208b8b6181130633c0f584735c802493f4c8e3374736db678d1ba98c3afc63d0c00029",
  "source": "pragma solidity >=0.4.21 <0.5.0;\n//pragma solidity ^0.4.25;\n\nimport \"./BrightCoinTokenOwner.sol\";\n\ncontract BrightCoinTeamTokenDistribution  is BrightCoinTokenOwner\n{\n\n\n  mapping(address => uint256)TeamBalances;\nconstructor() public\n{\n \n}\n\n//Team Distribution  \n //There might be multiple entry to this\n uint256 public TotalAllocatedTeamToken;\n \n \n struct teamDistribution {\n        address addr;\n        uint256 tokenamount;\n        uint256 lockexpiry;\n        bool   teamActiveInvestor;  //To Ensure if team is still on\n        bool tokenlocked;\n    \n    }\n\n mapping(address => teamDistribution) teamDistributionDetails;\n address[] public teamTokenDetailsAddr;\n \n\n //Team Token Distribution  Starts\n\n//Addng Details to Team Token\n function AddTeam(address _newTeamAddr,uint256 _tokenamount,\n uint256 _lockexpirydate,\n bool _tokenLocked)  internal {\n     \n  teamDistribution storage teamDetails = teamDistributionDetails[_newTeamAddr];\n    teamDetails.addr = _newTeamAddr;\n    teamDetails.tokenamount = _tokenamount;\n    teamDetails.lockexpiry = _lockexpirydate;\n    teamDetails.teamActiveInvestor = true;\n    teamDetails.tokenlocked = _tokenLocked;\n    teamTokenDetailsAddr.push(_newTeamAddr);\n\n }\n\n function UpdateTeamTokenDetails(address _teamaddr,\n                            uint256 _tokenamount,\n                            uint256 _lockExpiryDateTime) internal\n {\n       //check if Team is Active\n       require(CheckIfTeamActive(_teamaddr) == true);\n      teamDistribution storage teamDetails = teamDistributionDetails[_teamaddr];\n \n      teamDetails.tokenamount += _tokenamount;\n      teamDetails.lockexpiry = _lockExpiryDateTime;\n  \n }\n\n function RemoveTeamFromFurtherInvestment(address _newTeamAddr) public onlyTokenOwner  \n {\n    teamDistribution storage teamDetails = teamDistributionDetails[_newTeamAddr];\n    teamDetails.teamActiveInvestor = false;\n\n }\n\n\n\n function TotalTeamnvestor() public view returns(uint256) \n {\n   return teamTokenDetailsAddr.length;\n  \n }\n\n//check if Team Removed \n function CheckIfTeamActive(address _teamAddr) view internal returns(bool)\n {\n\n  teamDistribution storage teamDetails = teamDistributionDetails[_teamAddr];\n\n  if(teamDetails.teamActiveInvestor == true)\n  {\n      return true;\n  }\n  return false;\n\n }\n\n //check Amount with Advisor\n function CheckTeamTokenAmount(address _newTeamAddr) view public returns(uint256)\n {\n\n  teamDistribution storage teamDetails = teamDistributionDetails[_newTeamAddr];\n        return teamDetails.tokenamount;\n\n }\n\n}",
  "sourcePath": "/Users/shubhamsuyal/code/brightcoin/dapp/contracts/BrightCoinTeamTokenDistribution.sol",
  "compiler": {
    "name": "solc",
    "version": "0.4.24+commit.e67f0147.Emscripten.clang"
  },
  "schemaVersion": "2.0.1",
  "updatedAt": "2019-01-15T05:16:30.817Z"
}