{
  "contractName": "BrightCoinAdvisorTokenDistribution",
  "abi": [
    {
      "constant": true,
      "inputs": [],
      "name": "owner",
      "outputs": [
        {
          "name": "",
          "type": "address"
        }
      ],
      "payable": false,
      "stateMutability": "view",
      "type": "function"
    },
    {
      "constant": true,
      "inputs": [],
      "name": "isOwner",
      "outputs": [
        {
          "name": "",
          "type": "bool"
        }
      ],
      "payable": false,
      "stateMutability": "view",
      "type": "function"
    },
    {
      "constant": true,
      "inputs": [],
      "name": "TotalAllocatedAdvisorToken",
      "outputs": [
        {
          "name": "",
          "type": "uint256"
        }
      ],
      "payable": false,
      "stateMutability": "view",
      "type": "function"
    },
    {
      "constant": true,
      "inputs": [
        {
          "name": "",
          "type": "uint256"
        }
      ],
      "name": "advisorDistributionAddr",
      "outputs": [
        {
          "name": "",
          "type": "address"
        }
      ],
      "payable": false,
      "stateMutability": "view",
      "type": "function"
    },
    {
      "inputs": [],
      "payable": false,
      "stateMutability": "nonpayable",
      "type": "constructor"
    },
    {
      "anonymous": false,
      "inputs": [
        {
          "indexed": true,
          "name": "previousOwner",
          "type": "address"
        }
      ],
      "name": "OwnershipRenounced",
      "type": "event"
    },
    {
      "anonymous": false,
      "inputs": [
        {
          "indexed": true,
          "name": "previousOwner",
          "type": "address"
        },
        {
          "indexed": true,
          "name": "newOwner",
          "type": "address"
        }
      ],
      "name": "OwnershipTransferred",
      "type": "event"
    },
    {
      "constant": false,
      "inputs": [
        {
          "name": "_newAdvisorAddr",
          "type": "address"
        }
      ],
      "name": "RemoveAdvisorFromFurtherInvestment",
      "outputs": [
        {
          "name": "",
          "type": "bool"
        }
      ],
      "payable": false,
      "stateMutability": "nonpayable",
      "type": "function"
    },
    {
      "constant": true,
      "inputs": [],
      "name": "TotalAdvisor",
      "outputs": [
        {
          "name": "",
          "type": "uint256"
        }
      ],
      "payable": false,
      "stateMutability": "view",
      "type": "function"
    },
    {
      "constant": true,
      "inputs": [
        {
          "name": "_newAdvisorAddr",
          "type": "address"
        }
      ],
      "name": "CheckAdvisorTokenAmount",
      "outputs": [
        {
          "name": "",
          "type": "uint256"
        }
      ],
      "payable": false,
      "stateMutability": "view",
      "type": "function"
    }
  ],
  "bytecode": "0x608060405234801561001057600080fd5b50336000806101000a81548173ffffffffffffffffffffffffffffffffffffffff021916908373ffffffffffffffffffffffffffffffffffffffff160217905550610475806100606000396000f300608060405260043610610083576000357c0100000000000000000000000000000000000000000000000000000000900463ffffffff1680637b758ef7146100885780638da5cb5b146100df5780638f32d59b146101365780639f7e3a7f14610165578063b03fd1ba146101c0578063cc15c0f0146101eb578063d62eb96014610216575b600080fd5b34801561009457600080fd5b506100c9600480360381019080803573ffffffffffffffffffffffffffffffffffffffff169060200190929190505050610283565b6040518082815260200191505060405180910390f35b3480156100eb57600080fd5b506100f46102e7565b604051808273ffffffffffffffffffffffffffffffffffffffff1673ffffffffffffffffffffffffffffffffffffffff16815260200191505060405180910390f35b34801561014257600080fd5b5061014b610310565b604051808215151515815260200191505060405180910390f35b34801561017157600080fd5b506101a6600480360381019080803573ffffffffffffffffffffffffffffffffffffffff169060200190929190505050610367565b604051808215151515815260200191505060405180910390f35b3480156101cc57600080fd5b506101d56103e5565b6040518082815260200191505060405180910390f35b3480156101f757600080fd5b50610200610405565b6040518082815260200191505060405180910390f35b34801561022257600080fd5b506102416004803603810190808035906020019092919050505061040b565b604051808273ffffffffffffffffffffffffffffffffffffffff1673ffffffffffffffffffffffffffffffffffffffff16815260200191505060405180910390f35b60008061028e610310565b151561029957600080fd5b600360008473ffffffffffffffffffffffffffffffffffffffff1673ffffffffffffffffffffffffffffffffffffffff16815260200190815260200160002090508060010154915050919050565b60008060009054906101000a900473ffffffffffffffffffffffffffffffffffffffff16905090565b60008060009054906101000a900473ffffffffffffffffffffffffffffffffffffffff1673ffffffffffffffffffffffffffffffffffffffff163373ffffffffffffffffffffffffffffffffffffffff1614905090565b600080610372610310565b151561037d57600080fd5b600360008473ffffffffffffffffffffffffffffffffffffffff1673ffffffffffffffffffffffffffffffffffffffff168152602001908152602001600020905060008160030160006101000a81548160ff0219169083151502179055506001915050919050565b60006103ef610310565b15156103fa57600080fd5b600480549050905090565b60025481565b60048181548110151561041a57fe5b906000526020600020016000915054906101000a900473ffffffffffffffffffffffffffffffffffffffff16815600a165627a7a723058205f0d63f3626e51d836e33bf9114ee03770259ef3044912559caa1f1badbde2210029",
  "source": "pragma solidity >=0.4.21 <0.5.0;\n\nimport \"./BrightCoinTokenOwner.sol\";\nimport \"./SafeMath.sol\";\n\ncontract BrightCoinAdvisorTokenDistribution  is BrightCoinTokenOwner\n{\n\n\nusing SafeMath for uint;\nmapping(address => uint256)AdvisorBalances;\n\n\nconstructor() public\n{\n\n}\n  //There might be multiple entry to this\n uint256 public TotalAllocatedAdvisorToken;\n \n \n struct advisorDistribution {\n        address addr;\n        uint256 tokenamount;\n        uint256 expiryDateTime;\n        bool   advisorpartofTeam;\n        bool  tokenlocked;\n    }\n mapping(address => advisorDistribution) advisorDistributionDetails;\n address[] public advisorDistributionAddr;\n \n \n //Advisor Starts\n//Adding New Advisor for Token Distribution\n function AddAdvisor(address _newAdvisor,uint256 _tokenamount,uint256 _lockexpiryTime,bool _tokenlocked)   internal\n  {\n    \n        advisorDistribution storage  advisorDetails = advisorDistributionDetails[_newAdvisor];\n\n       advisorDetails.addr = _newAdvisor;\n       advisorDetails.tokenamount = _tokenamount;\n       advisorDetails.expiryDateTime = _lockexpiryTime;\n       advisorDetails.advisorpartofTeam = true;\n       advisorDetails.tokenlocked   = _tokenlocked;\n\n       advisorDistributionAddr.push(_newAdvisor);\n \n }\n\nfunction UpdateAdvisorTokenDetails (address _newAdvisor,uint256 _tokenamount,\n  uint256 _lockExpiryDateTime) internal\n{\n require(CheckIfAdvisorActive(_newAdvisor) == true);\n  advisorDistribution storage  advisorDetails = advisorDistributionDetails[_newAdvisor];\n                  \n   //Add new Token amount and Set new locking Period\n   advisorDetails.tokenamount  = advisorDetails.tokenamount.add(_tokenamount);\n   advisorDetails.expiryDateTime = _lockExpiryDateTime;\n\n        \n}\n\n //Remove Advisor For Further Investment and from the Team\n function RemoveAdvisorFromFurtherInvestment(address _newAdvisorAddr) public onlyTokenOwner  returns(bool)\n {\n    advisorDistribution storage newAdvisorDetails = advisorDistributionDetails[_newAdvisorAddr];\n    newAdvisorDetails.advisorpartofTeam = false;\n    return true;\n }\n\n //Ends\n\n\n //check if Advisor Removed \n function CheckIfAdvisorActive(address _newAdvisorAddr) view internal returns(bool)\n {\n\n  advisorDistribution storage advisorDetails = advisorDistributionDetails[_newAdvisorAddr];\n  if(advisorDetails.advisorpartofTeam == true)\n  {\n      return true;\n  }\n  return false;\n\n }\n\n//Count total no of Advisors\n function TotalAdvisor() public onlyTokenOwner  view returns(uint256) \n {\n   return advisorDistributionAddr.length;\n }\n\n\n //check Amount with Advisor\n function CheckAdvisorTokenAmount(address _newAdvisorAddr) public onlyTokenOwner  view returns(uint256)\n {\n\n  advisorDistribution storage advisorDetails = advisorDistributionDetails[_newAdvisorAddr];\n  return advisorDetails.tokenamount ;\n\n }\n\n }\n",
  "sourcePath": "/Users/shubhamsuyal/code/brightcoin/dapp/contracts/BrightCoinAdvisorTokenDistribution.sol",
  "compiler": {
    "name": "solc",
    "version": "0.4.24+commit.e67f0147.Emscripten.clang"
  },
  "schemaVersion": "2.0.1",
  "updatedAt": "2019-01-15T05:16:30.776Z"
}