{
  "contractName": "BrightCoinInvestorTokenLock",
  "abi": [
    {
      "constant": true,
      "inputs": [],
      "name": "owner",
      "outputs": [
        {
          "name": "",
          "type": "address"
        }
      ],
      "payable": false,
      "stateMutability": "view",
      "type": "function"
    },
    {
      "constant": true,
      "inputs": [],
      "name": "isOwner",
      "outputs": [
        {
          "name": "",
          "type": "bool"
        }
      ],
      "payable": false,
      "stateMutability": "view",
      "type": "function"
    },
    {
      "inputs": [],
      "payable": false,
      "stateMutability": "nonpayable",
      "type": "constructor"
    },
    {
      "anonymous": false,
      "inputs": [
        {
          "indexed": true,
          "name": "_of",
          "type": "address"
        },
        {
          "indexed": false,
          "name": "_amount",
          "type": "uint256"
        },
        {
          "indexed": false,
          "name": "_validity",
          "type": "uint256"
        }
      ],
      "name": "Locked",
      "type": "event"
    },
    {
      "anonymous": false,
      "inputs": [
        {
          "indexed": false,
          "name": "sender",
          "type": "address"
        },
        {
          "indexed": false,
          "name": "investor",
          "type": "address"
        },
        {
          "indexed": false,
          "name": "_validity",
          "type": "uint256"
        },
        {
          "indexed": true,
          "name": "_reason",
          "type": "bytes32"
        }
      ],
      "name": "LockUpdated",
      "type": "event"
    },
    {
      "anonymous": false,
      "inputs": [
        {
          "indexed": true,
          "name": "_of",
          "type": "address"
        },
        {
          "indexed": true,
          "name": "_reason",
          "type": "bytes32"
        },
        {
          "indexed": false,
          "name": "_amount",
          "type": "uint256"
        }
      ],
      "name": "Unlocked",
      "type": "event"
    },
    {
      "anonymous": false,
      "inputs": [
        {
          "indexed": true,
          "name": "previousOwner",
          "type": "address"
        }
      ],
      "name": "OwnershipRenounced",
      "type": "event"
    },
    {
      "anonymous": false,
      "inputs": [
        {
          "indexed": true,
          "name": "previousOwner",
          "type": "address"
        },
        {
          "indexed": true,
          "name": "newOwner",
          "type": "address"
        }
      ],
      "name": "OwnershipTransferred",
      "type": "event"
    }
  ],
  "bytecode": "0x608060405234801561001057600080fd5b50336000806101000a81548173ffffffffffffffffffffffffffffffffffffffff021916908373ffffffffffffffffffffffffffffffffffffffff160217905550610183806100606000396000f30060806040526004361061004c576000357c0100000000000000000000000000000000000000000000000000000000900463ffffffff1680638da5cb5b146100515780638f32d59b146100a8575b600080fd5b34801561005d57600080fd5b506100666100d7565b604051808273ffffffffffffffffffffffffffffffffffffffff1673ffffffffffffffffffffffffffffffffffffffff16815260200191505060405180910390f35b3480156100b457600080fd5b506100bd610100565b604051808215151515815260200191505060405180910390f35b60008060009054906101000a900473ffffffffffffffffffffffffffffffffffffffff16905090565b60008060009054906101000a900473ffffffffffffffffffffffffffffffffffffffff1673ffffffffffffffffffffffffffffffffffffffff163373ffffffffffffffffffffffffffffffffffffffff16149050905600a165627a7a72305820450f353b1751f54c4aff12fbb87cd28ee34aa4b8a4b23e1d8c4222d740e9dd7d0029",
  "source": "pragma solidity >=0.4.21 <0.5.0;\n//pragma solidity ^0.4.25;\n\nimport \"./SafeMath.sol\";\nimport \"./BrightCoinTokenOwner.sol\";\n\n\n\ncontract BrightCoinInvestorTokenLock is  BrightCoinTokenOwner\n{\n\n /**\n    * @dev Error messages for require statements\n    */\n   // string internal constant ALREADY_LOCKED = 'Tokens already locked';\n   // string internal constant NOT_LOCKED = 'No tokens locked';\n    //string internal constant AMOUNT_ZERO = 'Amount can not be 0';\n\nenum BrightCoinLockType { Investor, Admin,Bounty }\n      using SafeMath for uint;\n\n    /**\n     * @dev locked token structure\n     */\n    struct lockToken {\n        uint256 amount;\n        uint256 validity;\n        bool exists;\n        bool claimed;\n \n    }\n\n    /**\n     * @dev Holds number & validity of tokens locked for a given reason for\n     *      a specified address\n     */\n\n    mapping(address => lockToken)  locktokenDetails;\n\n    /**\n     * @dev Records data of all the tokens Locked\n     */\n    event Locked(\n        address indexed _of,\n        uint256 _amount,\n        uint256 _validity\n    );\n\n    event LockUpdated(\n        address sender,\n        address investor,\n        uint256 _validity,\n        bytes32 indexed _reason\n    );\n\n    /**\n     * @dev Records data of all the tokens unlocked\n     */\n    event Unlocked(\n        address indexed _of,\n        bytes32 indexed _reason,\n        uint256 _amount\n    );\n\n\n   constructor() public \n   {\n\t\n   }\n\n    function tokensLocked(address _of)\n        internal\n        view\n        returns (uint256 amount)\n    {\n        uint256 am = 0;\n        lockToken storage AddrStruct =  locktokenDetails[_of];\n        if (!AddrStruct.claimed)\n            am = AddrStruct.amount;\n      \n            return am;\n    }\n    \n    function isTokenLockExpire(address _of, uint256 _time)  view internal  returns(bool)\n    {\n        bool retVal = false;\n    \n        if(!isAddrExists(_of))\n            return true;\n            \n       if(locktokenDetails[_of].validity < _time)\n       {\n          //emit Unlocked(_of, \"Token lock expired\",locktokenDetails[_of].amount);\n          return retVal = true;\n       }\n      \n            return retVal;\n    }\n\n    function getTokenLockExpiry(address _of)  view internal returns(uint256 )\n    {\n       return  locktokenDetails[_of].validity;\n    }\n\n\n    function isAddrExists(address _addr) view internal returns(bool)\n    {\n        \n       lockToken storage lockBounty = locktokenDetails[_addr];\n          return lockBounty.exists;\n       \n           \n    }\n    \n     function SetTokenLock(address _of, uint256 _time, \n         uint256 _amount)  internal   \n          {\n              \n               //uint256 validUntil = now.add(_time); //solhint-disable-line\n\n                 require(_amount != 0);\n                 require(_of != 0x0);\n\n                 lockToken storage AddrStruct =  locktokenDetails[_of];\n                 if(tokensLocked(_of) > 0)\n                 {\n                      \n                        AddrStruct.amount = (AddrStruct.amount).add(_amount);\n                        AddrStruct.validity = _time;\n                 }\n                 else\n                 {\n        \n                        AddrStruct.amount = _amount;\n                        AddrStruct.validity = _time;\n                        AddrStruct.exists = true;\n                        AddrStruct.claimed = false;\n                 }\n\n\n               emit Locked(_of,_amount,_time);\n\n          }\n\n    function IncreaseTokenAmount(address _addr, uint256 _validity,uint256 _amount)\n         internal \n        returns (bool)\n    {\n       \n        require(tokensLocked(_addr) > 0);\n         lockToken storage AddrStruct =  locktokenDetails[_addr];\n        AddrStruct.amount = (AddrStruct.amount).add(_amount);\n        AddrStruct.validity = _validity;\n       \n       // emit Locked(msg.sender, _reason, locked[msg.sender][_reason].amount, locked[msg.sender][_reason].validity);\n        return true;\n        \n    }\n\n    //Increase token lock validity\n    function IncreaseTokenValidity(address _addr, uint256 _validity)\n         internal \n        returns (bool)\n    {\n       \n        require(tokensLocked(_addr) > 0); //The token must be there always\n         lockToken storage AddrStruct =  locktokenDetails[_addr];\n        AddrStruct.validity = _validity;\n        emit LockUpdated(msg.sender, _addr, _validity, \"Token lock Updated\");\n        return true;\n        \n    }\n\n\n\n}\n\n",
  "sourcePath": "/Users/shubhamsuyal/code/brightcoin/dapp/contracts/BrightCoinInvestorTokenLock.sol",
  "compiler": {
    "name": "solc",
    "version": "0.4.24+commit.e67f0147.Emscripten.clang"
  },
  "schemaVersion": "2.0.1",
  "updatedAt": "2019-01-15T05:16:30.812Z"
}