{
  "contractName": "BrightCoinAccreditionInvestor",
  "abi": [
    {
      "constant": true,
      "inputs": [
        {
          "name": "",
          "type": "uint256"
        }
      ],
      "name": "accreditedInvestors",
      "outputs": [
        {
          "name": "",
          "type": "address"
        }
      ],
      "payable": false,
      "stateMutability": "view",
      "type": "function"
    },
    {
      "constant": true,
      "inputs": [],
      "name": "owner",
      "outputs": [
        {
          "name": "",
          "type": "address"
        }
      ],
      "payable": false,
      "stateMutability": "view",
      "type": "function"
    },
    {
      "constant": true,
      "inputs": [],
      "name": "isOwner",
      "outputs": [
        {
          "name": "",
          "type": "bool"
        }
      ],
      "payable": false,
      "stateMutability": "view",
      "type": "function"
    },
    {
      "inputs": [],
      "payable": false,
      "stateMutability": "nonpayable",
      "type": "constructor"
    },
    {
      "anonymous": false,
      "inputs": [
        {
          "indexed": true,
          "name": "previousOwner",
          "type": "address"
        }
      ],
      "name": "OwnershipRenounced",
      "type": "event"
    },
    {
      "anonymous": false,
      "inputs": [
        {
          "indexed": true,
          "name": "previousOwner",
          "type": "address"
        },
        {
          "indexed": true,
          "name": "newOwner",
          "type": "address"
        }
      ],
      "name": "OwnershipTransferred",
      "type": "event"
    },
    {
      "constant": false,
      "inputs": [
        {
          "name": "_investoraddr",
          "type": "address"
        },
        {
          "name": "_accreditionStatus",
          "type": "bool"
        },
        {
          "name": "_accreditionExpiryDateTime",
          "type": "uint256"
        },
        {
          "name": "_investorGeoLocation",
          "type": "uint256"
        },
        {
          "name": "_ipfsHashRegDInvestor",
          "type": "string"
        }
      ],
      "name": "AddInvestorAccreditionDetails",
      "outputs": [],
      "payable": false,
      "stateMutability": "nonpayable",
      "type": "function"
    },
    {
      "constant": false,
      "inputs": [
        {
          "name": "_addr",
          "type": "address"
        }
      ],
      "name": "RemoveAccreditedInvestor",
      "outputs": [
        {
          "name": "",
          "type": "bool"
        }
      ],
      "payable": false,
      "stateMutability": "nonpayable",
      "type": "function"
    },
    {
      "constant": true,
      "inputs": [
        {
          "name": "_accreditedInvestoraddr",
          "type": "address"
        }
      ],
      "name": "GetGeoLocationAccreditedInvestor",
      "outputs": [
        {
          "name": "",
          "type": "uint256"
        }
      ],
      "payable": false,
      "stateMutability": "view",
      "type": "function"
    },
    {
      "constant": false,
      "inputs": [
        {
          "name": "_investorAddress",
          "type": "address"
        },
        {
          "name": "_status",
          "type": "bool"
        }
      ],
      "name": "SetAccreditionStatus",
      "outputs": [],
      "payable": false,
      "stateMutability": "nonpayable",
      "type": "function"
    },
    {
      "constant": true,
      "inputs": [
        {
          "name": "_accreditedInvestoraddr",
          "type": "address"
        }
      ],
      "name": "CheckAccreditionStatus",
      "outputs": [
        {
          "name": "",
          "type": "bool"
        }
      ],
      "payable": false,
      "stateMutability": "view",
      "type": "function"
    },
    {
      "constant": false,
      "inputs": [
        {
          "name": "_accreditedInvestoraddr",
          "type": "address"
        },
        {
          "name": "_expiryDateTime",
          "type": "uint256"
        }
      ],
      "name": "SetAccreditionExpiryDateTime",
      "outputs": [],
      "payable": false,
      "stateMutability": "nonpayable",
      "type": "function"
    }
  ],
  "bytecode": "0x608060405234801561001057600080fd5b50336000806101000a81548173ffffffffffffffffffffffffffffffffffffffff021916908373ffffffffffffffffffffffffffffffffffffffff160217905550610bcb806100606000396000f300608060405260043610610099576000357c0100000000000000000000000000000000000000000000000000000000900463ffffffff16806319fd7e891461009e5780632bf207da14610147578063433c7ee4146101b45780635c6c4fad1461020b5780635e9ea6dd146102665780638da5cb5b146102b55780638f32d59b1461030c578063a6f556b61461033b578063aa7ced7714610388575b600080fd5b3480156100aa57600080fd5b50610145600480360381019080803573ffffffffffffffffffffffffffffffffffffffff1690602001909291908035151590602001909291908035906020019092919080359060200190929190803590602001908201803590602001908080601f01602080910402602001604051908101604052809392919081815260200183838082843782019150505050505091929192905050506103e3565b005b34801561015357600080fd5b5061017260048036038101908080359060200190929190505050610584565b604051808273ffffffffffffffffffffffffffffffffffffffff1673ffffffffffffffffffffffffffffffffffffffff16815260200191505060405180910390f35b3480156101c057600080fd5b506101f5600480360381019080803573ffffffffffffffffffffffffffffffffffffffff1690602001909291905050506105c2565b6040518082815260200191505060405180910390f35b34801561021757600080fd5b5061024c600480360381019080803573ffffffffffffffffffffffffffffffffffffffff16906020019092919050505061063d565b604051808215151515815260200191505060405180910390f35b34801561027257600080fd5b506102b3600480360381019080803573ffffffffffffffffffffffffffffffffffffffff16906020019092919080351515906020019092919050505061069b565b005b3480156102c157600080fd5b506102ca6107c4565b604051808273ffffffffffffffffffffffffffffffffffffffff1673ffffffffffffffffffffffffffffffffffffffff16815260200191505060405180910390f35b34801561031857600080fd5b506103216107ed565b604051808215151515815260200191505060405180910390f35b34801561034757600080fd5b50610386600480360381019080803573ffffffffffffffffffffffffffffffffffffffff16906020019092919080359060200190929190505050610844565b005b34801561039457600080fd5b506103c9600480360381019080803573ffffffffffffffffffffffffffffffffffffffff16906020019092919050505061095a565b604051808215151515815260200191505060405180910390f35b60006103ed6107ed565b15156103f857600080fd5b60008673ffffffffffffffffffffffffffffffffffffffff161415151561041e57600080fd5b60008411151561042d57600080fd5b600160008773ffffffffffffffffffffffffffffffffffffffff1673ffffffffffffffffffffffffffffffffffffffff1681526020019081526020016000209050858160000160006101000a81548173ffffffffffffffffffffffffffffffffffffffff021916908373ffffffffffffffffffffffffffffffffffffffff160217905550848160000160146101000a81548160ff021916908315150217905550838160010181905550828160020181905550818160030190805190602001906104f7929190610ab2565b5060018160040160006101000a81548160ff021916908360ff16021790555060028690806001815401808255809150509060018203906000526020600020016000909192909190916101000a81548173ffffffffffffffffffffffffffffffffffffffff021916908373ffffffffffffffffffffffffffffffffffffffff16021790555050505050505050565b60028181548110151561059357fe5b906000526020600020016000915054906101000a900473ffffffffffffffffffffffffffffffffffffffff1681565b600080600160008473ffffffffffffffffffffffffffffffffffffffff1673ffffffffffffffffffffffffffffffffffffffff168152602001908152602001600020905060018160040160009054906101000a900460ff1660ff1614151561062f57620f423f9150610637565b806002015491505b50919050565b600080600160008473ffffffffffffffffffffffffffffffffffffffff1673ffffffffffffffffffffffffffffffffffffffff16815260200190815260200160002090508060000160149054906101000a900460ff16915050919050565b60006106a56107ed565b15156106b057600080fd5b60008373ffffffffffffffffffffffffffffffffffffffff16141515156106d657600080fd5b600160008473ffffffffffffffffffffffffffffffffffffffff1673ffffffffffffffffffffffffffffffffffffffff168152602001908152602001600020905060018160040160009054906101000a900460ff1660ff161415156107a3576040517f08c379a000000000000000000000000000000000000000000000000000000000815260040180806020018281038252601e8152602001807f496e766573746f72206e6f7420616464656420696e20746865206c697374000081525060200191505060405180910390fd5b818160000160146101000a81548160ff021916908315150217905550505050565b60008060009054906101000a900473ffffffffffffffffffffffffffffffffffffffff16905090565b60008060009054906101000a900473ffffffffffffffffffffffffffffffffffffffff1673ffffffffffffffffffffffffffffffffffffffff163373ffffffffffffffffffffffffffffffffffffffff1614905090565b600061084e6107ed565b151561085957600080fd5b60008373ffffffffffffffffffffffffffffffffffffffff161415151561087f57600080fd5b600160008473ffffffffffffffffffffffffffffffffffffffff1673ffffffffffffffffffffffffffffffffffffffff168152602001908152602001600020905060018160040160009054906101000a900460ff1660ff1614151561094c576040517f08c379a000000000000000000000000000000000000000000000000000000000815260040180806020018281038252601e8152602001807f496e766573746f72206e6f7420616464656420696e20746865206c697374000081525060200191505060405180910390fd5b818160010181905550505050565b6000806109656107ed565b151561097057600080fd5b600160008473ffffffffffffffffffffffffffffffffffffffff1673ffffffffffffffffffffffffffffffffffffffff168152602001908152602001600020905060018160040160009054906101000a900460ff1660ff16141515610a3d576040517f08c379a000000000000000000000000000000000000000000000000000000000815260040180806020018281038252601e8152602001807f496e766573746f72206e6f7420616464656420696e20746865206c697374000081525060200191505060405180910390fd5b8060000160006101000a81549073ffffffffffffffffffffffffffffffffffffffff02191690558060000160146101000a81549060ff021916905580600101600090558060020160009055806003016000610a989190610b32565b8060040160006101000a81549060ff021916905550919050565b828054600181600116156101000203166002900490600052602060002090601f016020900481019282601f10610af357805160ff1916838001178555610b21565b82800160010185558215610b21579182015b82811115610b20578251825591602001919060010190610b05565b5b509050610b2e9190610b7a565b5090565b50805460018160011615610100020316600290046000825580601f10610b585750610b77565b601f016020900490600052602060002090810190610b769190610b7a565b5b50565b610b9c91905b80821115610b98576000816000905550600101610b80565b5090565b905600a165627a7a72305820e505614fded5ee2acae63a0ed853425c8b370f3095b4fbcfd426b08cd18f9ee90029",
  "source": "/*\nReg D - \nFor USA citizens only. \nThese are for sale to accredited investors only .\nThere is a 1 year lockin period. \nThe only exception is that one accredited investor can sell to another accredited investor.\n*/\n\npragma solidity >=0.4.21 <0.5.0;\n\nimport \"./BrightCoinTokenOwner.sol\";\nimport \"./SafeMath.sol\";\n\ncontract  BrightCoinAccreditionInvestor is BrightCoinTokenOwner\n{\n\nusing SafeMath for uint;\nuint256  private constant defaultgeolation = 999999; //max count\n\nconstructor() public\n{\n  \n}\n\nstruct accreditedInvestor\n{\n    address investor;\n    bool    accreditionStatus;\n    uint256 accreditionExpiryDateTime;\n    uint256 investorGeoLocation;  //Must be USA Citizen Only in Case of RegDRegS Investment\n    string ipfsHashRegDInvestor; //It must contains the details of Investor\n    uint8    detailadded;\n       \n}\n\n     mapping(address => accreditedInvestor) accreditedInvestorDetails;\n     address[] public accreditedInvestors;\n\n     /* Function to Add Investor details*/\n     function  AddInvestorAccreditionDetails(address _investoraddr,\n                                            bool _accreditionStatus,\n                                            uint256 _accreditionExpiryDateTime,\n                                            uint256 _investorGeoLocation, \n                                            string _ipfsHashRegDInvestor )\n                                            public onlyTokenOwner \n      {\n      \n      require(_investoraddr != 0x0);\n      require(_accreditionExpiryDateTime > 0);\n\n       accreditedInvestor storage investment = accreditedInvestorDetails[_investoraddr];\n\n       investment.investor = _investoraddr;\n       investment.accreditionStatus = _accreditionStatus;\n       investment.accreditionExpiryDateTime = _accreditionExpiryDateTime;\n       investment.investorGeoLocation = _investorGeoLocation;\n       investment.ipfsHashRegDInvestor = _ipfsHashRegDInvestor;\n       investment.detailadded = 1;\n       accreditedInvestors.push(_investoraddr);\n}\n\nfunction RemoveAccreditedInvestor(address _addr) public onlyTokenOwner  returns(bool)\n{\n    accreditedInvestor storage structAccredited =  accreditedInvestorDetails[_addr];\n    require(structAccredited.detailadded == 1 , \"Investor not added in the list\");\n    delete structAccredited.investor;\n     delete structAccredited.accreditionStatus;\n      delete structAccredited.accreditionExpiryDateTime;\n      delete structAccredited.investorGeoLocation;\n      delete structAccredited.ipfsHashRegDInvestor;\n      delete structAccredited.detailadded;\n}\n\n\n function GetGeoLocationAccreditedInvestor(address _accreditedInvestoraddr )\n                                 view public returns(uint256)\n {\n      accreditedInvestor storage structAccredited =  accreditedInvestorDetails[_accreditedInvestoraddr];\n     // require(structAccredited.detailadded == 1 , \"Investor not added in the list\");\n     if(structAccredited.detailadded !=1)  //if detail has not been added then sey heolocation as default\n                        return defaultgeolation;\n      return structAccredited.investorGeoLocation;\n }\n\nfunction SetAccreditionStatus(address _investorAddress,\n                                    bool _status)\n                                    public onlyTokenOwner \n{\n    require(_investorAddress != 0);\n    accreditedInvestor storage structAccredited =  accreditedInvestorDetails[_investorAddress];\n    require(structAccredited.detailadded == 1 , \"Investor not added in the list\");\n    structAccredited.accreditionStatus = _status;\n}\n\n function CheckAccreditionStatus( address _accreditedInvestoraddr)  view  public \n returns(bool)\n {\n   accreditedInvestor storage structAccredited =  accreditedInvestorDetails[_accreditedInvestoraddr];\n   return structAccredited.accreditionStatus;\n \n }\n\n  function SetAccreditionExpiryDateTime(address _accreditedInvestoraddr, uint256 _expiryDateTime)  onlyTokenOwner public\n  {\n      require(_accreditedInvestoraddr != 0);\n      accreditedInvestor storage structAccredited =  accreditedInvestorDetails[_accreditedInvestoraddr];\n      require(structAccredited.detailadded == 1 , \"Investor not added in the list\");\n      structAccredited.accreditionExpiryDateTime = _expiryDateTime;\n  }\n\n\n }\n",
  "sourcePath": "/Users/shubhamsuyal/code/brightcoin/dapp/contracts/BrightCoinAccreditionInvestor.sol",
  "compiler": {
    "name": "solc",
    "version": "0.4.24+commit.e67f0147.Emscripten.clang"
  },
  "schemaVersion": "2.0.1",
  "updatedAt": "2019-01-15T05:16:30.771Z"
}