{
  "contractName": "BrightCoinERC20",
  "abi": [
    {
      "constant": true,
      "inputs": [],
      "name": "name",
      "outputs": [
        {
          "name": "",
          "type": "string"
        }
      ],
      "payable": false,
      "stateMutability": "view",
      "type": "function"
    },
    {
      "constant": true,
      "inputs": [],
      "name": "SUCCESS_CODE",
      "outputs": [
        {
          "name": "",
          "type": "uint8"
        }
      ],
      "payable": false,
      "stateMutability": "view",
      "type": "function"
    },
    {
      "constant": true,
      "inputs": [
        {
          "name": "_newTeamAddr",
          "type": "address"
        }
      ],
      "name": "CheckTeamTokenAmount",
      "outputs": [
        {
          "name": "",
          "type": "uint256"
        }
      ],
      "payable": false,
      "stateMutability": "view",
      "type": "function"
    },
    {
      "constant": false,
      "inputs": [
        {
          "name": "_endDateTimeStamp",
          "type": "uint256"
        },
        {
          "name": "_currenttime",
          "type": "uint256"
        }
      ],
      "name": "changeEndDate",
      "outputs": [
        {
          "name": "",
          "type": "bool"
        }
      ],
      "payable": false,
      "stateMutability": "nonpayable",
      "type": "function"
    },
    {
      "constant": false,
      "inputs": [
        {
          "name": "_tokensalestatus",
          "type": "bool"
        }
      ],
      "name": "changeTokenSaleStatus",
      "outputs": [],
      "payable": false,
      "stateMutability": "nonpayable",
      "type": "function"
    },
    {
      "constant": true,
      "inputs": [],
      "name": "TotalFounder",
      "outputs": [
        {
          "name": "",
          "type": "uint256"
        }
      ],
      "payable": false,
      "stateMutability": "view",
      "type": "function"
    },
    {
      "constant": true,
      "inputs": [],
      "name": "decimals",
      "outputs": [
        {
          "name": "",
          "type": "uint256"
        }
      ],
      "payable": false,
      "stateMutability": "view",
      "type": "function"
    },
    {
      "constant": true,
      "inputs": [],
      "name": "TokenSaleOn",
      "outputs": [
        {
          "name": "",
          "type": "bool"
        }
      ],
      "payable": false,
      "stateMutability": "view",
      "type": "function"
    },
    {
      "constant": false,
      "inputs": [
        {
          "name": "_newFounderAddr",
          "type": "address"
        }
      ],
      "name": "RemoveFounderFromFurtherInvestment",
      "outputs": [
        {
          "name": "",
          "type": "bool"
        }
      ],
      "payable": false,
      "stateMutability": "nonpayable",
      "type": "function"
    },
    {
      "constant": true,
      "inputs": [],
      "name": "initialSupply",
      "outputs": [
        {
          "name": "",
          "type": "uint256"
        }
      ],
      "payable": false,
      "stateMutability": "view",
      "type": "function"
    },
    {
      "constant": false,
      "inputs": [
        {
          "name": "_startDateTimeStamp",
          "type": "uint256"
        },
        {
          "name": "_currenttime",
          "type": "uint256"
        }
      ],
      "name": "changeStartDate",
      "outputs": [
        {
          "name": "",
          "type": "bool"
        }
      ],
      "payable": false,
      "stateMutability": "nonpayable",
      "type": "function"
    },
    {
      "constant": true,
      "inputs": [],
      "name": "BonusAmountPreSale",
      "outputs": [
        {
          "name": "",
          "type": "uint256"
        }
      ],
      "payable": false,
      "stateMutability": "view",
      "type": "function"
    },
    {
      "constant": true,
      "inputs": [],
      "name": "INVESTOR_KYC_FAILED_MESSAGE",
      "outputs": [
        {
          "name": "",
          "type": "string"
        }
      ],
      "payable": false,
      "stateMutability": "view",
      "type": "function"
    },
    {
      "constant": true,
      "inputs": [],
      "name": "TOKEN_TRANSFER_LOCK_CODE",
      "outputs": [
        {
          "name": "",
          "type": "uint8"
        }
      ],
      "payable": false,
      "stateMutability": "view",
      "type": "function"
    },
    {
      "constant": true,
      "inputs": [],
      "name": "purchaseRate",
      "outputs": [
        {
          "name": "",
          "type": "uint256"
        }
      ],
      "payable": false,
      "stateMutability": "view",
      "type": "function"
    },
    {
      "constant": true,
      "inputs": [],
      "name": "TotalTeamnvestor",
      "outputs": [
        {
          "name": "",
          "type": "uint256"
        }
      ],
      "payable": false,
      "stateMutability": "view",
      "type": "function"
    },
    {
      "constant": true,
      "inputs": [
        {
          "name": "_newFounderAddr",
          "type": "address"
        }
      ],
      "name": "CheckFounderTokenAmount",
      "outputs": [
        {
          "name": "",
          "type": "uint256"
        }
      ],
      "payable": false,
      "stateMutability": "view",
      "type": "function"
    },
    {
      "constant": true,
      "inputs": [],
      "name": "TOKEN_TRANSFER_UTILITY_TOKEN_MESSAGE",
      "outputs": [
        {
          "name": "",
          "type": "string"
        }
      ],
      "payable": false,
      "stateMutability": "view",
      "type": "function"
    },
    {
      "constant": true,
      "inputs": [],
      "name": "InitialCompanyHoldingValue",
      "outputs": [
        {
          "name": "",
          "type": "uint256"
        }
      ],
      "payable": false,
      "stateMutability": "view",
      "type": "function"
    },
    {
      "constant": true,
      "inputs": [],
      "name": "version",
      "outputs": [
        {
          "name": "",
          "type": "string"
        }
      ],
      "payable": false,
      "stateMutability": "view",
      "type": "function"
    },
    {
      "constant": true,
      "inputs": [],
      "name": "ZERO_ADDRESS_RESTRICTION_MESSAGE",
      "outputs": [
        {
          "name": "",
          "type": "string"
        }
      ],
      "payable": false,
      "stateMutability": "view",
      "type": "function"
    },
    {
      "constant": false,
      "inputs": [
        {
          "name": "_newTeamAddr",
          "type": "address"
        }
      ],
      "name": "RemoveTeamFromFurtherInvestment",
      "outputs": [],
      "payable": false,
      "stateMutability": "nonpayable",
      "type": "function"
    },
    {
      "constant": true,
      "inputs": [],
      "name": "INVESTOR_TOKEN_LOCK_EXPIRED_CODE",
      "outputs": [
        {
          "name": "",
          "type": "uint8"
        }
      ],
      "payable": false,
      "stateMutability": "view",
      "type": "function"
    },
    {
      "constant": true,
      "inputs": [],
      "name": "BountyAllocated",
      "outputs": [
        {
          "name": "",
          "type": "uint256"
        }
      ],
      "payable": false,
      "stateMutability": "view",
      "type": "function"
    },
    {
      "constant": true,
      "inputs": [],
      "name": "CurrentAllocatedFounderToken",
      "outputs": [
        {
          "name": "",
          "type": "uint256"
        }
      ],
      "payable": false,
      "stateMutability": "view",
      "type": "function"
    },
    {
      "constant": true,
      "inputs": [],
      "name": "INVESTOR_ACCREDITION_FAILED_MESSAGE",
      "outputs": [
        {
          "name": "",
          "type": "string"
        }
      ],
      "payable": false,
      "stateMutability": "view",
      "type": "function"
    },
    {
      "constant": true,
      "inputs": [
        {
          "name": "_newAdvisorAddr",
          "type": "address"
        }
      ],
      "name": "CheckAdvisorTokenAmount",
      "outputs": [
        {
          "name": "",
          "type": "uint256"
        }
      ],
      "payable": false,
      "stateMutability": "view",
      "type": "function"
    },
    {
      "constant": true,
      "inputs": [
        {
          "name": "restrictionCode",
          "type": "uint8"
        }
      ],
      "name": "messageForTransferRestriction",
      "outputs": [
        {
          "name": "message",
          "type": "string"
        }
      ],
      "payable": false,
      "stateMutability": "pure",
      "type": "function"
    },
    {
      "constant": true,
      "inputs": [],
      "name": "TOKEN_TRANSFER_UTILITY_TOKEN_CODE",
      "outputs": [
        {
          "name": "",
          "type": "uint8"
        }
      ],
      "payable": false,
      "stateMutability": "view",
      "type": "function"
    },
    {
      "constant": true,
      "inputs": [],
      "name": "INVESTOR_ICO_PAUSED_CODE",
      "outputs": [
        {
          "name": "",
          "type": "uint8"
        }
      ],
      "payable": false,
      "stateMutability": "view",
      "type": "function"
    },
    {
      "constant": true,
      "inputs": [],
      "name": "owner",
      "outputs": [
        {
          "name": "",
          "type": "address"
        }
      ],
      "payable": false,
      "stateMutability": "view",
      "type": "function"
    },
    {
      "constant": true,
      "inputs": [],
      "name": "isOwner",
      "outputs": [
        {
          "name": "",
          "type": "bool"
        }
      ],
      "payable": false,
      "stateMutability": "view",
      "type": "function"
    },
    {
      "constant": true,
      "inputs": [],
      "name": "ZERO_ADDRESS_RESTRICTION_CODE",
      "outputs": [
        {
          "name": "",
          "type": "uint8"
        }
      ],
      "payable": false,
      "stateMutability": "view",
      "type": "function"
    },
    {
      "constant": true,
      "inputs": [],
      "name": "symbol",
      "outputs": [
        {
          "name": "",
          "type": "string"
        }
      ],
      "payable": false,
      "stateMutability": "view",
      "type": "function"
    },
    {
      "constant": true,
      "inputs": [],
      "name": "ICOType",
      "outputs": [
        {
          "name": "",
          "type": "uint8"
        }
      ],
      "payable": false,
      "stateMutability": "view",
      "type": "function"
    },
    {
      "constant": false,
      "inputs": [
        {
          "name": "_newAdvisorAddr",
          "type": "address"
        }
      ],
      "name": "RemoveAdvisorFromFurtherInvestment",
      "outputs": [
        {
          "name": "",
          "type": "bool"
        }
      ],
      "payable": false,
      "stateMutability": "nonpayable",
      "type": "function"
    },
    {
      "constant": true,
      "inputs": [],
      "name": "InitialFounderToken",
      "outputs": [
        {
          "name": "",
          "type": "uint256"
        }
      ],
      "payable": false,
      "stateMutability": "view",
      "type": "function"
    },
    {
      "constant": true,
      "inputs": [],
      "name": "CompanyHoldingValue",
      "outputs": [
        {
          "name": "",
          "type": "uint256"
        }
      ],
      "payable": false,
      "stateMutability": "view",
      "type": "function"
    },
    {
      "constant": true,
      "inputs": [],
      "name": "CompanyHoldingAddress",
      "outputs": [
        {
          "name": "",
          "type": "address"
        }
      ],
      "payable": false,
      "stateMutability": "view",
      "type": "function"
    },
    {
      "constant": true,
      "inputs": [],
      "name": "INVESTOR_ACCREDITION_FAILED_CODE",
      "outputs": [
        {
          "name": "",
          "type": "uint8"
        }
      ],
      "payable": false,
      "stateMutability": "view",
      "type": "function"
    },
    {
      "constant": true,
      "inputs": [],
      "name": "TotalAdvisor",
      "outputs": [
        {
          "name": "",
          "type": "uint256"
        }
      ],
      "payable": false,
      "stateMutability": "view",
      "type": "function"
    },
    {
      "constant": true,
      "inputs": [],
      "name": "maxCoinSoldDuringPresale",
      "outputs": [
        {
          "name": "",
          "type": "uint256"
        }
      ],
      "payable": false,
      "stateMutability": "view",
      "type": "function"
    },
    {
      "constant": true,
      "inputs": [],
      "name": "UNKNOWN_MESSAGE",
      "outputs": [
        {
          "name": "",
          "type": "string"
        }
      ],
      "payable": false,
      "stateMutability": "view",
      "type": "function"
    },
    {
      "constant": true,
      "inputs": [],
      "name": "TotalAllocatedTeamToken",
      "outputs": [
        {
          "name": "",
          "type": "uint256"
        }
      ],
      "payable": false,
      "stateMutability": "view",
      "type": "function"
    },
    {
      "constant": true,
      "inputs": [],
      "name": "ICO_PAUSED_MESSAGE",
      "outputs": [
        {
          "name": "",
          "type": "string"
        }
      ],
      "payable": false,
      "stateMutability": "view",
      "type": "function"
    },
    {
      "constant": true,
      "inputs": [],
      "name": "Discount",
      "outputs": [
        {
          "name": "",
          "type": "uint8"
        }
      ],
      "payable": false,
      "stateMutability": "view",
      "type": "function"
    },
    {
      "constant": true,
      "inputs": [],
      "name": "TotalAllocatedAdvisorToken",
      "outputs": [
        {
          "name": "",
          "type": "uint256"
        }
      ],
      "payable": false,
      "stateMutability": "view",
      "type": "function"
    },
    {
      "constant": true,
      "inputs": [],
      "name": "MintMoreTokens",
      "outputs": [
        {
          "name": "",
          "type": "bool"
        }
      ],
      "payable": false,
      "stateMutability": "view",
      "type": "function"
    },
    {
      "constant": true,
      "inputs": [
        {
          "name": "",
          "type": "uint256"
        }
      ],
      "name": "advisorDistributionAddr",
      "outputs": [
        {
          "name": "",
          "type": "address"
        }
      ],
      "payable": false,
      "stateMutability": "view",
      "type": "function"
    },
    {
      "constant": true,
      "inputs": [],
      "name": "TotalAllocatedFounder",
      "outputs": [
        {
          "name": "",
          "type": "uint256"
        }
      ],
      "payable": false,
      "stateMutability": "view",
      "type": "function"
    },
    {
      "constant": true,
      "inputs": [
        {
          "name": "",
          "type": "uint256"
        }
      ],
      "name": "teamTokenDetailsAddr",
      "outputs": [
        {
          "name": "",
          "type": "address"
        }
      ],
      "payable": false,
      "stateMutability": "view",
      "type": "function"
    },
    {
      "constant": true,
      "inputs": [],
      "name": "TOKEN_TRANSFER_LOCK_MESSAGE",
      "outputs": [
        {
          "name": "",
          "type": "string"
        }
      ],
      "payable": false,
      "stateMutability": "view",
      "type": "function"
    },
    {
      "constant": true,
      "inputs": [],
      "name": "SUCCESS_MESSAGE",
      "outputs": [
        {
          "name": "",
          "type": "string"
        }
      ],
      "payable": false,
      "stateMutability": "view",
      "type": "function"
    },
    {
      "constant": true,
      "inputs": [
        {
          "name": "_currenttime",
          "type": "uint256"
        }
      ],
      "name": "inPreSalePeriod",
      "outputs": [
        {
          "name": "",
          "type": "bool"
        }
      ],
      "payable": false,
      "stateMutability": "view",
      "type": "function"
    },
    {
      "constant": true,
      "inputs": [],
      "name": "INVESTOR_KYC_FAILED_CODE",
      "outputs": [
        {
          "name": "",
          "type": "uint8"
        }
      ],
      "payable": false,
      "stateMutability": "view",
      "type": "function"
    },
    {
      "inputs": [],
      "payable": false,
      "stateMutability": "nonpayable",
      "type": "constructor"
    },
    {
      "anonymous": false,
      "inputs": [
        {
          "indexed": true,
          "name": "from",
          "type": "address"
        },
        {
          "indexed": true,
          "name": "_to",
          "type": "address"
        },
        {
          "indexed": false,
          "name": "_value",
          "type": "uint256"
        }
      ],
      "name": "Transfer",
      "type": "event"
    },
    {
      "anonymous": false,
      "inputs": [
        {
          "indexed": true,
          "name": "owner",
          "type": "address"
        },
        {
          "indexed": true,
          "name": "_spender",
          "type": "address"
        },
        {
          "indexed": false,
          "name": "_value",
          "type": "uint256"
        }
      ],
      "name": "Approval",
      "type": "event"
    },
    {
      "anonymous": false,
      "inputs": [
        {
          "indexed": false,
          "name": "tokens",
          "type": "uint256"
        }
      ],
      "name": "PresaleFinalized",
      "type": "event"
    },
    {
      "anonymous": false,
      "inputs": [
        {
          "indexed": false,
          "name": "softcap",
          "type": "string"
        }
      ],
      "name": "ICOSoftCapReached",
      "type": "event"
    },
    {
      "anonymous": false,
      "inputs": [
        {
          "indexed": false,
          "name": "TokenSold",
          "type": "uint256"
        },
        {
          "indexed": false,
          "name": "str",
          "type": "string"
        }
      ],
      "name": "ICOSoftUnsuccessFull",
      "type": "event"
    },
    {
      "anonymous": false,
      "inputs": [
        {
          "indexed": false,
          "name": "addr",
          "type": "address"
        },
        {
          "indexed": false,
          "name": "tokens",
          "type": "uint256"
        }
      ],
      "name": "Burn",
      "type": "event"
    },
    {
      "anonymous": false,
      "inputs": [
        {
          "indexed": false,
          "name": "target",
          "type": "address"
        },
        {
          "indexed": false,
          "name": "mintedAmount",
          "type": "uint256"
        }
      ],
      "name": "Mint",
      "type": "event"
    },
    {
      "anonymous": false,
      "inputs": [
        {
          "indexed": true,
          "name": "_of",
          "type": "address"
        },
        {
          "indexed": false,
          "name": "_amount",
          "type": "uint256"
        },
        {
          "indexed": false,
          "name": "_validity",
          "type": "uint256"
        }
      ],
      "name": "Locked",
      "type": "event"
    },
    {
      "anonymous": false,
      "inputs": [
        {
          "indexed": false,
          "name": "sender",
          "type": "address"
        },
        {
          "indexed": false,
          "name": "investor",
          "type": "address"
        },
        {
          "indexed": false,
          "name": "_validity",
          "type": "uint256"
        },
        {
          "indexed": true,
          "name": "_reason",
          "type": "bytes32"
        }
      ],
      "name": "LockUpdated",
      "type": "event"
    },
    {
      "anonymous": false,
      "inputs": [
        {
          "indexed": true,
          "name": "_of",
          "type": "address"
        },
        {
          "indexed": true,
          "name": "_reason",
          "type": "bytes32"
        },
        {
          "indexed": false,
          "name": "_amount",
          "type": "uint256"
        }
      ],
      "name": "Unlocked",
      "type": "event"
    },
    {
      "anonymous": false,
      "inputs": [
        {
          "indexed": true,
          "name": "previousOwner",
          "type": "address"
        }
      ],
      "name": "OwnershipRenounced",
      "type": "event"
    },
    {
      "anonymous": false,
      "inputs": [
        {
          "indexed": true,
          "name": "previousOwner",
          "type": "address"
        },
        {
          "indexed": true,
          "name": "newOwner",
          "type": "address"
        }
      ],
      "name": "OwnershipTransferred",
      "type": "event"
    },
    {
      "constant": false,
      "inputs": [
        {
          "name": "_newSoftcap",
          "type": "uint256"
        }
      ],
      "name": "ChangeSoftCap",
      "outputs": [],
      "payable": false,
      "stateMutability": "nonpayable",
      "type": "function"
    },
    {
      "constant": false,
      "inputs": [
        {
          "name": "_newHardcap",
          "type": "uint256"
        }
      ],
      "name": "changeHardCapLimit",
      "outputs": [],
      "payable": false,
      "stateMutability": "nonpayable",
      "type": "function"
    },
    {
      "constant": true,
      "inputs": [],
      "name": "GetSoftcap",
      "outputs": [
        {
          "name": "",
          "type": "uint256"
        }
      ],
      "payable": false,
      "stateMutability": "view",
      "type": "function"
    },
    {
      "constant": true,
      "inputs": [],
      "name": "GetHardcap",
      "outputs": [
        {
          "name": "",
          "type": "uint256"
        }
      ],
      "payable": false,
      "stateMutability": "view",
      "type": "function"
    },
    {
      "constant": true,
      "inputs": [],
      "name": "CheckIfSoftcapAchived",
      "outputs": [
        {
          "name": "",
          "type": "bool"
        }
      ],
      "payable": false,
      "stateMutability": "view",
      "type": "function"
    },
    {
      "constant": true,
      "inputs": [
        {
          "name": "_tokens",
          "type": "uint256"
        }
      ],
      "name": "CheckIfHardcapAchived",
      "outputs": [
        {
          "name": "",
          "type": "bool"
        }
      ],
      "payable": false,
      "stateMutability": "view",
      "type": "function"
    },
    {
      "constant": false,
      "inputs": [
        {
          "name": "_mintingOption",
          "type": "bool"
        }
      ],
      "name": "UpdateTokenMintingOption",
      "outputs": [],
      "payable": false,
      "stateMutability": "nonpayable",
      "type": "function"
    },
    {
      "constant": true,
      "inputs": [
        {
          "name": "_who",
          "type": "address"
        }
      ],
      "name": "balanceOf",
      "outputs": [
        {
          "name": "",
          "type": "uint256"
        }
      ],
      "payable": false,
      "stateMutability": "view",
      "type": "function"
    },
    {
      "constant": true,
      "inputs": [],
      "name": "totalSupply",
      "outputs": [
        {
          "name": "",
          "type": "uint256"
        }
      ],
      "payable": false,
      "stateMutability": "view",
      "type": "function"
    },
    {
      "constant": true,
      "inputs": [
        {
          "name": "_owner",
          "type": "address"
        },
        {
          "name": "_spender",
          "type": "address"
        }
      ],
      "name": "allowance",
      "outputs": [
        {
          "name": "",
          "type": "uint256"
        }
      ],
      "payable": false,
      "stateMutability": "view",
      "type": "function"
    },
    {
      "constant": false,
      "inputs": [
        {
          "name": "_to",
          "type": "address"
        },
        {
          "name": "_value",
          "type": "uint256"
        }
      ],
      "name": "mint",
      "outputs": [],
      "payable": false,
      "stateMutability": "nonpayable",
      "type": "function"
    },
    {
      "constant": false,
      "inputs": [
        {
          "name": "_value",
          "type": "uint256"
        }
      ],
      "name": "burn",
      "outputs": [],
      "payable": false,
      "stateMutability": "nonpayable",
      "type": "function"
    },
    {
      "constant": false,
      "inputs": [
        {
          "name": "_status",
          "type": "bool"
        }
      ],
      "name": "pauseICOtransaction",
      "outputs": [],
      "payable": false,
      "stateMutability": "nonpayable",
      "type": "function"
    },
    {
      "constant": false,
      "inputs": [
        {
          "name": "_newOwner",
          "type": "address"
        }
      ],
      "name": "transferownership",
      "outputs": [],
      "payable": false,
      "stateMutability": "nonpayable",
      "type": "function"
    }
  ],
  "bytecode": "0x6080604052635be030c0600c55635d194cff600d556000600e556000600f5560006010556000601155630ee6b2806012556001601360006101000a81548160ff02191690831515021790555060006016556000601755600060185560006019556000601b60006101000a81548160ff0219169083151502179055506000601b60016101000a81548160ff021916908360ff1602179055506000601d60006101000a81548160ff021916908315150217905550348015620000be57600080fd5b50336000806101000a81548173ffffffffffffffffffffffffffffffffffffffff021916908373ffffffffffffffffffffffffffffffffffffffff1602179055506000600a0a631dcd650002601c819055506000600a0a6000026006819055506000600a0a630bebc200026016819055506000600a0a62989680026002819055506000600a0a6302625a0002601881905550620001796000600a0a6012546200037a6401000000000262003125179091906401000000009004565b601281905550620001a86000600a0a6011546200037a6401000000000262003125179091906401000000009004565b601181905550601c54601e60003373ffffffffffffffffffffffffffffffffffffffff1673ffffffffffffffffffffffffffffffffffffffff168152602001908152602001600020819055503373ffffffffffffffffffffffffffffffffffffffff16600073ffffffffffffffffffffffffffffffffffffffff167fddf252ad1be2c89b69c2b068fc378daa952ba7f163c4a11628f55a4df523b3ef601c546040518082815260200191505060405180910390a3601654600960003373ffffffffffffffffffffffffffffffffffffffff1673ffffffffffffffffffffffffffffffffffffffff16815260200190815260200160002081905550600254600160003373ffffffffffffffffffffffffffffffffffffffff1673ffffffffffffffffffffffffffffffffffffffff16815260200190815260200160002081905550600654600560003373ffffffffffffffffffffffffffffffffffffffff1673ffffffffffffffffffffffffffffffffffffffff16815260200190815260200160002081905550601854601460003373ffffffffffffffffffffffffffffffffffffffff1673ffffffffffffffffffffffffffffffffffffffff16815260200190815260200160002081905550620003bc565b6000806000841415620003915760009150620003b5565b8284029050828482811515620003a357fe5b04141515620003b157600080fd5b8091505b5092915050565b61318f80620003cc6000396000f30060806040526004361061032d576000357c0100000000000000000000000000000000000000000000000000000000900463ffffffff16806306fdde03146103325780630e969a05146103c257806318160ddd146103f35780631e9e3f971461041e578063205223471461047557806322180b37146104c457806324851bc3146104f3578063272c25cf146105225780632b2d83701461054f578063313ce5671461057a57806331a8a910146105a5578063354fc0c0146105d4578063378dc3dc1461062f5780633c0afb591461065a57806340c10f19146106a9578063410116fb146106f657806342966c6814610721578063442ea1a21461074e5780634575f721146107de57806348c26e221461080f5780634c3ed4e11461083a578063515879e7146108655780635288bb49146108bc57806354c15d5e1461094c57806354fd4d5014610977578063572fb26c14610a07578063577ed9d214610a9757806361fa3df514610ada5780636474451514610b0b57806366055b1414610b365780636ff6dec914610b6157806370a0823114610b8c5780637754e0ed14610be35780637b758ef714610c735780637f4ab1dd14610cca5780637ffacdc714610d735780638da28ea314610da45780638da5cb5b14610dd55780638f32d59b14610e2c5780639260c58c14610e5b57806395d89b4114610e8c5780639ca5d79f14610f1c5780639f7e3a7f14610f4d578063a180218f14610fa8578063a240c60c14610fd3578063a4876bc414610ffe578063a5d1b20014611055578063afbc344614611082578063b03fd1ba146110b3578063b1f2ac55146110de578063b30f63da14611123578063ba0cf3041461114e578063bc305852146111de578063bfdb67f314611209578063c33ba86214611299578063c63ccb3b146112c4578063cc15c0f0146112f5578063cd6ce90c14611320578063d62eb9601461134f578063d7b0243e146113bc578063d9d4f00c146113eb578063da04bb1014611416578063dd62ed3e14611483578063df50131f146114fa578063e43158be1461158a578063e7984d17146115b9578063e8b5b79614611649578063f569aed61461168c578063f94fd7a6146116d1575b600080fd5b34801561033e57600080fd5b50610347611702565b6040518080602001828103825283818151815260200191508051906020019080838360005b8381101561038757808201518184015260208101905061036c565b50505050905090810190601f1680156103b45780820380516001836020036101000a031916815260200191505b509250505060405180910390f35b3480156103ce57600080fd5b506103d761173b565b604051808260ff1660ff16815260200191505060405180910390f35b3480156103ff57600080fd5b50610408611740565b6040518082815260200191505060405180910390f35b34801561042a57600080fd5b5061045f600480360381019080803573ffffffffffffffffffffffffffffffffffffffff16906020019092919050505061174a565b6040518082815260200191505060405180910390f35b34801561048157600080fd5b506104aa600480360381019080803590602001909291908035906020019092919050505061179b565b604051808215151515815260200191505060405180910390f35b3480156104d057600080fd5b506104f16004803603810190808035151590602001909291905050506117ef565b005b3480156104ff57600080fd5b5061050861181f565b604051808215151515815260200191505060405180910390f35b34801561052e57600080fd5b5061054d60048036038101908080359060200190929190505050611919565b005b34801561055b57600080fd5b50610564611a11565b6040518082815260200191505060405180910390f35b34801561058657600080fd5b5061058f611a1e565b6040518082815260200191505060405180910390f35b3480156105b157600080fd5b506105ba611a23565b604051808215151515815260200191505060405180910390f35b3480156105e057600080fd5b50610615600480360381019080803573ffffffffffffffffffffffffffffffffffffffff169060200190929190505050611a36565b604051808215151515815260200191505060405180910390f35b34801561063b57600080fd5b50610644611ab4565b6040518082815260200191505060405180910390f35b34801561066657600080fd5b5061068f6004803603810190808035906020019092919080359060200190929190505050611abc565b604051808215151515815260200191505060405180910390f35b3480156106b557600080fd5b506106f4600480360381019080803573ffffffffffffffffffffffffffffffffffffffff16906020019092919080359060200190929190505050611b02565b005b34801561070257600080fd5b5061070b611b23565b6040518082815260200191505060405180910390f35b34801561072d57600080fd5b5061074c60048036038101908080359060200190929190505050611b28565b005b34801561075a57600080fd5b50610763611cbc565b6040518080602001828103825283818151815260200191508051906020019080838360005b838110156107a3578082015181840152602081019050610788565b50505050905090810190601f1680156107d05780820380516001836020036101000a031916815260200191505b509250505060405180910390f35b3480156107ea57600080fd5b506107f3611cf5565b604051808260ff1660ff16815260200191505060405180910390f35b34801561081b57600080fd5b50610824611cfa565b6040518082815260200191505060405180910390f35b34801561084657600080fd5b5061084f611d00565b6040518082815260200191505060405180910390f35b34801561087157600080fd5b506108a6600480360381019080803573ffffffffffffffffffffffffffffffffffffffff169060200190929190505050611d0d565b6040518082815260200191505060405180910390f35b3480156108c857600080fd5b506108d1611d5e565b6040518080602001828103825283818151815260200191508051906020019080838360005b838110156109115780820151818401526020810190506108f6565b50505050905090810190601f16801561093e5780820380516001836020036101000a031916815260200191505b509250505060405180910390f35b34801561095857600080fd5b50610961611d97565b6040518082815260200191505060405180910390f35b34801561098357600080fd5b5061098c611d9f565b6040518080602001828103825283818151815260200191508051906020019080838360005b838110156109cc5780820151818401526020810190506109b1565b50505050905090810190601f1680156109f95780820380516001836020036101000a031916815260200191505b509250505060405180910390f35b348015610a1357600080fd5b50610a1c611dd8565b6040518080602001828103825283818151815260200191508051906020019080838360005b83811015610a5c578082015181840152602081019050610a41565b50505050905090810190601f168015610a895780820380516001836020036101000a031916815260200191505b509250505060405180910390f35b348015610aa357600080fd5b50610ad8600480360381019080803573ffffffffffffffffffffffffffffffffffffffff169060200190929190505050611e11565b005b348015610ae657600080fd5b50610aef611e88565b604051808260ff1660ff16815260200191505060405180910390f35b348015610b1757600080fd5b50610b20611e8d565b6040518082815260200191505060405180910390f35b348015610b4257600080fd5b50610b4b611e93565b6040518082815260200191505060405180910390f35b348015610b6d57600080fd5b50610b76611e99565b6040518082815260200191505060405180910390f35b348015610b9857600080fd5b50610bcd600480360381019080803573ffffffffffffffffffffffffffffffffffffffff169060200190929190505050611ea3565b6040518082815260200191505060405180910390f35b348015610bef57600080fd5b50610bf8611eec565b6040518080602001828103825283818151815260200191508051906020019080838360005b83811015610c38578082015181840152602081019050610c1d565b50505050905090810190601f168015610c655780820380516001836020036101000a031916815260200191505b509250505060405180910390f35b348015610c7f57600080fd5b50610cb4600480360381019080803573ffffffffffffffffffffffffffffffffffffffff169060200190929190505050611f4c565b6040518082815260200191505060405180910390f35b348015610cd657600080fd5b50610cf8600480360381019080803560ff169060200190929190505050611fb0565b6040518080602001828103825283818151815260200191508051906020019080838360005b83811015610d38578082015181840152602081019050610d1d565b50505050905090810190601f168015610d655780820380516001836020036101000a031916815260200191505b509250505060405180910390f35b348015610d7f57600080fd5b50610d886121b9565b604051808260ff1660ff16815260200191505060405180910390f35b348015610db057600080fd5b50610db96121be565b604051808260ff1660ff16815260200191505060405180910390f35b348015610de157600080fd5b50610dea6121c3565b604051808273ffffffffffffffffffffffffffffffffffffffff1673ffffffffffffffffffffffffffffffffffffffff16815260200191505060405180910390f35b348015610e3857600080fd5b50610e416121ec565b604051808215151515815260200191505060405180910390f35b348015610e6757600080fd5b50610e70612243565b604051808260ff1660ff16815260200191505060405180910390f35b348015610e9857600080fd5b50610ea1612248565b6040518080602001828103825283818151815260200191508051906020019080838360005b83811015610ee1578082015181840152602081019050610ec6565b50505050905090810190601f168015610f0e5780820380516001836020036101000a031916815260200191505b509250505060405180910390f35b348015610f2857600080fd5b50610f31612281565b604051808260ff1660ff16815260200191505060405180910390f35b348015610f5957600080fd5b50610f8e600480360381019080803573ffffffffffffffffffffffffffffffffffffffff169060200190929190505050612291565b604051808215151515815260200191505060405180910390f35b348015610fb457600080fd5b50610fbd61230f565b6040518082815260200191505060405180910390f35b348015610fdf57600080fd5b50610fe8612317565b6040518082815260200191505060405180910390f35b34801561100a57600080fd5b5061101361231d565b604051808273ffffffffffffffffffffffffffffffffffffffff1673ffffffffffffffffffffffffffffffffffffffff16815260200191505060405180910390f35b34801561106157600080fd5b5061108060048036038101908080359060200190929190505050612335565b005b34801561108e57600080fd5b5061109761242b565b604051808260ff1660ff16815260200191505060405180910390f35b3480156110bf57600080fd5b506110c8612430565b6040518082815260200191505060405180910390f35b3480156110ea57600080fd5b5061110960048036038101908080359060200190929190505050612450565b604051808215151515815260200191505060405180910390f35b34801561112f57600080fd5b5061113861256c565b6040518082815260200191505060405180910390f35b34801561115a57600080fd5b50611163612571565b6040518080602001828103825283818151815260200191508051906020019080838360005b838110156111a3578082015181840152602081019050611188565b50505050905090810190601f1680156111d05780820380516001836020036101000a031916815260200191505b509250505060405180910390f35b3480156111ea57600080fd5b506111f36125aa565b6040518082815260200191505060405180910390f35b34801561121557600080fd5b5061121e6125b0565b6040518080602001828103825283818151815260200191508051906020019080838360005b8381101561125e578082015181840152602081019050611243565b50505050905090810190601f16801561128b5780820380516001836020036101000a031916815260200191505b509250505060405180910390f35b3480156112a557600080fd5b506112ae6125e9565b6040518082815260200191505060405180910390f35b3480156112d057600080fd5b506112d96125f3565b604051808260ff1660ff16815260200191505060405180910390f35b34801561130157600080fd5b5061130a6125f8565b6040518082815260200191505060405180910390f35b34801561132c57600080fd5b506113356125fe565b604051808215151515815260200191505060405180910390f35b34801561135b57600080fd5b5061137a60048036038101908080359060200190929190505050612611565b604051808273ffffffffffffffffffffffffffffffffffffffff1673ffffffffffffffffffffffffffffffffffffffff16815260200191505060405180910390f35b3480156113c857600080fd5b506113e960048036038101908080351515906020019092919050505061264f565b005b3480156113f757600080fd5b5061140061267f565b6040518082815260200191505060405180910390f35b34801561142257600080fd5b5061144160048036038101908080359060200190929190505050612685565b604051808273ffffffffffffffffffffffffffffffffffffffff1673ffffffffffffffffffffffffffffffffffffffff16815260200191505060405180910390f35b34801561148f57600080fd5b506114e4600480360381019080803573ffffffffffffffffffffffffffffffffffffffff169060200190929190803573ffffffffffffffffffffffffffffffffffffffff1690602001909291905050506126c3565b6040518082815260200191505060405180910390f35b34801561150657600080fd5b5061150f61274a565b6040518080602001828103825283818151815260200191508051906020019080838360005b8381101561154f578082015181840152602081019050611534565b50505050905090810190601f16801561157c5780820380516001836020036101000a031916815260200191505b509250505060405180910390f35b34801561159657600080fd5b506115b76004803603810190808035151590602001909291905050506127aa565b005b3480156115c557600080fd5b506115ce6127da565b6040518080602001828103825283818151815260200191508051906020019080838360005b8381101561160e5780820151818401526020810190506115f3565b50505050905090810190601f16801561163b5780820380516001836020036101000a031916815260200191505b509250505060405180910390f35b34801561165557600080fd5b5061168a600480360381019080803573ffffffffffffffffffffffffffffffffffffffff169060200190929190505050612813565b005b34801561169857600080fd5b506116b760048036038101908080359060200190929190505050612e34565b604051808215151515815260200191505060405180910390f35b3480156116dd57600080fd5b506116e6612e62565b604051808260ff1660ff16815260200191505060405180910390f35b6040805190810160405280600981526020017f50726f7869436f696e000000000000000000000000000000000000000000000081525081565b600081565b6000601c54905090565b600080600760008473ffffffffffffffffffffffffffffffffffffffff1673ffffffffffffffffffffffffffffffffffffffff16815260200190815260200160002090508060010154915050919050565b60006117a56121ec565b15156117b057600080fd5b81831115156117be57600080fd5b81600d541115156117ce57600080fd5b600c54831115156117de57600080fd5b82600d819055506001905092915050565b6117f76121ec565b151561180257600080fd5b80601360006101000a81548160ff02191690831515021790555050565b600080600080601e60006118316121c3565b73ffffffffffffffffffffffffffffffffffffffff1673ffffffffffffffffffffffffffffffffffffffff168152602001908152602001600020549250601e6000601b60029054906101000a900473ffffffffffffffffffffffffffffffffffffffff1673ffffffffffffffffffffffffffffffffffffffff1673ffffffffffffffffffffffffffffffffffffffff1681526020019081526020016000205491506118f96118e88385612e6790919063ffffffff16565b601c54612e8890919063ffffffff16565b905060115481111561190e5760019350611913565b600093505b50505090565b6119216121ec565b151561192c57600080fd5b806011541415151561193d57600080fd5b6119f7601e6000601b60029054906101000a900473ffffffffffffffffffffffffffffffffffffffff1673ffffffffffffffffffffffffffffffffffffffff1673ffffffffffffffffffffffffffffffffffffffff16815260200190815260200160002054601e60006119ae6121c3565b73ffffffffffffffffffffffffffffffffffffffff1673ffffffffffffffffffffffffffffffffffffffff16815260200190815260200160002054612e6790919063ffffffff16565b60115411151515611a0757600080fd5b8060118190555050565b6000600b80549050905090565b600081565b601360009054906101000a900460ff1681565b600080611a416121ec565b1515611a4c57600080fd5b600a60008473ffffffffffffffffffffffffffffffffffffffff1673ffffffffffffffffffffffffffffffffffffffff168152602001908152602001600020905060008160030160006101000a81548160ff0219169083151502179055506001915050919050565b631dcd650081565b6000611ac66121ec565b1515611ad157600080fd5b81600c54111515611ae157600080fd5b600d5483101515611af157600080fd5b82600c819055506001905092915050565b611b0a6121ec565b1515611b1557600080fd5b611b1f8282612ea4565b5050565b600081565b6000611b326121ec565b1515611b3d57600080fd5b600082111515611b4c57600080fd5b601e60003373ffffffffffffffffffffffffffffffffffffffff1673ffffffffffffffffffffffffffffffffffffffff168152602001908152602001600020548211151515611b9a57600080fd5b339050611bef82601e60008473ffffffffffffffffffffffffffffffffffffffff1673ffffffffffffffffffffffffffffffffffffffff16815260200190815260200160002054612e8890919063ffffffff16565b601e60008373ffffffffffffffffffffffffffffffffffffffff1673ffffffffffffffffffffffffffffffffffffffff16815260200190815260200160002081905550611c4782601c54612e8890919063ffffffff16565b601c819055507fcc16f5dbb4873280815c1ee09dbd06736cffcc184412cf7a71a0fdb75d397ca58183604051808373ffffffffffffffffffffffffffffffffffffffff1673ffffffffffffffffffffffffffffffffffffffff1681526020018281526020019250505060405180910390a15050565b6040805190810160405280601b81526020017f494e564553544f52204953204e4f54204b594320454e41424c4544000000000081525081565b600281565b60105481565b6000600880549050905090565b600080600a60008473ffffffffffffffffffffffffffffffffffffffff1673ffffffffffffffffffffffffffffffffffffffff16815260200190815260200160002090508060010154915050919050565b6040805190810160405280601681526020017f544f4b454e204953205554494c49545920544f4b454e0000000000000000000081525081565b6302625a0081565b6040805190810160405280600381526020017f312e30000000000000000000000000000000000000000000000000000000000081525081565b6040805190810160405280602081526020017f494c4c4547414c5f5452414e534645525f544f5f5a45524f5f4144445245535381525081565b6000611e1b6121ec565b1515611e2657600080fd5b600760008373ffffffffffffffffffffffffffffffffffffffff1673ffffffffffffffffffffffffffffffffffffffff168152602001908152602001600020905060008160030160006101000a81548160ff0219169083151502179055505050565b600681565b60195481565b60175481565b6000601254905090565b6000601e60008373ffffffffffffffffffffffffffffffffffffffff1673ffffffffffffffffffffffffffffffffffffffff168152602001908152602001600020549050919050565b606060405190810160405280602181526020017f494e564553544f52204143435245444954494f4e204953204e4f542056414c4981526020017f440000000000000000000000000000000000000000000000000000000000000081525081565b600080611f576121ec565b1515611f6257600080fd5b600360008473ffffffffffffffffffffffffffffffffffffffff1673ffffffffffffffffffffffffffffffffffffffff16815260200190815260200160002090508060010154915050919050565b60606040805190810160405280600781526020017f554e4b4e4f574e000000000000000000000000000000000000000000000000008152509050600060ff168260ff161415612036576040805190810160405280600781526020017f535543434553530000000000000000000000000000000000000000000000000081525090506121b4565b600160ff168260ff161415612082576040805190810160405280602081526020017f494c4c4547414c5f5452414e534645525f544f5f5a45524f5f4144445245535381525090506121b3565b600260ff168260ff1614156120f557606060405190810160405280602181526020017f54494d45204c4f434b454420544f4b454e2043414e204e4f54205452414e534681526020017f520000000000000000000000000000000000000000000000000000000000000081525090506121b2565b600360ff168260ff16141561216857606060405190810160405280602181526020017f494e564553544f52204143435245444954494f4e204953204e4f542056414c4981526020017f440000000000000000000000000000000000000000000000000000000000000081525090506121b1565b600460ff168260ff1614156121b0576040805190810160405280601b81526020017f494e564553544f52204953204e4f54204b594320454e41424c4544000000000081525090505b5b5b5b5b919050565b600781565b600581565b60008060009054906101000a900473ffffffffffffffffffffffffffffffffffffffff16905090565b60008060009054906101000a900473ffffffffffffffffffffffffffffffffffffffff1673ffffffffffffffffffffffffffffffffffffffff163373ffffffffffffffffffffffffffffffffffffffff1614905090565b600181565b6040805190810160405280600381526020017f50434e000000000000000000000000000000000000000000000000000000000081525081565b6002600381111561228e57fe5b81565b60008061229c6121ec565b15156122a757600080fd5b600360008473ffffffffffffffffffffffffffffffffffffffff1673ffffffffffffffffffffffffffffffffffffffff168152602001908152602001600020905060008160030160006101000a81548160ff0219169083151502179055506001915050919050565b630bebc20081565b60185481565b73b9872b9ab8235cc3b4253195c5476d284d448c5d81565b61233d6121ec565b151561234857600080fd5b806012541415151561235957600080fd5b612413601e6000601b60029054906101000a900473ffffffffffffffffffffffffffffffffffffffff1673ffffffffffffffffffffffffffffffffffffffff1673ffffffffffffffffffffffffffffffffffffffff16815260200190815260200160002054601e60006123ca6121c3565b73ffffffffffffffffffffffffffffffffffffffff1673ffffffffffffffffffffffffffffffffffffffff16815260200190815260200160002054612e6790919063ffffffff16565b811115151561242157600080fd5b8060128190555050565b600381565b600061243a6121ec565b151561244557600080fd5b600480549050905090565b600080600080601e60006124626121c3565b73ffffffffffffffffffffffffffffffffffffffff1673ffffffffffffffffffffffffffffffffffffffff168152602001908152602001600020549250601e6000601b60029054906101000a900473ffffffffffffffffffffffffffffffffffffffff1673ffffffffffffffffffffffffffffffffffffffff1673ffffffffffffffffffffffffffffffffffffffff16815260200190815260200160002054915061252a6125198385612e6790919063ffffffff16565b601c54612e8890919063ffffffff16565b9050601254811115151561253d57600080fd5b6012546125538683612e6790919063ffffffff16565b1115151561256057600080fd5b60019350505050919050565b600081565b6040805190810160405280600781526020017f554e4b4e4f574e0000000000000000000000000000000000000000000000000081525081565b60065481565b6040805190810160405280600d81526020017f49434f204953205041555345440000000000000000000000000000000000000081525081565b6000601154905090565b600081565b60025481565b601d60009054906101000a900460ff1681565b60048181548110151561262057fe5b906000526020600020016000915054906101000a900473ffffffffffffffffffffffffffffffffffffffff1681565b6126576121ec565b151561266257600080fd5b80601b60006101000a81548160ff02191690831515021790555050565b60165481565b60088181548110151561269457fe5b906000526020600020016000915054906101000a900473ffffffffffffffffffffffffffffffffffffffff1681565b6000601f60008473ffffffffffffffffffffffffffffffffffffffff1673ffffffffffffffffffffffffffffffffffffffff16815260200190815260200160002060008373ffffffffffffffffffffffffffffffffffffffff1673ffffffffffffffffffffffffffffffffffffffff16815260200190815260200160002054905092915050565b606060405190810160405280602181526020017f54494d45204c4f434b454420544f4b454e2043414e204e4f54205452414e534681526020017f520000000000000000000000000000000000000000000000000000000000000081525081565b6127b26121ec565b15156127bd57600080fd5b80601d60006101000a81548160ff02191690831515021790555050565b6040805190810160405280600781526020017f535543434553530000000000000000000000000000000000000000000000000081525081565b61281b6121ec565b151561282657600080fd5b60008173ffffffffffffffffffffffffffffffffffffffff161415151561284c57600080fd5b6128dd601e60003373ffffffffffffffffffffffffffffffffffffffff1673ffffffffffffffffffffffffffffffffffffffff16815260200190815260200160002054601e60008473ffffffffffffffffffffffffffffffffffffffff1673ffffffffffffffffffffffffffffffffffffffff16815260200190815260200160002054612e6790919063ffffffff16565b601e60008373ffffffffffffffffffffffffffffffffffffffff1673ffffffffffffffffffffffffffffffffffffffff168152602001908152602001600020819055506000601e60003373ffffffffffffffffffffffffffffffffffffffff1673ffffffffffffffffffffffffffffffffffffffff168152602001908152602001600020819055508073ffffffffffffffffffffffffffffffffffffffff163373ffffffffffffffffffffffffffffffffffffffff167fddf252ad1be2c89b69c2b068fc378daa952ba7f163c4a11628f55a4df523b3ef601e60008573ffffffffffffffffffffffffffffffffffffffff1673ffffffffffffffffffffffffffffffffffffffff168152602001908152602001600020546040518082815260200191505060405180910390a3612a9a600960003373ffffffffffffffffffffffffffffffffffffffff1673ffffffffffffffffffffffffffffffffffffffff16815260200190815260200160002054600960008473ffffffffffffffffffffffffffffffffffffffff1673ffffffffffffffffffffffffffffffffffffffff16815260200190815260200160002054612e6790919063ffffffff16565b600960008373ffffffffffffffffffffffffffffffffffffffff1673ffffffffffffffffffffffffffffffffffffffff16815260200190815260200160002081905550612b6e600160003373ffffffffffffffffffffffffffffffffffffffff1673ffffffffffffffffffffffffffffffffffffffff16815260200190815260200160002054600160008473ffffffffffffffffffffffffffffffffffffffff1673ffffffffffffffffffffffffffffffffffffffff16815260200190815260200160002054612e6790919063ffffffff16565b600160008373ffffffffffffffffffffffffffffffffffffffff1673ffffffffffffffffffffffffffffffffffffffff16815260200190815260200160002081905550612c42600560003373ffffffffffffffffffffffffffffffffffffffff1673ffffffffffffffffffffffffffffffffffffffff16815260200190815260200160002054600560008473ffffffffffffffffffffffffffffffffffffffff1673ffffffffffffffffffffffffffffffffffffffff16815260200190815260200160002054612e6790919063ffffffff16565b600560008373ffffffffffffffffffffffffffffffffffffffff1673ffffffffffffffffffffffffffffffffffffffff16815260200190815260200160002081905550612d16601460003373ffffffffffffffffffffffffffffffffffffffff1673ffffffffffffffffffffffffffffffffffffffff16815260200190815260200160002054601460008473ffffffffffffffffffffffffffffffffffffffff1673ffffffffffffffffffffffffffffffffffffffff16815260200190815260200160002054612e6790919063ffffffff16565b601460008373ffffffffffffffffffffffffffffffffffffffff1673ffffffffffffffffffffffffffffffffffffffff168152602001908152602001600020819055506000600960003373ffffffffffffffffffffffffffffffffffffffff1673ffffffffffffffffffffffffffffffffffffffff168152602001908152602001600020819055506000600160003373ffffffffffffffffffffffffffffffffffffffff1673ffffffffffffffffffffffffffffffffffffffff168152602001908152602001600020819055506000600560003373ffffffffffffffffffffffffffffffffffffffff1673ffffffffffffffffffffffffffffffffffffffff16815260200190815260200160002081905550612e318161301f565b50565b6000600c548210158015612e4a5750600d548211155b15612e585760019050612e5d565b600090505b919050565b600481565b6000808284019050838110151515612e7e57600080fd5b8091505092915050565b6000828211151515612e9957600080fd5b818303905092915050565b612ef681601e60008573ffffffffffffffffffffffffffffffffffffffff1673ffffffffffffffffffffffffffffffffffffffff16815260200190815260200160002054612e6790919063ffffffff16565b601e60008473ffffffffffffffffffffffffffffffffffffffff1673ffffffffffffffffffffffffffffffffffffffff16815260200190815260200160002081905550612f4e81601c54612e6790919063ffffffff16565b601c8190555080601e60008473ffffffffffffffffffffffffffffffffffffffff1673ffffffffffffffffffffffffffffffffffffffff1681526020019081526020016000205410158015612fa5575080601c5410155b1515612fb057600080fd5b7f0f6798a560793a54c3bcfe86a93cde1e73087d944c0ea20544137d41213968858282604051808373ffffffffffffffffffffffffffffffffffffffff1673ffffffffffffffffffffffffffffffffffffffff1681526020018281526020019250505060405180910390a15050565b6130288161302b565b50565b600073ffffffffffffffffffffffffffffffffffffffff168173ffffffffffffffffffffffffffffffffffffffff161415151561306757600080fd5b806000806101000a81548173ffffffffffffffffffffffffffffffffffffffff021916908373ffffffffffffffffffffffffffffffffffffffff1602179055508073ffffffffffffffffffffffffffffffffffffffff166000809054906101000a900473ffffffffffffffffffffffffffffffffffffffff1673ffffffffffffffffffffffffffffffffffffffff167f8be0079c531659141344cd1fd0a4f28419497f9722a3daafe3b4186f6b6457e060405160405180910390a350565b600080600084141561313a576000915061315c565b828402905082848281151561314b57fe5b0414151561315857600080fd5b8091505b50929150505600a165627a7a7230582021dd2a01737d2ab13be31e3740002982ab3558f14c306b44431aa249fef448570029",
  "source": "pragma solidity >=0.4.21 <0.5.0;\n//pragma experimental \"v0.5.0\";\n\nimport \"./BrightCoinTokenOwner.sol\";\nimport \"./BrightCoinERC20ContractInterface.sol\";\nimport \"./BrightCoinTokenSaleType.sol\";\nimport \"./BrightCoinAdminTokenDistributionDetails.sol\";\nimport \"./SafeMath.sol\";\nimport \"./BrightCoinInvestorTokenLock.sol\";\n\n\n\n\n\ncontract BrightCoinERC20 is BrightCoinTokenPreSaleDetails,\n                           BrightCoinAdminTokenDistributionDetails,\n                            BrightCoinInvestorTokenLock\n                           \n                          \n                         \n                            \n{\n  using SafeMath for uint;\n\n\n event Transfer(address indexed from, address indexed _to, uint256 _value);\n  event Approval(address indexed owner, address indexed _spender, uint256 _value);\n   // Event called when presale is done\n  event PresaleFinalized(uint tokens);\n  event ICOSoftCapReached(string softcap);\n  event ICOSoftUnsuccessFull(uint256 TokenSold,string str);\n  event Burn(address addr, uint256 tokens);\n  event Mint(address target, uint256 mintedAmount);\n  \n \n  bool  internal pauseICO = false; \n  uint8 internal saleIndex = 0; //Default Sale Index as zero\n  address internal  custodianaddress;\n\n//Token Supply Details\n  uint256 public totalSupply; //Need to set at constructor level\n\n  //Purchase Rate\n /* function setPurchaseRate(uint newRate) public onlyTokenOwner {\n        require(purchaseRate != newRate);\n        purchaseRate = newRate;\n    }\n    */\n \n //ICO SoftCap & HardCap\n /*\n    Soft cap is the minimal amount required by your project, to make it viable, in order to continue. If you do not reach that amount during your ICO then you should allow your investors to refund their money using a push/ pull mechanism.\n */\n \n\n  function ChangeSoftCap(uint _newSoftcap) public onlyTokenOwner {\n        require(icoSoftcap != _newSoftcap);\n       // require(_newSoftcap <= totalSupply);\n       require(icoSoftcap <= (balances[owner()].add(balances[custodianaddress])));\n        icoSoftcap = _newSoftcap;\n      \n    }\n    function changeHardCapLimit(uint256 _newHardcap) public onlyTokenOwner {\n       \n        require(icoHardcap != _newHardcap);\n        require(_newHardcap <= (balances[owner()].add(balances[custodianaddress])));\n       // require(_newHardcap <= totalSupply);\n        icoHardcap = _newHardcap;\n      \n    }\n\n    function GetSoftcap() public  view   returns(uint256) {\n\n        return icoSoftcap;\n    }\n\n     function GetHardcap() public   view  returns(uint256) {\n\n        return icoHardcap;\n    }\n\n    //Check if softcap reached\n    function CheckIfSoftcapAchived() public   view returns(bool)\n    {\n\n        uint256 ownerbal = balances[owner()]; \n        uint256 custodianbal = balances[custodianaddress];\n       uint tokenSold = totalSupply.sub(ownerbal.add(custodianbal));\n\n        if (tokenSold > icoSoftcap)\n            return true;\n        else \n            return false;  \n        \n    }\n\n    //check if HARD Cap Achived\n    function CheckIfHardcapAchived(uint256 _tokens)  public view returns(bool)\n    {\n        uint256 ownerbal = balances[owner()]; \n        uint256 custodianbal = balances[custodianaddress];\n      uint tokenSold = totalSupply.sub(ownerbal.add(custodianbal));\n      require(tokenSold <= icoHardcap);\n      require(tokenSold.add(_tokens) <=icoHardcap);\n      return true;\n\n    }\n \n  \n\n//option for Minting more token \nbool public MintMoreTokens  = false;\nfunction UpdateTokenMintingOption(bool _mintingOption) public onlyTokenOwner  {\n  \n  MintMoreTokens = _mintingOption;\n}\n\n\n /////////////////////////////////////////////////   \n\n \n ////////////////////////////////////////\n    mapping(address => uint256) balances;\n    mapping(address => mapping (address => uint256)) allowed;\n\n //////////////////////////////////////////\n  \n \n  constructor () public{\n\n   totalSupply = initialSupply*(10**uint256(decimals));\n\n   TotalAllocatedTeamToken = InitialAllocatedTeamToken*(10**uint256(decimals));\n   TotalAllocatedFounder = InitialFounderToken*(10**uint256(decimals));\n   TotalAllocatedAdvisorToken = InitialAllocatedAdvisorToken*(10**uint256(decimals));\n   CompanyHoldingValue = InitialCompanyHoldingValue*(10**uint256(decimals));\n   \n   \n\n   icoHardcap = icoHardcap.mul(10**uint256(decimals));\n   icoSoftcap = icoSoftcap.mul(10**uint256(decimals));\n   \n   balances[msg.sender] = totalSupply;\n  emit Transfer(address(0), msg.sender, totalSupply);\n   \n  FounderBalances[msg.sender] = TotalAllocatedFounder;\n  AdvisorBalances[msg.sender] = TotalAllocatedAdvisorToken;\n  TeamBalances[msg.sender] = TotalAllocatedTeamToken;\n  CompanyHoldingBalances[msg.sender] = CompanyHoldingValue;\n \n \n  }\n\n \n\n // This function returns remaininig token\n  function balanceOf(address _who) public constant returns (uint256) {\n      return balances[_who];\n  }\n\n//Function Total Supply\nfunction totalSupply() public constant returns (uint256) {\n      return totalSupply;\n  }\n\n\n    \n    function allowance(address _owner, address _spender) public view returns (uint256) {\n        return allowed[_owner][_spender];\n      }\n    \n   \n    /// @notice Will Transfer tokens from current address to receipient address.\n    /// @param _to  addresses to send token.\n    /// @param _tokens amount of token to be transferred.\n    function internaltransfer(address _from, address _to, uint256 _tokens) internal returns (bool) {\n  \n     // Prevent transfer to 0x0 address. \n    require(_to != 0x0);\n    require (_tokens > 0);\n   require (_from != _to);\n   require(balances[_from] >= _tokens);\n   require(balances[_to] + _tokens > balances[_to]);\n    balances[_from] = balances[_from].sub(_tokens);\n    balances[_to] = balances[_to].add(_tokens);\n    emit Transfer(_from, _to, _tokens);\n    \n    return true;\n   }\n   \n   \n\n    /// @notice Will cause a certain `_value` of coins minted for `_to`.\n    /// @param _to The address that will receive the coin.\n    /// @param _value The amount of coin they will receive.\n    function mint(address _to, uint _value) public onlyTokenOwner  {\n       // assuming you have a contract owner\n        mintToken(_to, _value);\n    }\n\n\n    /// Internal method shared by `mint()` and `airdropMinting()`.\n    function mintToken(address _to, uint256 _value) internal {\n\n        balances[_to]  = balances[_to].add(_value);\n        totalSupply =  totalSupply.add(_value); \n        require(balances[_to] >= _value && totalSupply >= _value); // overflow checks\n        emit  Mint(_to, _value);\n    } \n\n    /// @notice it will burn all the token passed as parameter.\n    /// @param _value Value of token to be burnt\n   function burn(uint256 _value) public onlyTokenOwner  {\n    require(_value > 0);\n    require(_value <= balances[msg.sender]);\n    // no need to require value <= totalSupply, since that would imply the\n    // sender's balance is greater than the totalSupply, which *should* be an assertion failure\n    address burner = msg.sender;\n    balances[burner] = balances[burner].sub(_value);\n    totalSupply = totalSupply.sub(_value);\n    emit Burn(burner, _value);\n   }\n\n\n   //Owner of ICO can anytime Stop the ICO post that no any transaction will happen\n   function pauseICOtransaction(bool _status) public onlyTokenOwner  {\n\n    pauseICO = _status;\n   }\n\n//Check if token is available for further Distribution to Admin\n function InterTransferToAdmin(address _addr,\n                     uint256 _tokenAmount,\n                     uint8 _adminType )   internal  returns(bool)\n {\n     if(_adminType == uint8(BrightCoinAdminType.Founder))\n    {\n        require(_tokenAmount <= FounderBalances[msg.sender]);\n        // balances[_addr] = balances[_addr].add(_tokenAmount);\n        internaltransfer(msg.sender,_addr,_tokenAmount);\n         FounderBalances[msg.sender] = FounderBalances[msg.sender].sub(_tokenAmount);\n        // emit Transfer(msg.sender, addr, TokenAmount);\n      return true;\n    }\n    else if (_adminType == uint8(BrightCoinAdminType.Advisor))\n    {\n      require(_tokenAmount <= AdvisorBalances[msg.sender]);\n      //balances[_addr] = balances[_addr].add(_tokenAmount);\n       internaltransfer(msg.sender,_addr,_tokenAmount);\n      AdvisorBalances[msg.sender] = AdvisorBalances[msg.sender].sub(_tokenAmount);\n     // emit Transfer(msg.sender, addr, TokenAmountf);\n      return true;\n    }\n    else if(_adminType == uint8(BrightCoinAdminType.Team))\n    {\n      require(_tokenAmount <= TeamBalances[msg.sender]);\n      //balances[_addr] = balances[_addr].add(_tokenAmount);\n       internaltransfer(msg.sender,_addr,_tokenAmount);\n      TeamBalances[msg.sender] = TeamBalances[msg.sender].sub(_tokenAmount);\n     // emit Transfer(msg.sender, addr, TokenAmount);\n      return true;\n\n    }  \n }\n    //Check if token is available for further Distribution to Advisor\n function InternalTransferfrom(address _from , address _addr, uint256 _tokenamount)  internal returns(bool)\n {\n     \n        require(allowed[owner()][_from] >= _tokenamount);\n        allowed[owner()][_from] = allowed[owner()][_from].sub(_tokenamount);\n       internaltransfer(_from, _addr, _tokenamount);\n        \n       return true;\n }  \n \n function transferownership(address _newOwner) public onlyTokenOwner \n {\n     \n     require(_newOwner != 0x0);\n    balances[_newOwner] =  balances[_newOwner].add(balances[msg.sender]);\n     //To avoid reentrency \n   balances[msg.sender] = 0;\n   emit Transfer(msg.sender, _newOwner, balances[_newOwner]);\n   \n   \n  FounderBalances[_newOwner] = FounderBalances[_newOwner].add(FounderBalances[msg.sender]);\n  AdvisorBalances[_newOwner] = AdvisorBalances[_newOwner].add(AdvisorBalances[msg.sender]);\n  TeamBalances[_newOwner] = TeamBalances[_newOwner].add(TeamBalances[msg.sender]);\n  CompanyHoldingBalances[_newOwner] = CompanyHoldingBalances[_newOwner].add(CompanyHoldingBalances[msg.sender]);\n\n    //To avoid reentrency \n // balances[msg.sender] = 0;\n  FounderBalances[msg.sender] = 0;\n  AdvisorBalances[msg.sender] = 0;\n  TeamBalances[msg.sender] = 0;\n  \n   transferOwnership(_newOwner); // Transfer Ownership\n     \n     \n }\n\n\n\n}",
  "sourcePath": "/Users/shubhamsuyal/code/brightcoin/dapp/contracts/BrightCoinERC20Contract.sol",
  "compiler": {
    "name": "solc",
    "version": "0.4.24+commit.e67f0147.Emscripten.clang"
  },
  "schemaVersion": "2.0.1",
  "updatedAt": "2019-01-15T05:16:30.802Z"
}