{
  "contractName": "BrightCoinTokenConfig",
  "abi": [
    {
      "constant": true,
      "inputs": [],
      "name": "name",
      "outputs": [
        {
          "name": "",
          "type": "string"
        }
      ],
      "payable": false,
      "stateMutability": "view",
      "type": "function"
    },
    {
      "constant": true,
      "inputs": [],
      "name": "decimals",
      "outputs": [
        {
          "name": "",
          "type": "uint256"
        }
      ],
      "payable": false,
      "stateMutability": "view",
      "type": "function"
    },
    {
      "constant": true,
      "inputs": [],
      "name": "initialSupply",
      "outputs": [
        {
          "name": "",
          "type": "uint256"
        }
      ],
      "payable": false,
      "stateMutability": "view",
      "type": "function"
    },
    {
      "constant": true,
      "inputs": [],
      "name": "BonusAmountPreSale",
      "outputs": [
        {
          "name": "",
          "type": "uint256"
        }
      ],
      "payable": false,
      "stateMutability": "view",
      "type": "function"
    },
    {
      "constant": true,
      "inputs": [],
      "name": "purchaseRate",
      "outputs": [
        {
          "name": "",
          "type": "uint256"
        }
      ],
      "payable": false,
      "stateMutability": "view",
      "type": "function"
    },
    {
      "constant": true,
      "inputs": [],
      "name": "InitialCompanyHoldingValue",
      "outputs": [
        {
          "name": "",
          "type": "uint256"
        }
      ],
      "payable": false,
      "stateMutability": "view",
      "type": "function"
    },
    {
      "constant": true,
      "inputs": [],
      "name": "version",
      "outputs": [
        {
          "name": "",
          "type": "string"
        }
      ],
      "payable": false,
      "stateMutability": "view",
      "type": "function"
    },
    {
      "constant": true,
      "inputs": [],
      "name": "symbol",
      "outputs": [
        {
          "name": "",
          "type": "string"
        }
      ],
      "payable": false,
      "stateMutability": "view",
      "type": "function"
    },
    {
      "constant": true,
      "inputs": [],
      "name": "ICOType",
      "outputs": [
        {
          "name": "",
          "type": "uint8"
        }
      ],
      "payable": false,
      "stateMutability": "view",
      "type": "function"
    },
    {
      "constant": true,
      "inputs": [],
      "name": "InitialFounderToken",
      "outputs": [
        {
          "name": "",
          "type": "uint256"
        }
      ],
      "payable": false,
      "stateMutability": "view",
      "type": "function"
    },
    {
      "constant": true,
      "inputs": [],
      "name": "CompanyHoldingAddress",
      "outputs": [
        {
          "name": "",
          "type": "address"
        }
      ],
      "payable": false,
      "stateMutability": "view",
      "type": "function"
    },
    {
      "constant": true,
      "inputs": [],
      "name": "maxCoinSoldDuringPresale",
      "outputs": [
        {
          "name": "",
          "type": "uint256"
        }
      ],
      "payable": false,
      "stateMutability": "view",
      "type": "function"
    },
    {
      "constant": true,
      "inputs": [],
      "name": "Discount",
      "outputs": [
        {
          "name": "",
          "type": "uint8"
        }
      ],
      "payable": false,
      "stateMutability": "view",
      "type": "function"
    }
  ],
  "bytecode": "0x6080604052635be030c0600055635d194cff6001556000600255600060035560006004556000600555630ee6b28060065534801561003c57600080fd5b506105918061004c6000396000f3006080604052600436106100c5576000357c0100000000000000000000000000000000000000000000000000000000900463ffffffff16806306fdde03146100ca578063313ce5671461015a578063378dc3dc14610185578063410116fb146101b057806348c26e22146101db57806354c15d5e1461020657806354fd4d501461023157806395d89b41146102c15780639ca5d79f14610351578063a180218f14610382578063a4876bc4146103ad578063b30f63da14610404578063c63ccb3b1461042f575b600080fd5b3480156100d657600080fd5b506100df610460565b6040518080602001828103825283818151815260200191508051906020019080838360005b8381101561011f578082015181840152602081019050610104565b50505050905090810190601f16801561014c5780820380516001836020036101000a031916815260200191505b509250505060405180910390f35b34801561016657600080fd5b5061016f610499565b6040518082815260200191505060405180910390f35b34801561019157600080fd5b5061019a61049e565b6040518082815260200191505060405180910390f35b3480156101bc57600080fd5b506101c56104a6565b6040518082815260200191505060405180910390f35b3480156101e757600080fd5b506101f06104ab565b6040518082815260200191505060405180910390f35b34801561021257600080fd5b5061021b6104b1565b6040518082815260200191505060405180910390f35b34801561023d57600080fd5b506102466104b9565b6040518080602001828103825283818151815260200191508051906020019080838360005b8381101561028657808201518184015260208101905061026b565b50505050905090810190601f1680156102b35780820380516001836020036101000a031916815260200191505b509250505060405180910390f35b3480156102cd57600080fd5b506102d66104f2565b6040518080602001828103825283818151815260200191508051906020019080838360005b838110156103165780820151818401526020810190506102fb565b50505050905090810190601f1680156103435780820380516001836020036101000a031916815260200191505b509250505060405180910390f35b34801561035d57600080fd5b5061036661052b565b604051808260ff1660ff16815260200191505060405180910390f35b34801561038e57600080fd5b5061039761053b565b6040518082815260200191505060405180910390f35b3480156103b957600080fd5b506103c2610543565b604051808273ffffffffffffffffffffffffffffffffffffffff1673ffffffffffffffffffffffffffffffffffffffff16815260200191505060405180910390f35b34801561041057600080fd5b5061041961055b565b6040518082815260200191505060405180910390f35b34801561043b57600080fd5b50610444610560565b604051808260ff1660ff16815260200191505060405180910390f35b6040805190810160405280600981526020017f50726f7869436f696e000000000000000000000000000000000000000000000081525081565b600081565b631dcd650081565b600081565b60045481565b6302625a0081565b6040805190810160405280600381526020017f312e30000000000000000000000000000000000000000000000000000000000081525081565b6040805190810160405280600381526020017f50434e000000000000000000000000000000000000000000000000000000000081525081565b6002600381111561053857fe5b81565b630bebc20081565b73b9872b9ab8235cc3b4253195c5476d284d448c5d81565b600081565b6000815600a165627a7a72305820171bb76180e7c70012b5457e20b73e44a53040af61fbd4fbaa8e3ff8cf6d564e0029",
  "source": "pragma solidity >=0.4.21 <0.5.0;\n//pragma solidity ^0.4.25;\n\ncontract BrightCoinTokenConfig\n{\n\n    //Token Details  \n  string public constant symbol = \"PCN\"; // This is token symbol\n  string public constant name = \"ProxiCoin\"; // this is token name\n  uint256 public constant decimals = 0; // decimal digit for token price calculation\n  string public constant version = \"1.0\";\n\n  uint256 public constant initialSupply = 500000000;\n\n   //For Presales Only \n    uint256  public constant maxCoinSoldDuringPresale = 0;\n    uint256  public constant BonusAmountPreSale = 0;//Not Discount and Bonuses for Proxicoin\n    uint8    public constant Discount = 0;  //Not Discount and Bonuses for Proxicoin\n\n     //PreSale Start & End Dates \n    uint256 internal ICOstartDate = 1541419200; //05/11/2018 12:00AM GMT \n    uint256 internal ICOendDate =  1561939199;   //30/06/2019 23:59PM GMT \n\n     //Presale Maximum and Minmum Contributions\n    uint256  internal MinimumContribution = 0 ether;\n    uint256  internal MaximumContribution = 0 ether;\n\n    //purchase rate can be changed by the Owner\n     uint256 public purchaseRate = 0;  //10204 token per Ether\n\n    enum BrightCoinICOType { RegD, RegS, RegDRegS, Utility }\n    uint8 public constant ICOType = uint8(BrightCoinICOType.RegDRegS);   //0 for RegD , 1 for RegS and 2 for RedDRegS and 3 means utility ICO\n\n  \n\n\n   uint internal icoSoftcap = 0; //Minimum Eather to Reach\n   uint internal icoHardcap = 250000000; //HardCap\n\n   \n   uint256 public constant InitialFounderToken = 200000000;\n   uint256 internal constant InitialAllocatedTeamToken = 0;  // Token token allocated for Team distribution\n   uint256 internal constant InitialAllocatedAdvisorToken = 10000000;\n   uint256 public constant InitialCompanyHoldingValue = 40000000;// Value to be updated via Script\n\n\n//Investment storage address\naddress public constant CompanyHoldingAddress = 0xB9872b9AB8235CC3b4253195c5476D284D448c5D;\n\n\n\n}",
  "sourcePath": "/Users/shubhamsuyal/code/brightcoin/dapp/contracts/BrightCoinTokenConfig.sol",
  "compiler": {
    "name": "solc",
    "version": "0.4.24+commit.e67f0147.Emscripten.clang"
  },
  "schemaVersion": "2.0.1",
  "updatedAt": "2019-01-15T05:16:30.815Z"
}